:100000000C943C000C9459000C9459000C94590029
:100010000C9459000C9459000C9459000C945900FC
:100020000C9459000C9459000C9459000C945900EC
:100030000C9459000C9459000C9459000C945900DC
:100040000C9459000C94B7020C9459000C9459006C
:100050000C9459000C9459000C9459000C945900BC
:100060000C9402030C9459000C9459000C94590000
:100070000C9459000C94590011241FBECFEFCDBF32
:10008000DFE3DEBF18E3A0E0B8E3EFEDF0E102C08C
:1000900005900D92A631B107D9F728E3A6E1B8E3A0
:1000A00001C01D92A032B207E1F70E94AD020C948C
:1000B0004C080C9400009091040895FFFCCF8093AD
:1000C000020808950E945B0080E090E00895E0E05F
:1000D000F8E08DE690E08087918780EC868380E869
:1000E0008093050881E08093E20580E098E38093A7
:1000F0001C3890931D38089588ED84BF10926100DC
:1001000084BF81E0809360000895E0E4F4E08081A2
:10011000877F808383898260838BE0E0F4E0808145
:100120008B7F8083808182608083A0E2B4E05496DC
:100130008C915497887F54968C93549754968C91B5
:100140005497846054968C93549754968C915497FA
:10015000877F54968C938589887F858B8589846079
:10016000858B8589877F858B8689887F868B868925
:100170008460868B8689877F868B08950F931F9373
:100180002091FF1430E0A2E0BEEF0E945C05AB01BD
:10019000BC01E0E0F4E180E090E0DC0105C02191E9
:1001A000820F911DA11DB11DEF3F04E1F007BCF3CB
:1001B0008C019D01040F151F261F371FC901B801AF
:1001C0001F910F910895CF92DF92EF92FF92CF93FC
:1001D000DF93CDB7DEB72C97CDBFDEBF6B017C01BF
:1001E0000E9407046F837887072E000C880B990BF9
:1001F0000E943F049B01AC01C701B6010E94950318
:1002000020E030E040E251E40E94EF046B017C0109
:100210000E94070469877A87072E000C880B990BC8
:100220000E943F049B01AC01C701B6010E949503E7
:1002300020E030E040E251E40E94EF040E94070415
:100240006B877C8786E0FE013796DE011196019070
:100250000D928A95E1F729813A814B815C816D810C
:100260007E8180E090E02C96CDBFDEBFDF91CF9104
:10027000FF90EF90DF90CF9008950F931F93CF934F
:10028000DF938C01C0E0D0E007C0F801EC0FFD1F48
:1002900080810E945B002196F80101900020E9F71F
:1002A0003197E01BF10BCE17DF0778F3DF91CF9189
:1002B0001F910F910895E0E0F6E081E0818386E0F0
:1002C0008283089581E180930A068091050680FF6C
:1002D000FCCFE0E0F6E081E0858380899189A28906
:1002E000B38908958F929F92AF92BF92CF92DF927F
:1002F000EF92FF92CF93DF939C01E0E2F4E09081D4
:100300009062908394819062948386E696E101974F
:10031000F1F700002A30310539F02B30310559F062
:100320002630310571F413C0E0E0F6E081E080830F
:1003300089E0848706C0E0E0F6E081E0808385E024
:100340008487C0E0D0E0C12CD12C760137C0E0E03A
:10035000F6E081E0808386E08487F3CF0E9462012B
:10036000BC0180E090E00E943D0420E030E040E2EB
:1003700050E40E94EF0420E030E040E859E30E949E
:10038000EF0420E030E040E05FE30E94EF044B0127
:100390005C0120E030E040E05FE3C701B6010E946D
:1003A000EF049B01AC01C501B4010E9496036B01EF
:1003B0007C01219683E393E00197F1F7C431D105E5
:1003C0006CF2E0E0F6E080818E7F8083E0E2F4E092
:1003D00084818F7D8483C701B601DF91CF91FF9027
:1003E000EF90DF90CF90BF90AF909F908F90089547
:1003F000CF92DF92EF92FF926B017C0124EA30E70B
:100400004DEF5EE30E9402041816ACF42AE034EAD1
:100410004FE051E4C701B6010E94EF042BE238E13E
:100420004DE850E40E94950323E333E343E251E4B3
:100430000E94EF0403C060E070E0CB01FF90EF90FA
:10044000DF90CF900895CF92DF92EF92FF920F93BB
:100450001F93CF93DF93CDB7DEB76297CDBFDEBFDB
:100460008C018AE090E00E9472010E94F8010E94D3
:10047000E30029833A834B835C836D837E838BE027
:1004800090E00E9472010E94F8010E94E3002F8315
:10049000388749875A876B877C8786E090E00E947F
:1004A000720120E030E040EA50E40E94EF040E9434
:1004B000E3002D873E874F87588B698B7A8B0E948C
:1004C000BE00F62EE72ED82EC92E6CE970E9C801C1
:1004D0000E946B05892B89F58A898F9389898F936F
:1004E00088898F938F858F938E858F938D858F933A
:1004F000CF92DF92EF92FF928C858F938B858F93B3
:100500008A858F9389858F9388858F938F818F9329
:100510008E818F938D818F938C818F938B818F931D
:100520008A818F9389818F9380EA90E99F938F933B
:100530000E947405CDBFDEBF04C088EC90E90E9424
:100540003D016296CDBFDEBFDF91CF911F910F912C
:10055000FF90EF90DF90CF9008950E947C000E9462
:100560005B010E9485000E9467007894FFCF1F9274
:100570000F920FB60F9211242F933F934F935F93D7
:100580006F937F938F939F93AF93BF93EF93FF935B
:1005900089E991E00197F1F700C08091000880930C
:1005A0001938882381F08D3071F090911638E92F39
:1005B000F0E0E25FF74C80839F5F909316389930AC
:1005C00010F0109216388D3061F4E0911638F0E09A
:1005D000E25FF74C8083109216388EE098E30E9419
:1005E0002302FF91EF91BF91AF919F918F917F91E6
:1005F0006F915F914F913F912F910F900FBE0F9090
:100600001F9018951F920F920FB60F9211242F93DF
:100610003F934F935F936F937F938F939F93AF938A
:10062000BF93EF93FF93E9E4F4E0808188608083D7
:1006300080911738909118380196809317389093CD
:1006400018389F938F938BED90E99F938F930E941F
:1006500074058091FF140F900F900F900F908F3FB3
:1006600009F452C0E0E0F4E190E049C0DF0180818C
:1006700081110DC0E11524E1F20749F48F5F8093E9
:1006800000148DE984BF83E0809300103DC089177A
:1006900040F48F5F8C938DE984BF83E080930010DA
:1006A00033C0EE3F24E1F207C9F48F3FB9F4AFEF56
:1006B000B4E12C912F5F2C932DE924BF23E02093EC
:1006C0000010A0E0B4E106C01D922DE924BF23E094
:1006D00020930010AF3F24E1B207B4F3EE3F24E1D2
:1006E000F20759F4981309C091E0980F9093001401
:1006F0009DE994BF93E0909300103196982FEF3FBF
:1007000084E1F8070CF4B2CFFF91EF91BF91AF9164
:100710009F918F917F916F915F914F913F912F9119
:100720000F900FBE0F901F9018955058BB27AA2707
:100730000E94AD030C94B5040E94A70438F00E94F7
:10074000AE0420F039F49F3F19F426F40C94A4046D
:100750000EF4E095E7FB0C949E04E92F0E94C6047A
:1007600058F3BA17620773078407950720F079F4E6
:10077000A6F50C94E8040EF4E0950B2EBA2FA02DEC
:100780000B01B90190010C01CA01A0011124FF273E
:10079000591B99F0593F50F4503E68F11A16F04039
:1007A000A22F232F342F4427585FF3CF4695379538
:1007B0002795A795F0405395C9F77EF41F16BA0BFD
:1007C000620B730B840BBAF09150A1F0FF0FBB1FAB
:1007D000661F771F881FC2F70EC0BA0F621F731FF4
:1007E000841F48F4879577956795B795F7959E3F51
:1007F00008F0B0CF9395880F08F09927EE0F9795E2
:10080000879508950E947A0408F481E008950E9473
:100810000E046894B1110C94E90408950E94CE046A
:1008200088F09F5798F0B92F9927B751B0F0E1F0B1
:10083000660F771F881F991F1AF0BA95C9F714C061
:10084000B13091F00E94E804B1E008950C94E804FE
:10085000672F782F8827B85F39F0B93FCCF386959A
:1008600077956795B395D9F73EF4909580957095F7
:1008700061957F4F8F4F9F4F0895E89409C097FB74
:100880003EF490958095709561957F4F8F4F9F4F67
:100890009923A9F0F92F96E9BB279395F6958795AB
:1008A00077956795B795F111F8CFFAF4BB0F11F46E
:1008B00060FF1BC06F5F7F4F8F4F9F4F16C0882315
:1008C00011F096E911C0772321F09EE8872F762F4B
:1008D00005C0662371F096E8862F70E060E02AF08C
:1008E0009A95660F771F881FDAF7880F9695879578
:1008F00097F90895990F0008550FAA0BE0E8FEEF4D
:1009000016161706E807F907C0F012161306E407D3
:10091000F50798F0621B730B840B950B39F40A26CC
:1009200061F0232B242B252B21F408950A2609F4AA
:10093000A140A6958FEF811D811D089597F99F67AE
:1009400080E870E060E008959FEF80EC0895002457
:100950000A941616170618060906089500240A9424
:1009600012161306140605060895092E0394000CAA
:1009700011F4882352F0BB0F40F4BF2B11F460FF39
:1009800004C06F5F7F4F8F4F9F4F089557FD905862
:10099000440F551F59F05F3F71F04795880F97FB43
:1009A000991F61F09F3F79F08795089512161306FD
:1009B0001406551FF2CF4695F1DF08C0161617062C
:1009C0001806991FF1CF8695710561050894089561
:1009D000E894BB2766277727CB0197F908950E94F3
:1009E00002050C94B5040E94A70438F00E94AE04DE
:1009F00020F0952311F00C949E040C94A40411246F
:100A00000C94E9040E94C60470F3959FC1F3950FFE
:100A100050E0551F629FF001729FBB27F00DB11D82
:100A2000639FAA27F00DB11DAA1F649F6627B00D12
:100A3000A11D661F829F2227B00DA11D621F739FFB
:100A4000B00DA11D621F839FA00D611D221F749F09
:100A50003327A00D611D231F849F600D211D822F50
:100A6000762F6A2F11249F5750409AF0F1F0882377
:100A70004AF0EE0FFF1FBB1F661F771F881F9150A4
:100A80005040A9F79E3F510580F00C949E040C94B1
:100A9000E9045F3FE4F3983ED4F386957795679534
:100AA000B795F795E7959F5FC1F7FE2B880F911DCE
:100AB0009695879597F90895A29FB001B39FC001BD
:100AC000A39F700D811D1124911DB29F700D811D7A
:100AD0001124911D0895FB01DC018D910190801975
:100AE0000110D9F3990B0895A0E0B0E0EAE7F5E032
:100AF0000C942B08AE014B5F5F4FFA01619171912D
:100B0000AF0180911C3890911D380E948A05E2E067
:100B10000C944408ABE0B0E0E0E9F5E00C941B086D
:100B20006C017B018A01FC0116821782838181FF9F
:100B3000CCC1CE0101963C01F6019381F70193FDF2
:100B4000859193FF81917F01882309F4BAC1853291
:100B500039F493FD859193FF81917F01853229F4CA
:100B6000B60190E00E948107E7CF912C212C312C17
:100B7000FFE1F315D8F08B3279F038F4803279F058
:100B80008332A1F4232D20611DC08D3261F08033AA
:100B900069F4232D216016C0832D8260382EE32D49
:100BA000E4603E2E2AC0F32DF8601DC037FC2DC036
:100BB00020ED280F2A3040F08E32B9F436FC81C186
:100BC000232D2064322E19C036FE06C08AE0989E7E
:100BD000200D1124922E11C0EAE02E9E200D11242A
:100BE000222EF32DF0623F2E08C08C3621F4832D87
:100BF0008068382E02C0883641F4F70193FD859154
:100C000093FF81917F018111B3CF982F9F7D9554E0
:100C1000933028F40C5F1F4F9FE399830DC08336F8
:100C200031F0833771F0833509F059C021C0F801E4
:100C3000808189830E5F1F4F88248394912C5301F8
:100C400013C02801F2E04F0E511CF801A080B180C2
:100C500036FE03C0692D70E002C06FEF7FEFC50163
:100C60000E9476074C018201F32DFF773F2E16C0BC
:100C7000280122E0420E511CF801A080B18036FE0E
:100C800003C0692D70E002C06FEF7FEFC5010E94C5
:100C90006B074C01F32DF0683F2E820133FC1BC023
:100CA000822D90E088169906B0F4B60180E290E0BB
:100CB0000E9481072A94F4CFF50137FC859137FE15
:100CC00081915F01B60190E00E94810721102A9472
:100CD00021E0821A91088114910471F7E8C08436EA
:100CE00011F0893641F5F80137FE07C06081718146
:100CF000828193810C5F1F4F08C060817181072E34
:100D0000000C880B990B0E5F1F4FF32DFF763F2EC3
:100D100097FF09C090958095709561957F4F8F4F93
:100D20009F4FF0683F2E2AE030E0A3010E94BD07EC
:100D3000882E861845C0853731F4232D2F7EB22E9C
:100D40002AE030E025C0932D997FB92E8F36C1F06F
:100D500018F4883579F0B5C0803719F0883721F05C
:100D6000B0C0E92FE061BE2EB4FE0DC0FB2DF460D3
:100D7000BF2E09C034FE0AC0292F2660B22E06C03D
:100D800028E030E005C020E130E002C020E132E0A0
:100D9000F801B7FE07C060817181828193810C5F89
:100DA0001F4F06C06081718180E090E00E5F1F4F91
:100DB000A3010E94BD07882E8618FB2DFF773F2ECA
:100DC00036FE0DC0232D2E7FA22E891458F434FE3A
:100DD0000BC032FC09C0832D8E7EA82E05C0B82C16
:100DE000A32C03C0B82C01C0B92CA4FE0FC0FE0177
:100DF000E80DF11D8081803321F49A2D997EA92E72
:100E000009C0A2FE06C0B394B39404C08A2D8678AC
:100E100009F0B394A3FC11C0A0FE06C0B21488F47C
:100E2000280C922C9B180EC0B21460F4B60180E21C
:100E300090E00E948107B394F7CFB21418F42B18F6
:100E400002C0982C212CA4FE10C0B60180E390E0D3
:100E50000E948107A2FE17C0A1FC03C088E790E0B2
:100E600002C088E590E0B6010CC08A2D867859F062
:100E7000A1FE02C08BE201C080E2A7FC8DE2B601B8
:100E800090E00E948107891438F4B60180E390E075
:100E90000E9481079A94F7CF8A94F301E80DF11D1F
:100EA0008081B60190E00E9481078110F5CF222059
:100EB00009F442CEB60180E290E00E9481072A94B4
:100EC000F6CFF6018681978102C08FEF9FEF2B96B8
:100ED000E2E10C943408FC0105906150704001106F
:100EE000D8F7809590958E0F9F1F0895FC01615053
:100EF000704001900110D8F7809590958E0F9F1F3C
:100F000008950F931F93CF93DF93FB01238121FD5E
:100F100003C08FEF9FEF2CC022FF16C04681578180
:100F2000248135814217530744F4A081B1819D018A
:100F30002F5F3F4F208331838C93268137812F5F32
:100F40003F4F2683378314C08B01EC01FB010084E3
:100F5000F185E02D0995892BE1F6D80116968D9142
:100F60009C911797019616968D939C931797CE0197
:100F7000DF91CF911F910F910895FA01AA27283090
:100F800051F1203181F1E8946F936E7F6E5F7F4F56
:100F90008F4F9F4FAF4FB1E03ED0B4E03CD0670FD2
:100FA000781F891F9A1FA11D680F791F8A1F911D25
:100FB000A11D6A0F711D811D911DA11D20D009F475
:100FC00068943F912AE0269F11243019305D3193B7
:100FD000DEF6CF010895462F4770405D4193B3E0A0
:100FE0000FD0C9F7F6CF462F4F70405D4A3318F047
:100FF000495D31FD4052419302D0A9F7EACFB4E0F8
:10100000A6959795879577956795BA95C9F70097AF
:101010006105710508959B01AC010A2E0694579550
:10102000479537952795BA95C9F7620F731F841FA7
:10103000951FA01D08952F923F924F925F926F923D
:101040007F928F929F92AF92BF92CF92DF92EF9258
:10105000FF920F931F93CF93DF93CDB7DEB7CA1BD9
:10106000DB0BCDBFDEBF09942A88398848885F84AE
:101070006E847D848C849B84AA84B984C884DF8038
:10108000EE80FD800C811B81AA81B981CE0FD11D1C
:0C109000CDBFDEBFED010895F894FFCF46
:10109C004D530D0052503125642E25642564525059
:1010AC003225642E25642564525131256C752E3001
:1010BC0052563125642E256425640D00496E636FEC
:1010CC00727265637420436F6D6D616E640D0025E3
:0310DC00750D008F
:1010DF00000000020000000062000000000020007D
:0610EF00000000000000FB
:00000001FF
