:100000000C94E4000C9401010C9401010C94010186
:100010000C9401010C9401010C9401010C94010158
:100020000C9474050C9401010C9401010C940101D1
:100030000C9401010C9401010C9401010C94010138
:100040000C9401010C94DA010C9401010C9401014F
:100050000C9401010C9401010C9401010C94010118
:100060000C9497050C9401010C9401010C9401016E
:100070000C9401010C9401016E616E00696E6600C2
:1000800000407A10F35A00A0724E18090010A5D44F
:10009000E80000E87648170000E40B54020000CAAC
:1000A0009A3B000000E1F5050000809698000000F2
:1000B00040420F000000A086010000001027000051
:1000C0000000E803000000006400000000000A00D7
:1000D000000000000100000000002C76D888DC67DA
:1000E0004F0823DFC1DFAE59E1B1B796E5E3E45332
:1000F000C63AE651997696E8E6C28426EB898C9B4F
:1001000062ED407C6FFCEFBC9C9F40F2BAA56FA5EE
:10011000F490055A2AF75C936B6CF9676DC11BFC70
:10012000E0E40D47FEF520E6B500D0ED902E03008B
:10013000943577050080841E080000204E0A0000D8
:1001400000C80C333333330F986E12831141EF8D97
:100150002114893BE65516CFFEE6DB18D1844B38D7
:100160001BF77C1D901DA4BBE424203284725E2208
:100170008100C9F124ECA1E53D276364696E6F70CD
:10018000737578585B65666745464700616E006E1B
:1001900066696E69747900CDCCCC3D0AD7233C17D3
:1001A000B7D13877CC2B329595E6241FB14F0A0092
:1001B0000020410000C84200401C4620BCBE4CCA82
:1001C0001B0E5AAEC59D740011241FBECFEFCDBFCC
:1001D000DFE3DEBF18E3A0E0B8E3EAE2FFE302C03A
:1001E00005900D92A034B107D9F729E3A0E4B8E354
:1001F00001C01D92A132B207E1F70E94F5100C94E4
:10020000981E0C940000CF93DF93C0E4D4E0888163
:10021000877F88838B89877F8B8B8B8982608B8B91
:10022000A0E0B4E08C918B7F8C938C9182608C9356
:10023000E0E2F4E08081846080838489877F848B1E
:1002400084818B7F84838881826088838489877F8F
:10025000848B8C818D7F8C838489887F848B848937
:100260008460848B8489877F848B55968C91559785
:10027000887F55968C93559755968C9155978460A9
:1002800055968C93559755968C915597877F559693
:100290008C93559793E091838089877F808B94839B
:1002A0008189877F818B56968C915697887F569649
:1002B0008C93569756968C915697846056968C934D
:1002C000569756968C915697877F56968C9356974D
:1002D0008081806280838589877F858B84818F7D03
:1002E00084838C9188608C9353968C915397877FED
:1002F00053968C93539714968C911497877F1496EA
:100300008C93DF91CF91089580E008C0E82FF0E052
:10031000E05FFB4F9081986090838F5F8830B0F3EF
:1003200080E008C0E82FF0E0E05DFB4F908198602E
:1003300090838F5F8630B0F380E008C0E82FF0E054
:10034000E05BFB4F9081986090838F5F8430B0F3C7
:10035000089588ED84BF1092610084BF81E080938E
:10036000600008959091040895FFFCCF80930208E7
:1003700008950E94B20180E090E008958091040801
:100380008823E4F7809100080895E0E0F8E08DE626
:1003900090E08087918780EC868380E880930508D1
:1003A00081E08093E20580E098E380931D3990938B
:1003B0001E3908951F920F920FB60F9211242F939A
:1003C0003F934F935F936F937F938F939F93AF93DD
:1003D000BF93EF93FF930E94BE0180931839882347
:1003E00081F08D3071F090917438E92FF0E0E25F88
:1003F000F74C80839F5F90937438933310F0109282
:1004000074388D3009F04FC0E0917438F0E0E25F4D
:10041000F74C8083109274388091D938811111C0C3
:100420009091A73891110DC090917538911109C024
:1004300042E350E06EE078E389ED98E30E94EA1C25
:1004400025C0882389F09091A73891110DC0909113
:100450007538911109C042E350E06EE078E387EA15
:1004600098E30E94EA1C12C0882381F08091A7388B
:10047000882361F080917538811108C042E350E013
:100480006EE078E385E798E30E94EA1C82E3EEE001
:10049000F8E3DF011D928A95E9F781E090E080930F
:1004A000723890937338FF91EF91BF91AF919F9104
:1004B0008F917F916F915F914F913F912F910F900D
:1004C0000FBE0F901F901895FC0160838DE984BFCB
:1004D00083E0809300100895FC0180810895E0E09E
:1004E000F6E081E0818386E08283089581E1809354
:1004F0000A068091050680FFFCCFE0E0F6E081E08F
:10050000858380899189A289B38908958F929F926A
:10051000AF92BF92CF92DF92EF92FF92CF93DF9391
:100520008530910581F01CF40497C9F012C0863023
:100530009105E1F0099769F4E0E0F6E081E080835D
:1005400089E0848706C0E0E0F6E081E0808385E012
:100550008487C0E0D0E0C12CD12C76013EC0E0E021
:10056000F6E081E0808384E08487F3CFE0E0F6E08A
:1005700081E0808386E08487ECCF0E947602BC0114
:1005800080E090E00E94FD1220E030E040E250E484
:100590000E94B41320E030E040E859E30E94B41315
:1005A00020E030E040E05FE30E94B4134B015C01C7
:1005B00020E030E040E05FE3C701B6010E94B413E1
:1005C0009B01AC01C501B4010E941A126B017C01B0
:1005D000219683E393E00197F1F7C431D1056CF2E2
:1005E000E0E0F6E080818E7F8083C701B601DF9175
:1005F000CF91FF90EF90DF90CF90BF90AF909F9002
:100600008F90089580E09091A508907C29F49091B6
:10061000A5089C7019F403C081E001C082E0882322
:1006200091F30895EF92FF920F931F93CF93DF936F
:100630008C017B018FEF9FE00197F1F700C0000074
:10064000E0EAF8E0168283E083831782108688E070
:1006500084838581806C858381E0858381E58783C0
:100660008091A50884FDFCCF83E08093A40801302D
:100670001105A9F49091A5088091A8081F929F9355
:100680001F928F9384E39DEB9F938F930E94BF1DD6
:100690000F900F900F900F900F900F9004C09AED55
:1006A0009A95F1F700C0E0EAF8E088E0848385815C
:1006B000806C85830130110529F089E991E001976B
:1006C000F1F700C081E58093A7080E940203813002
:1006D00009F0A8C08091A808C82FD0E0013011050A
:1006E00099F49091A5081F929F931F928F9382E592
:1006F0009DEB9F938F930E94BF1D0F900F900F90C3
:100700000F900F900F9005C089E991E00197F1F7E4
:1007100000C0EA94EF2809F062C0E0EAF8E0148231
:100720008085E82EF12C0130110599F49091A508EF
:100730001F929F931F928F9388E69DEB9F938F93B9
:100740000E94BF1D0F900F900F900F900F900F9071
:1007500006C08CEC94E00197F1F700C00000E0EADD
:10076000F8E0148280850130110599F49091A50874
:100770001F929F931F928F938DE79DEB9F938F9373
:100780000E94BF1D0F900F900F900F900F900F9031
:1007900005C089E991E00197F1F700C0E0EAF8E0CF
:1007A00083E0848380850130110599F49091A50838
:1007B0001F929F931F928F9383E99DEB9F938F933B
:1007C0000E94BF1D0F900F900F900F900F900F90F1
:1007D0002DC089E991E00197F1F700C027C0E0EA58
:1007E000F8E083E084838085E82EF12C0130110548
:1007F00099F49091A5081F929F931F928F9388E67A
:100800009DEB9F938F930E94BF1D0F900F900F90B1
:100810000F900F900F900AC089E991E00197F1F7CE
:1008200000C004C0E12CF12CC0E0D0E0E0EAF8E028
:1008300083818E7F8383DC2FCC27CE29DF29013073
:10084000110561F4DF93CF9388EA9DEB9F938F931B
:100850000E94BF1D0F900F900F900F90CE01DF915F
:10086000CF911F910F91FF90EF9008954F925F925B
:100870006F927F928F929F92AF92BF92CF92DF92B0
:10088000EF92FF920F931F93CF93DF93CDB7DEB715
:100890002897CDBFDEBF4B015C0100E010E01AC01D
:1008A000C80184519B4E0E946C02E1E0F0E0EC0F25
:1008B000FD1FE00FF11F8083C80180519B4E0E94F5
:1008C0006C02E5E0F0E0EC0FFD1FE00FF11F80830C
:1008D0000F5F1F4F043011051CF3CD80DE80EF80C9
:1008E000F88449805A806B807C80A3019201C70103
:1008F000B6010E948B12A50194010E94AF138823B8
:100900008CF4A5019401C301B2010E94B413A701A4
:1009100096010E94191223E333E343E251E40E945B
:10092000B41303C060E070E0CB012896CDBFDEBFFA
:10093000DF91CF911F910F91FF90EF90DF90CF90BB
:10094000BF90AF909F908F907F906F905F904F90EF
:1009500008954F925F926F927F928F929F92AF9283
:10096000BF92CF92DF92EF92FF920F931F93CF939C
:10097000DF93CDB7DEB72897CDBFDEBF4B015C015B
:1009800000E010E01AC0C80188509B4E0E946C0223
:10099000E1E0F0E0EC0FFD1FE00FF11F8083C801E4
:1009A00084509B4E0E946C02E5E0F0E0EC0FFD1FCE
:1009B000E00FF11F80830F5F1F4F043011051CF300
:1009C000CD80DE80EF80F88449805A806B807C8007
:1009D000A3019201C701B6010E948B12A5019401E7
:1009E0000E94AF1388238CF4A5019401C301B201C6
:1009F0000E94B413A70196010E94191223E333E366
:100A000043E251E40E94B41303C060E070E0CB0104
:100A10002896CDBFDEBFDF91CF911F910F91FF9040
:100A2000EF90DF90CF90BF90AF909F908F907F908E
:100A30006F905F904F9008950F931F93CF93DF9324
:100A40008C01EB0161307105D1F4083E83E0180799
:100A5000D4F0B801685E7340072E000C880B990B28
:100A60000E94FF1223E333E343E251E40E94B413F4
:100A700020E030E04AEF54E40E948B1207C060E0AF
:100A800070E0CB0103C060E070E0CB012297B9F4C5
:100A9000083E83E0180784F0B801685E7340072EB3
:100AA000000C880B990B0E94FF122CEE31E545E8F3
:100AB00052E40E948B1203C060E070E0CB01DF9132
:100AC000CF911F910F910895E0E0FAE080E090E867
:100AD00086A397A381E0808382870895E0E0FAE00F
:100AE00080818E7F808308951F920F920FB60F92A0
:100AF00011248F939F9380916E3890916F38019657
:100B000080936E3890936F3880916C3890916D38E7
:100B1000019680936C3890936D3881E080930B0A36
:100B20009F918F910F900FBE0F901F9018951F925D
:100B30000F920FB60F9211248F929F92AF92BF9295
:100B4000CF92DF92EF92FF922F933F934F935F9359
:100B50006F937F938F939F93AF93BF93CF93DF93C5
:100B6000EF93FF9360916C3870916D3880E090E066
:100B70000E94FD126B017C0160930F397093103954
:100B80008093113990931239C0E0DAE068A179A11D
:100B900080E090E00E94FD12609313397093143945
:100BA0008093153990931639809066389090673805
:100BB000A0906838B09069382FEF821A920AA20A82
:100BC000B20A8092663890926738A0926838B092E4
:100BD000693818A219A210926C3810926D38A89535
:100BE000A895209170383091713821303105E1F4A9
:100BF00020E030E040E058E30E94B4139B01AC01D8
:100C0000C701B6010E941A129F938F937F936F932F
:100C10008CEB9DEB9F938F930E94BF1D0F900F90C5
:100C20000F900F900F900F90E9E4F4E080818860BE
:100C3000808380916A3890916B38019680936A38EE
:100C400090936B38FF91EF91DF91CF91BF91AF916E
:100C50009F918F917F916F915F914F913F912F91D4
:100C6000FF90EF90DF90CF90BF90AF909F908F90CC
:100C70000F900FBE0F901F9018954F925F926F923A
:100C80007F928F929F92AF92BF92CF92DF92EF921C
:100C9000FF920F931F93CF93DF93CDB7DEB72A97C1
:100CA000CDBFDEBF8C0168EC7DEB0E94041D892B5B
:100CB00071F08FEF9FE10197F1F700C0000088ED20
:100CC00084BFE1E4F0E081E0808380E180836CEC2C
:100CD0007DEBC8010E94041D892BF9F084EE94E19C
:100CE0000E946C02182F8093193985EE94E10E94BE
:100CF0006C0280931A391F928F931F921F9380ED7D
:100D00009DEB9F938F930E94BF1D0F900F900F90AC
:100D10000F900F900F900C94E1106CED7DEBC801DB
:100D20000E94041D892B79F18CEE94E10E946C02E3
:100D3000F82E0BE019E3F80180838DEE94E10E9418
:100D40006C02E82EF80181838EEE94E10E946C0221
:100D5000D82EF80182838FEE94E10E946C02F80194
:100D600083838F93DF92EF92FF9280EE9DEB9F93B0
:100D70008F930E94BF1D0F900F900F900F900F90B8
:100D80000F900C94E11069EE7DEBC8010E94041DE8
:100D9000892BE1F43AC0C80180519B4E0E946C023D
:100DA000E5E0F0E0EC0FFD1FE00FF11F8083C801CC
:100DB0008C509B4E0E946C02E1E0F0E0EC0FFD1FB6
:100DC000E00FF11F80830F5F1F4F02C000E010E0B3
:100DD0000430110504F349815A816B817C818D8136
:100DE0009E812F8138857F936F935F934F933F93BD
:100DF0002F939F938F938DEE9DEB9F938F930E94E4
:100E0000BF1DCDBFDEBF0C94E1106BEF7DEBC801C1
:100E10000E94041D892BE1F43AC0C80188509B4E02
:100E20000E946C02E5E0F0E0EC0FFD1FE00FF11F07
:100E30008083C80184509B4E0E946C02E1E0F0E088
:100E4000EC0FFD1FE00FF11F80830F5F1F4F02C0EB
:100E500000E010E00430110504F349815A816B81F0
:100E60007C818D819E812F8138857F936F935F93E5
:100E70004F933F932F939F938F938FEF9DEB9F9370
:100E80008F930E94BF1DCDBFDEBF0C94E110F8010F
:100E9000F080F7E5FF1215C0F8018181833589F4F0
:100EA000628184EE94E10E946402F801638185EE20
:100EB00094E10E9464028DEC9DEB0E94D51D0C9480
:100EC000E1106DE07EEBC8010E94041D892B89F1C1
:100ED00060E17EEBC8010E94DC1C009709F524C08C
:100EE000F1E0EF16F10491F420E738E33F932F93FC
:100EF00022E13EEB3F932F939F938F930E94051E19
:100F00000F900F900F900F900F900F9060E17EEB7D
:100F100080E090E00E94DC1C2FEFE21AF20A02C08F
:100F2000E12CF12C0097E1F6C8010E94D51D0C942C
:100F3000E11065E17EEBC8010E94041D892B09F4D4
:100F40006AC060E17EEBC8010E94DC1C0097C1F51D
:100F50003BC00130110521F002301105A9F027C076
:100F60009E012B5F3F4F3F932F9329E13EEB3F9331
:100F70002F939F938F930E94051E0F900F900F90B9
:100F80000F900F900F9013C09E012F5F3F4F3F9324
:100F90002F9329E13EEB3F932F939F938F930E94D2
:100FA000051E0F900F900F900F900F900F9060E123
:100FB0007EEB80E090E00E94DC1C0F5F1F4F02C0C0
:100FC00000E010E0009729F6A89500E010E01AC0B4
:100FD000E5E0F0E0EC0FFD1FE00FF11F6081C801BC
:100FE00088509B4E0E946402E1E0F0E0EC0FFD1F90
:100FF000E00FF11F6081C80184509B4E0E94640283
:101000000F5F1F4F043011051CF385E19EEB0E941A
:10101000D51D0C94E1106CE17EEBC8010E94041D0B
:10102000892B09F46AC060E17EEBC8010E94DC1CD8
:101030000097C1F53BC00130110521F002301105C8
:10104000A9F027C09E012B5F3F4F3F932F9329E1CB
:101050003EEB3F932F939F938F930E94051E0F901B
:101060000F900F900F900F900F9013C09E012F5F65
:101070003F4F3F932F9329E13EEB3F932F939F9355
:101080008F930E94051E0F900F900F900F900F905E
:101090000F9060E17EEB80E090E00E94DC1C0F5F2F
:1010A0001F4F02C000E010E0009729F6A89500E06D
:1010B00010E01AC0E5E0F0E0EC0FFD1FE00FF11FBB
:1010C0006081C80180519B4E0E946402E1E0F0E023
:1010D000EC0FFD1FE00FF11F6081C8018C509B4E8B
:1010E0000E9464020F5F1F4F043011051CF38CE156
:1010F0009EEB0E94D51D0C94E11060E27EEBC801CE
:101100000E94E11C892B09F042C284EE94E10E9406
:101110006C02182F8093193985EE94E10E946C02BD
:1011200080931A39103511F08035A1F4E0E2F4E033
:10113000848180628483A89580E090E0DC0104C013
:10114000A8950196A11DB11D8115E0E49E07A1059A
:10115000B105B0F3103509F479C030F4113409F455
:10116000F1C0193439F0F4C01936B1F1103709F46F
:10117000ABC0EEC000E014E0F80184818068848395
:101180008481886084838FEF9FE10197F1F700C02D
:101190000000A89560E070E08091703890917138FF
:1011A0000E94120362E070E00E941C0560935238B6
:1011B000709353388093543890935538F801848154
:1011C0008F7784838481877F84838FEF9FE101976A
:1011D000F1F700C00000BCC000E014E0F801848119
:1011E000806884838481886084838FEF9FE1019786
:1011F000F1F700C00000A8951092523810925338B1
:10120000109254381092553860E070E08091703838
:10121000909171380E94120361E070E00E941C05F9
:101220006093523870935338809354389093553864
:10123000F80184818F7784838481877F84838FEF13
:101240009FE10197F1F700C0000082C0A89589E0F6
:1012500090E00E948602262F372F462F572F682FA7
:10126000792F40935A3850935B3860935C38709371
:101270005D3840917038509171384130510581F49A
:101280009F938F933F932F9384E29EEB9F938F9333
:101290000E94BF1D0F900F900F900F900F900F9016
:1012A00060915A3870915B3880915C3890915D38CC
:1012B0000E94A90460935238709353388093543835
:1012C00090935538A89544C0A89589E090E00E9475
:1012D0008602262F372F462F572F682F792F4093BE
:1012E0005A3850935B3860935C3870935D38409106
:1012F0007038509171384130510581F49F938F932C
:101300003F932F9384E29EEB9F938F930E94BF1D88
:101310000F900F900F900F900F900F9060915A3890
:1013200070915B3880915C3890915D380E94A9047F
:101330006093523870935338809354389093553853
:10134000A89506C081E090E080934438909345389A
:1013500080911A39803509F480C030F4813409F461
:10136000F8C0893439F0FBC08936B9F1803709F407
:10137000B2C0F5C06894EE24E6F8FF24F2F8F70155
:1013800084818460848300E014E0F80184818860B3
:1013900084838FEF9FE10197F1F700C00000A895CB
:1013A00060E070E080917038909171380E94120373
:1013B00062E070E00E941C0560934E3870934F38D5
:1013C0008093503890935138F70184818B7F8483C8
:1013D000F8018481877F8483C2C06894EE24E6F894
:1013E000FF24F2F8F70184818460848300E014E034
:1013F000F8018481886084838FEF9FE10197F1F782
:1014000000C00000A89510924E3810924F381092EC
:1014100050381092513860E070E0809170389091AF
:1014200071380E94120361E070E00E941C05609315
:101430004E3870934F388093503890935138F7015D
:1014400084818B7F8483F8018481877F848386E60F
:1014500096E00197F1F7000082C0A89585E090E042
:101460000E948602262F372F462F572F682F792F5D
:101470004093563850935738609358387093593882
:1014800040917038509171384130510581F49F93EB
:101490008F933F932F9389E39EEB9F938F930E94AB
:1014A000BF1D0F900F900F900F900F900F906091B5
:1014B00056387091573880915838909159380E9419
:1014C000360460934E3870934F3880935038909321
:1014D0005138A89544C0A89585E090E00E94860206
:1014E000262F372F462F572F682F792F40935638A6
:1014F00050935738609358387093593840917038EA
:10150000509171384130510581F49F938F933F93EF
:101510002F9389E39EEB9F938F930E94BF1D0F90A3
:101520000F900F900F900F900F9060915638709120
:10153000573880915838909159380E9436046093FA
:101540004E3870934F388093503890935138A89507
:1015500006C081E090E08093423890934338E0E207
:10156000F4E084818F7D848386E090E00E9486028F
:1015700020E030E040EA50E40E94B41360934A381F
:1015800070934B3880934C3890934D381AC66EE464
:101590007EEBC8010E94E11C892B09F060C38CEE30
:1015A00094E10E946C02E82E8DEE94E10E946C02A0
:1015B000F82E8EEE94E10E946C02082F8FEE94E1DB
:1015C0000E946C02182F40900F3950901039609093
:1015D0001139709012398090133990901439A0907D
:1015E0001539B0901639A5019401C301B2010E94CA
:1015F0001A1220E030E0A9010E948612811109C070
:1016000010926238109263381092643810926538E4
:1016100020C0E986FA8620E030E040E058E3C501CA
:10162000B4010E94B4139B01AC01C301B2010E943A
:101630001A129B01AC016E2D7F2D802F912F0E94DD
:101640008B12609362387093633880936438909300
:1016500065386091663870916738809168389091EC
:1016600069380E94FD122E2D3F2D402F512F0E94D0
:10167000B413162F072FF82EE92E862F902FAF2D9B
:10168000BE2D80935E3890935F38A0936038B093FE
:10169000613810920F39109210391092113910924E
:1016A0001239109213391092143910921539109280
:1016B00016398091443890914538892B09F0AEC095
:1016C0008091423890914338019709F0A7C08BEE82
:1016D00094E10E946C02811151C0809149388F932E
:1016E000809148388F93809147388F938091463806
:1016F0008F9380914D388F9380914C388F93809148
:101700004B388F9380914A388F93EF92FF920F93CB
:101710001F93809155388F93809154388F93809187
:1017200053388F93809152388F9382E59EEB9F932D
:101730008F930E94BF1D10926238109263381092EE
:1017400064381092653810925E3810925F381092AB
:101750006038109261381092663810926738109293
:10176000683810926938109252381092533810929B
:10177000543810925538CDBFDEBF48C080914938EB
:101780008F93809148388F93809147388F938091C1
:1017900046388F9380914D388F9380914C388F933A
:1017A00080914B388F9380914A388F938091653820
:1017B0008F93809164388F93809163388F93809159
:1017C00062388F93809155388F93809154388F93DE
:1017D000809153388F93809152388F938EE69EEB91
:1017E0009F938F930E94BF1D1092623810926338AE
:1017F0001092643810926538109252381092533813
:101800001092543810925538CDBFDEBF10925A381E
:1018100010925B3810925C3810925D388091443899
:1018200090914538892B09F084C18091423890917C
:101830004338892B09F07DC18BEE94E10E946C0244
:101840008111C0C088EE94E10E946C02811145C0F4
:10185000809149388F93809148388F938091473891
:101860008F93809146388F9380914D388F938091DC
:101870004C388F9380914B388F9380914A388F9357
:10188000809151388F93809150388F9380914F3849
:101890008F9380914E388F93809161388F93809190
:1018A00060388F9380915F388F9380915E388F93EB
:1018B000809155388F93809154388F93809153380D
:1018C0008F93809152388F938AE89EEB9F938F93EA
:1018D0000E94BF1DCDBFDEBF44C0809149388F93A9
:1018E000809148388F93809147388F938091463804
:1018F0008F9380914D388F9380914C388F93809146
:101900004B388F9380914A388F93809155388F93BD
:10191000809154388F93809153388F9380915238AF
:101920008F93809161388F93809160388F938091ED
:101930005F388F9380915E388F93809151388F9369
:10194000809150388F9380914F388F9380914E388B
:101950008F938AE89EEB9F938F930E94BF1DCDBF0C
:10196000DEBF10925A3810925B3810925C38109299
:101970005D3810925638109257381092583810929D
:10198000593810925E3810925F3810926038109279
:101990006138109266381092673810926838109249
:1019A000693810925238109253381092543810926D
:1019B000553810924E3810924F381092503810927D
:1019C0005138B7C088EE94E10E946C02811145C085
:1019D000809149388F93809148388F938091473810
:1019E0008F93809146388F9380914D388F9380915B
:1019F0004C388F9380914B388F9380914A388F93D6
:101A0000809151388F93809150388F9380914F38C7
:101A10008F9380914E388F93809165388F9380910A
:101A200064388F93809163388F93809162388F935D
:101A3000809155388F93809154388F93809153388B
:101A40008F93809152388F938CEA9EEB9F938F9364
:101A50000E94BF1DCDBFDEBF44C0809149388F9327
:101A6000809148388F93809147388F938091463882
:101A70008F9380914D388F9380914C388F938091C4
:101A80004B388F9380914A388F93809155388F933C
:101A9000809154388F93809153388F93809152382E
:101AA0008F93809165388F93809164388F93809164
:101AB00063388F93809162388F93809151388F93E0
:101AC000809150388F9380914F388F9380914E380A
:101AD0008F938CEA9EEB9F938F930E94BF1DCDBF87
:101AE000DEBF10925A3810925B3810925C38109218
:101AF0005D3810925638109257381092583810921C
:101B000059381092623810926338109264381092EB
:101B100065381092523810925338109254381092FF
:101B2000553810924E3810924F381092503810920B
:101B300051388091443890914538892B09F47EC002
:101B40008091423890914338892B09F477C08BEE0D
:101B500094E10E946C0281113DC0809149388F93BD
:101B6000809148388F93809147388F938091463881
:101B70008F9380914D388F9380914C388F938091C3
:101B80004B388F9380914A388F93809161388F932F
:101B9000809160388F9380915F388F9380915E3809
:101BA0008F9388E59EEB9F938F930E94BF1D1092A9
:101BB0005E3810925F38109260381092613810923F
:101BC0006638109267381092683810926938CDBF25
:101BD000DEBF34C0809149388F93809148388F930D
:101BE000809147388F93809146388F9380914D38FC
:101BF0008F9380914C388F9380914B388F93809145
:101C00004A388F93809165388F93809164388F9391
:101C1000809163388F93809162388F9384E79EEB35
:101C20009F938F930E94BF1D109262381092633869
:101C30001092643810926538CDBFDEBF10924A38DA
:101C400010924B3810924C3810924D381092463802
:101C5000109247381092483810924938B2C26EEC50
:101C60007EEBC8010E94E11C892B09F09EC08AEE20
:101C700094E10E946C02811110C0809170389091A3
:101C80007138019709F09DC282ED9EEB9F938F936F
:101C90000E94BF1D0F900F9094C28CEE94E10E94A1
:101CA0006C02A82E8DEE94E10E946C02B82E8EEE8E
:101CB00094E10E946C02C82E8FEE94E10E946C02A7
:101CC000D82E89EE94E10E946C0294E0899F700105
:101CD000112400E010E00FC0C8018E0D9F1D9C5E16
:101CE0000E946C02E1E0F0E0EC0FFD1FE00FF11F3D
:101CF00080830F5F1F4F0430110574F360916A38C1
:101D000070916B3880E090E00E94FD122A2D3B2DEF
:101D10004C2D5D2D0E94B41320E030E04AE754E4DE
:101D20000E948B1229813A814B815C810E941A1298
:101D30009F938F937F936F9380EE9EEB9F938F93F0
:101D40000E94BF1D10926A3810926B380F900F904E
:101D50000F900F900F900F9000E010E009C0C801A5
:101D60008E0D9F1D60E09C5E0E9464020F5F1F4FFE
:101D700004301105A4F389EE94E10E946C02682FEF
:101D800070E06F5F7F4F89E091ED0E94640289EE01
:101D900094E10E946C0290E0C9970CF412C260E0DA
:101DA00089EE94E10E9464020CC26DED7DEBC801E6
:101DB0000E94041D892B09F484C019821A8260E1F3
:101DC0007EEBC8010E94DC1C009701F523C00130A6
:101DD000110599F49E012F5F3F4F3F932F9322E10E
:101DE0003EEB3F932F939F938F930E94051E0F907E
:101DF0000F900F900F900F900F9060E17EEB80E0BE
:101E000090E00E94DC1C0F5F1F4F02C000E010E05A
:101E10000097E9F60BE019E369817A81072E000C3F
:101E2000880B990B0E94FF12262F462F572F682FE1
:101E3000792FF8014083518362837383622F8CEE84
:101E400094E10E946402F80161818DEE94E10E94A8
:101E50006402F80162818EEE94E10E946402F8014E
:101E600063818FEE94E10E9464028CEE94E10E9403
:101E70006C02F82EF80180838DEE94E10E946C02D2
:101E8000E82EF80181838EEE94E10E946C02D82E38
:101E9000F80182838FEE94E10E946C02F801838343
:101EA0008F93DF92EF92FF9288EE9EEB9F938F933A
:101EB0000E94BF1D0F900F900F900F900F900F90EA
:101EC00080C161EF7EEBC8010E94E11C892B29F5DE
:101ED00000E214E0F80184818460848384E090E06F
:101EE0000E94860220E030E040EA50E40E94B413F1
:101EF00060934638709347388093483890934938B8
:101F000083E393E00197F1F7F80184818B7F848369
:101F100085EF9EEB0E94D51D54C169EF7EEBC80191
:101F20000E94E11C892B29F500E414E0F80184816A
:101F30008260848384E090E00E94860220E030E0AA
:101F400040EA50E40E94B4136093463870934738D7
:101F5000809348389093493883E393E00197F1F7F1
:101F6000F80184818D7F84838DEF9EEB0E94D51DC7
:101F700028C1F3E5FF121FC0F80181818134D9F433
:101F800082818334C1F48381803349F460E08AEE36
:101F900094E10E946402C8010E94D51D12C18133E0
:101FA00009F00FC161E08AEE94E10E946402C80169
:101FB0000E94D51D06C1F3E5FF121FC0F801818103
:101FC0008335D9F482818735C1F48381803349F424
:101FD00060E088EE94E10E946402C8010E94D51D71
:101FE000F0C0813309F0EDC061E088EE94E10E9419
:101FF0006402C8010E94D51DE4C0F3E5FF125BC076
:10200000F8018181863409F056C08281843509F057
:1020100052C08381803339F5109262381092633850
:1020200010926438109265381092663810926738B2
:10203000109268381092693810925E3810925F38AA
:10204000109260381092613810926A3810926B3892
:102050000E946E0560E08BEE94E10E946402C8016C
:102060000E94D51DAEC0813309F0ABC0109262381A
:102070001092633810926438109265381092663866
:1020800010926738109268381092693810925E3852
:1020900010925F38109260381092613810926A384E
:1020A00010926B3861E08BEE94E10E946402C801EB
:1020B0000E94D51D86C0F7E4FF1218C0F801818187
:1020C0008134A1F48281833489F48AEE94E10E9400
:1020D0006C021F928F9381E09FEB9F938F930E94DE
:1020E000BF1D0F900F900F900F906BC0F7E4FF1281
:1020F00018C0F80181818335A1F48281873589F484
:1021000088EE94E10E946C021F928F9388E09FEB0F
:102110009F938F930E94BF1D0F900F900F900F9071
:1021200050C0F7E4FF1218C0F80181818335A1F493
:102130008281813389F484EE94E10E946C021F92C3
:102140008F938FE09FEB9F938F930E94BF1D0F9003
:102150000F900F900F9035C0F7E4FF1218C0F801F0
:1021600081818335A1F48281823389F485EE94E103
:102170000E946C021F928F9386E19FEB9F938F9337
:102180000E94BF1D0F900F900F900F901AC0F7E4A0
:10219000FF1217C0F8018181863499F48281843559
:1021A00081F48BEE94E10E946C021F928F938DE17B
:1021B0009FEB9F938F930E94BF1D0F900F900F90E6
:1021C0000F902A96CDBFDEBFDF91CF911F910F9167
:1021D000FF90EF90DF90CF90BF90AF909F908F9047
:1021E0007F906F905F904F900895CF93DF9300D0D2
:1021F00000D0CDB7DEB70E94A9010E9484010E94E1
:1022000003010E946F02E0E0F4E080818068808337
:102210008789877F878B84818F778483E0E4F4E0EC
:102220008081846080838289877F828B84818B7F99
:10223000848388ED84BF8BE08093000182E3EEE02D
:10224000F8E3DF011D928A95E9F70E9464050E9478
:10225000C501789483E393E00197F1F784E29FEB63
:102260000E94D51D8091723890917338019709F0C2
:1022700057C089ED98E30E943D068091A7388823D6
:1022800041F190917538992321F112E3E9EDF8E3DA
:10229000DF01212F1D922A95E9F742E350E067EA1A
:1022A00078E3CF010E94EA1CE7EAF8E3DF01212F7F
:1022B0001D922A95E9F742E350E065E778E3CF0104
:1022C0000E94EA1CE5E7F8E3DF011D921A95E9F7A1
:1022D00027C08823D1F080917538811116C012E390
:1022E000E9EDF8E3DF01212F1D922A95E9F742E39A
:1022F00050E067EA78E3CF010E94EA1CE7EAF8E3DE
:10230000DF011D921A95E9F70BC082E3E9EDF8E3CE
:10231000DF011D928A95E9F7109272381092733896
:102320008AEE94E10E946C02813009F07AC08091BB
:102330006E3890916F38883097400CF472C0A89531
:1023400089EE94E10E946C02E82EF12CEE0CFF1C49
:10235000EE0CFF1C8CEE94E10E946C02A82E8DEE18
:1023600094E10E946C02B82E8EEE94E10E946C0201
:10237000C82E8FEE94E10E946C02D82E00E010E08F
:102380000FC0C8018E0D9F1D9C5E0E946C02E1E093
:10239000F0E0EC0FFD1FE00FF11F80830F5F1F4F78
:1023A0000430110574F360916A3870916B3880E0E5
:1023B00090E00E94FD122A2D3B2D4C2D5D2D0E9498
:1023C000B41320E030E04AE754E40E948B129B01F2
:1023D000AC0169817A818B819C810E941A12698388
:1023E0007A838B839C8300E010E00FC0C8018E0DC0
:1023F0009F1DE1E0F0E0EC0FFD1FE00FF11F608199
:102400009C5E0E9464020F5F1F4F0430110574F33D
:1024100010926E3810926F3810926A3810926B38A2
:10242000A895109200061092800A10924001A8957B
:1024300019CF5058BB27AA270E9431120C9475134C
:102440000E94671338F00E946E1320F039F49F3F0A
:1024500019F426F40C9464130EF4E095E7FB0C9445
:102460005E13E92F0E94861358F3BA1762077307A9
:102470008407950720F079F4A6F50C94A8130EF4C0
:10248000E0950B2EBA2FA02D0B01B90190010C0184
:10249000CA01A0011124FF27591B99F0593F50F49C
:1024A000503E68F11A16F040A22F232F342F4427F4
:1024B000585FF3CF469537952795A795F0405395EC
:1024C000C9F77EF41F16BA0B620B730B840BBAF0BC
:1024D0009150A1F0FF0FBB1F661F771F881FC2F727
:1024E0000EC0BA0F621F731F841F48F4879577953B
:1024F0006795B795F7959E3F08F0B0CF9395880FF5
:1025000008F09927EE0F9795879508950E943A1342
:1025100008F481E008950E949F120C9475130E94A4
:102520006E1358F00E94671340F029F45F3F29F0C2
:102530000C945E1351110C94A9130C9464130E9413
:10254000861368F39923B1F3552391F3951B550B2B
:10255000BB27AA2762177307840738F09F5F5F4F76
:10256000220F331F441FAA1FA9F335D00E2E3AF0B5
:10257000E0E832D091505040E695001CCAF72BD0CD
:10258000FE2F29D0660F771F881FBB1F261737071E
:102590004807AB07B0E809F0BB0B802DBF01FF2750
:1025A00093585F4F3AF09E3F510578F00C945E13BC
:1025B0000C94A9135F3FE4F3983ED4F38695779586
:1025C0006795B795F7959F5FC9F7880F911D969509
:1025D000879597F90895E1E0660F771F881FBB1F65
:1025E000621773078407BA0720F0621B730B840B12
:1025F000BA0BEE1F88F7E0950895E89409C097FBA1
:102600003EF490958095709561957F4F8F4F9F4FC9
:102610009923A9F0F92F96E9BB279395F69587950D
:1026200077956795B795F111F8CFFAF4BB0F11F4D0
:1026300060FF1BC06F5F7F4F8F4F9F4F16C0882377
:1026400011F096E911C0772321F09EE8872F762FAD
:1026500005C0662371F096E8862F70E060E02AF0EE
:102660009A95660F771F881FDAF7880F96958795DA
:1026700097F90895990F0008550FAA0BE0E8FEEFAF
:1026800016161706E807F907C0F012161306E40736
:10269000F50798F0621B730B840B950B39F40A262F
:1026A00061F0232B242B252B21F408950A2609F40D
:1026B000A140A6958FEF811D811D089597F99F6711
:1026C00080E870E060E008959FEF80EC08950024BA
:1026D0000A941616170618060906089500240A9487
:1026E00012161306140605060895092E0394000C0D
:1026F00011F4882352F0BB0F40F4BF2B11F460FF9C
:1027000004C06F5F7F4F8F4F9F4F089557FD9058C4
:10271000440F551F59F05F3F71F04795880F97FBA5
:10272000991F61F09F3F79F087950895121613065F
:102730001406551FF2CF4695F1DF08C0161617068E
:102740001806991FF1CF86957105610508940895C3
:10275000E894BB2766277727CB0197F908950E9455
:102760003A1308F48FEF08950E94C7130C94751361
:102770000E94671338F00E946E1320F0952311F029
:102780000C945E130C94641311240C94A9130E94EE
:10279000861370F3959FC1F3950F50E0551F629F0C
:1027A000F001729FBB27F00DB11D639FAA27F00DAA
:1027B000B11DAA1F649F6627B00DA11D661F829FD1
:1027C0002227B00DA11D621F739FB00DA11D621FB6
:1027D000839FA00D611D221F749F3327A00D611DD3
:1027E000231F849F600D211D822F762F6A2F1124B5
:1027F0009F5750409AF0F1F088234AF0EE0FFF1FE8
:10280000BB1F661F771F881F91505040A9F79E3F3E
:10281000510580F00C945E130C94A9135F3FE4F310
:10282000983ED4F3869577956795B795F795E79594
:102830009F5FC1F7FE2B880F911D9695879597F99D
:10284000089520FD09C0FC0123FD05C022FF02C040
:102850007383628351834083089544FD17C046FD0E
:1028600017C0AB01BC01DA01FB01AA0FBB1FEE1FB1
:10287000FF1F1094D1F74A0F5B1F6E1F7F1FCB0104
:10288000BA01660F771F881F991F09C033E001C086
:1028900034E0660F771F881F991F3150D1F7620F00
:1028A000711D811D911D08950F931F93CF93DF9389
:1028B0008C01C8010E94451DEC0197FD08C00E94D3
:1028C000B51C892BB1F7B801CE010E941E1ECE01A6
:1028D000DF91CF911F910F910895A0E0B0E0E3E761
:1028E000F4E10C94B21B7C018B016A01D22F0E948F
:1028F000451D9C0133272B32310521F02D32310546
:1029000059F4D0680150110911F480E06BC0C7017F
:102910000E94451D97FDF9CFCD2FCD7F2D2F207320
:1029200019F5803309F5580181E0A81AB10809F4B6
:1029300045C0C7010E94451D97FD40C09C012F7DE9
:1029400033272835310551F4C26402501109B1F121
:10295000C7010E94451D97FF07C030C0D6FF02C0C7
:10296000C26001C0C2618501812C912C540120ED0F
:10297000280F283080F0C4FF04C0B7010E941E1E3B
:102980001AC02A3040F0C6FFF8CF2F7D3FEE320F3D
:10299000363098F727504C2FC501B4010E942D14F2
:1029A0004B015C01C2600150110959F0C7010E943E
:1029B000451D97FFDCCFC1FD04C0A7CF812C912C12
:1029C0005401C7FF08C0B094A09490948094811CD7
:1029D000911CA11CB11C2C2FB501A401C6010E94A1
:1029E000211481E0CDB7DEB7ECE00C94CB1BA0E264
:1029F000B0E0EDEFF4E10C94AE1B5C014B017A0109
:102A00008E010F5F1F4F680180E2F80111928A95D5
:102A1000E9F7F501538040E050E0612C90E0712C23
:102A2000A1E0B0E0F90153FC859153FE81918F0143
:102A3000482E9F01811103C080E090E096C08E3542
:102A400019F44115510551F1672D70E064177507B0
:102A50003CF48D3561F18D3219F4992311F103C0E5
:102A6000992309F46DC0842D869586958695F60187
:102A7000E80FF11D842D87708D0102C0000F111F1A
:102A80008A95E2F7C8019081892B8083641459F0FC
:102A9000461410F44394E7CF4A94E5CF7724739417
:102AA00003C091E001C090E04F5F5F4FBBCF99231F
:102AB00019F08E8180628E83711003C07724739425
:102AC00019C0F6019E012F5D3F4F80818095819353
:102AD0002E173F07D1F7F2CFE114F10431F0F701DF
:102AE0008083B7016F5F7F4F7B0171E0871A910888
:102AF000712CF9F0C5010E94451D97FD18C0FC011D
:102B0000FF2723E0F595E7952A95E1F7EC0DFD1DEC
:102B1000208130E0AC014770552702C035952795DC
:102B20004A95E2F720FDD8CFB5010E941E1E711014
:102B300083CFE114F10411F0F7011082C80115C030
:102B4000682F669566956695F601E60FF11D682F6C
:102B500067708D0102C0000F111F6A95E2F7B8017E
:102B60007081672B6083682E9FCFA096E0E10C9464
:102B7000C71B2F923F924F925F926F927F929F92CC
:102B8000AF92BF92CF92DF92EF92FF920F931F937B
:102B9000CF93DF936C018B011A010E94451DEC015C
:102BA00099278B32910529F08D9781F430E8932E87
:102BB00001C0912C0150110911F480E00CC1C60133
:102BC0000E94451DEC0197FF02C0F7CF912CCE016A
:102BD0000E94BE1C8936910531F08E36910599F51B
:102BE000CCE8D1E002C0CFE8D1E02196FE013197D8
:102BF000B490BB20C9F00150110991F0C6010E94A8
:102C0000451D7C0197FD0CC00E94BE1C9927EB2D31
:102C1000F0E08E179F0749F3B601C7010E941E1E00
:102C2000C259D14051F603C0CF58D14029F080E0BD
:102C300090E0A0E8BFE704C080E090E0A0ECBFE730
:102C4000BC01CD01B8C0412C512C3201E12CF12C3A
:102C50002C2F20532A3010F5E92DE260BE2E892D4D
:102C6000887092FE06C0811120C0FFEFEF1AFF0AA4
:102C70001CC0882319F081E0E81AF10840E2C30182
:102C8000B2010E942D142B013C0168397949894910
:102C9000994158F0F92DF660BF2E07C02E3F89F4F8
:102CA00093FC0FC0292D2860B22E0150110941F06C
:102CB000C6010E94451DEC019B2C97FFC9CF01C0A6
:102CC0009B2C91FE7ACFCE018F7D9927853491057B
:102CD00009F042C0580181E0A81AB10809F46DCF8B
:102CE000C6010E94451DEC0197FD67CF99278B32E5
:102CF000910529F08D9769F4E92DE0619E2E580128
:102D0000F2E0AF1AB10809F458CFC6010E94451D80
:102D1000EC01CE01C0970A9708F04FCF8501A12C96
:102D2000B12CB501BB0C880B990B2C2F205340E222
:102D30000E942D145B010150110939F0C6010E9457
:102D4000451DEC01C0970A9760F394FE03C0B1944F
:102D5000A194B108EA0CFB1C012B31F0D7FD04C093
:102D6000B601CE010E941E1EC301B2010E94FD12D7
:102D7000F7FE06C0F194E194F108CBEAD1E002C07D
:102D8000C3ECD1E06E0128E1C21AD10800E210E0E4
:102D9000E016F10650F0FE012591359145915491D0
:102DA0000E94B413E01AF10AF3CF24971695079501
:102DB000CC16DD0669F797FE05C0DC01CB01B058E3
:102DC000BC01CD012114310429F0F101608371832C
:102DD0008283938381E0DF91CF911F910F91FF90C8
:102DE000EF90DF90CF90BF90AF909F907F906F90CB
:102DF0005F904F903F902F900895A0E0B0E0E3E007
:102E0000F7E10C94B01B5C01EB014A01FC01168256
:102E10001782612CF5010381FE0103FD859103FFFB
:102E20008191182FEF01882309F40FC190E00E94CF
:102E3000B51C892B21F0C5010E945414EBCF15322B
:102E400041F4FE0103FD159103FF1191EF011532CD
:102E500081F4C5010E94451D97FDF5C0412F50E04A
:102E60009C01332724173507A9F2B5010E941E1EC5
:102E7000ECC01A3241F403FD159103FF1191EF01EB
:102E80007724739401C0712CE12CF12C20ED210FDB
:102E90002A3088F4F72DF2607F2EB70180E090E0B1
:102EA00040E20E942D147B01FE0103FD159103FFFA
:102EB0001191EF01EBCF71FE04C0E114F10421F494
:102EC000C4C0EE24EA94FE2C183619F01C3661F0CA
:102ED00014C0FE0103FD159103FF1191EF01183697
:102EE00061F4872D8860782E972D9460792EFE01ED
:102EF00003FD159103FF1191EF01112309F4A5C002
:102F0000612F70E08AE791E00E94C61C892B09F4CA
:102F10009CC070FC07C0F401C080D180C40102963F
:102F20004C0102C0C12CD12C1E3651F4F501468152
:102F3000578160E070E0272DC6010E9421146ACFFE
:102F40001336B9F471FC03C0EE24E394F12CC501EF
:102F50000E94451D97FD77C0C114D10429F0F601E8
:102F60008083C60101966C0191E0E91AF10879F7B6
:102F700066C01B3559F49E01A601B701C5010E9428
:102F8000F714EC01892B09F05AC054C0C5010E9406
:102F9000541497FD58C01F36E1F140F41436A9F1DE
:102FA0001936D1F1183509F03EC02BC01337A9F0FE
:102FB00018F4103731F137C0153739F1183709F1E6
:102FC00032C0C114D10429F0F6010083C601019674
:102FD0006C0191E0E91AF10871F0C5010E94451DEC
:102FE0008C0197FD08C00E94B51C892B51F3B501D7
:102FF000C8010E941E1EC114D10409F1F6011082FD
:103000001EC0F72DF0647F2E07C0872D8062782EBA
:1030100003C0972D9061792E272DA601B701C50118
:103020000E946D1405C0A601B701C5010E94B91523
:10303000811105C0F5018381807329F406C070FCFD
:10304000E9CE6394E7CE662019F0862D90E002C0A9
:103050008FEF9FEFCDB7DEB7EEE00C94C91BA0E178
:10306000B0E0E5E3F8E10C94AC1B7C011B016A01C4
:10307000FC0116821782838181FF44C39E012F5F6A
:103080003F4F3901F7019381F10193FD859193FF42
:1030900081911F01882309F431C3853239F493FDEE
:1030A000859193FF81911F01853239F4B70190E03A
:1030B0000E94831D56016501E5CF10E0512C912C33
:1030C000FFE1F915D8F08B3279F038F4803279F0DD
:1030D0008332A1F4F92DF0612EC08D3261F080337E
:1030E00069F4292D21602DC0392D3260932E892D50
:1030F0008460982E2AC0E92DE86015C097FC2DC089
:1031000020ED280F2A3088F496FE06C03AE0139F7F
:10311000200D1124122F19C08AE0589E200D112471
:10312000522EE92DE0629E2E10C08E3231F496FCB4
:10313000E5C2F92DF0649F2E08C08C3621F4292DAC
:103140002068922E02C0883641F4F10193FD8591EA
:1031500093FF81911F018111B3CF9BEB980F9330A7
:1031600020F4992D9061805E07C09BE9980F933001
:1031700008F066C1992D9F7E96FF16E09F73992EE9
:10318000853619F49064992E08C0863621F4392FBB
:103190003068932E02C01111115097FE07C01C33E6
:1031A00050F444244394410E27E00BC0183038F00B
:1031B00027E017E005C027E09CE3492E02C0212F3D
:1031C000412C560184E0A80EB11CF601608171818A
:1031D00082819381042DA3010E94DD1B6C01F98182
:1031E000FC87F0FF02C0F3FF06C091FC06C092FE10
:1031F00006C000E205C00DE203C00BE201C000E022
:103200008C858C7019F001115AC29BC297FE10C0B8
:103210004C0CFC85F4FF04C08A81813309F44A9484
:10322000141474F528E0241578F588E0482E2CC095
:1032300096FC2AC0812F90E08C159D059CF03CEFF8
:10324000C3163FEFD30674F0892D8068982E0AC00C
:10325000E2E0F0E0EC0FFD1FE10FF11D8081803313
:1032600019F411501111F4CF97FE0EC04424439469
:10327000410E812F90E0C816D9062CF41C1904C009
:103280004424439401C010E097FE06C01C141D04A2
:1032900034F4C601019605C085E090E002C081E0EB
:1032A00090E001110196112331F0212F30E02F5FC2
:1032B0003F4F820F931F252D30E08217930714F4A0
:1032C000581A01C0512C892D897049F4552039F0C4
:1032D000B70180E290E00E94831D5A94F7CF00234B
:1032E00029F0B701802F90E00E94831D93FC09C054
:1032F000552039F0B70180E390E00E94831D5A9475
:10330000F7CF97FE4CC04601D7FE02C0812C912C0E
:10331000C60188199909F301E80FF91FED87FE87A7
:103320009601241931092F87388B012F10E0119550
:10333000019511093FEF8316930629F4B7018EE238
:1033400090E00E94831DC814D9044CF08F859889A1
:103350008815990524F4ED85FE85818101C080E3FF
:10336000F1E08F1A91082D853E852F5F3F4F2D8705
:103370003E87801691062CF0B70190E00E94831DD5
:10338000D9CFC814D90441F49A81963320F49533E7
:1033900019F43C8534FF81E3B70190E04EC08A8187
:1033A000813319F09C859F7E9C87B70190E00E9435
:1033B000831D111105C094FC18C085E690E017C06C
:1033C000B7018EE290E00E94831D1E5F82E001E063
:1033D000080FF301E80FF11D8081B70190E00E9412
:1033E000831D802F0113F3CFE6CF85E490E0B70172
:1033F0000E94831DD7FC06C0C114D10441F4EC85A2
:10340000E4FF05C0D194C194D1088DE201C08BE2E4
:10341000B70190E00E94831D80E32AE0C216D10428
:103420002CF08F5FFAE0CF1AD108F7CFB70190E008
:103430000E94831DB701C601C0960E94831D54C11E
:10344000833631F0833779F0833509F056C020C0D8
:10345000560132E0A30EB11CF6018081898301E0A0
:1034600010E0630112C05601F2E0AF0EB11CF6018C
:10347000C080D18096FE03C0612F70E002C06FEF64
:103480007FEFC6010E94F91C8C01F92DFF7714C053
:10349000560122E0A20EB11CF601C080D18096FE3A
:1034A00003C0612F70E002C06FEF7FEFC6010E9482
:1034B000D11C8C01F92DF0689F2EF3FD1AC0852DCB
:1034C00090E008171907A8F4B70180E290E00E9485
:1034D000831D5A94F4CFF60197FC859197FE819154
:1034E0006F01B70190E00E94831D51105A94015062
:1034F00011090115110579F7F7C0843611F08936E5
:1035000061F5560197FE09C024E0A20EB11CF60138
:1035100060817181828193810AC0F2E0AF0EB11C9B
:10352000F60160817181072E000C880B990BF92D33
:10353000FF769F2E97FF09C09095809570956195B5
:103540007F4F8F4F9F4FF0689F2E2AE030E0A301FE
:103550000E94371EC82EC6183FC0092D853721F49A
:103560000F7E2AE030E01DC0097F8F3691F018F4FD
:10357000883559F0C3C0803719F0883711F0BEC0C4
:10358000006104FF09C0046007C094FE08C0066023
:1035900006C028E030E005C020E130E002C020E1B4
:1035A00032E0560107FF09C084E0A80EB11CF60105
:1035B000608171818281938108C0F2E0AF0EB11CFD
:1035C000F6016081718180E090E0A3010E94371EC6
:1035D000C82EC6180F77902E96FE0BC0092D0E7FB1
:1035E000C11650F494FE0AC092FC08C0092D0E7E4C
:1035F00005C0DC2C092D03C0DC2C01C0D12E04FF3A
:103600000DC0FE01EC0DF11D8081803311F4097EA7
:1036100009C002FF06C0D394D39404C0802F8678DB
:1036200009F0D39403FD11C000FF06C01C2DD51472
:1036300080F4150D1D190DC0D51458F4B70180E2A2
:1036400090E00E94831DD394F7CFD51410F45D1839
:1036500001C0512C04FF10C0B70180E390E00E942C
:10366000831D02FF17C001FD03C088E790E002C080
:1036700088E590E0B7010CC0802F867859F001FFF3
:1036800002C08BE201C080E207FD8DE2B70190E04D
:103690000E94831DC11638F4B70180E390E00E94B8
:1036A000831D1150F7CFCA94F301EC0DF11D8081F9
:1036B000B70190E00E94831DC110F5CF15C0F4E062
:1036C000F51560F584E0581A93FE1FC0011127C05C
:1036D0002C8523FF2AC008E710E0392D3071932E86
:1036E000F8018491811124C0552009F4E4CCB7017C
:1036F00080E290E00E94831D5A94F6CFF701868104
:10370000978126C08FEF9FEF23C0B70180E290E042
:103710000E94831D5A945110F8CFD8CF512CB70175
:10372000802F90E00E94831DD3CF0CE710E0D5CF0F
:1037300091108052B70190E00E94831D0F5F1F4FD0
:10374000CFCF23E0251510F483E0BDCF512CC0CF9F
:103750006096E2E10C94C51B2F923F924F925F92CC
:103760006F927F928F929F92AF92BF92CF92DF9291
:10377000EF92FF920F931F93CF93DF93CDB7DEB7F6
:10378000CA1BDB0BCDBFDEBF09942A883988488865
:103790005F846E847D848C849B84AA84B984C8846D
:1037A000DF80EE80FD800C811B81AA81B981CE0F64
:1037B000D11DCDBFDEBFED010895283008F027E010
:1037C0003327DA01990F311D87FD9160009661055D
:1037D000710539F432602E5F3D9330E32A95E1F7AD
:1037E00008959F3F30F080387105610509F03C5F16
:1037F0003C5F3D93913008F08068911DDF93CF933B
:103800001F930F93FF92EF92192F987F9695E92FB0
:1038100096959695E90FFF27E652FF4F9927332794
:10382000EE24FF24A701E70105900894079428F4EB
:10383000360FE71EF81E491F511D660F771F881FA0
:10384000991F0694A1F70590079428F4E70EF81E37
:10385000491F561FC11D770F881F991F661F0694A9
:10386000A1F70590079428F4F80E491F561FC71FAB
:10387000D11D880F991F661F771F0694A1F7059029
:10388000079420F4490F561FC71FD81F990F661FB2
:10389000771F881F0694A9F784911095177041F03F
:1038A000D695C79557954795F794E7941A95C1F71C
:1038B000E0E8F0E068941590159135916591959147
:1038C00005907FE27395E118F10A430B560BC90B83
:1038D000D009C0F7E10CF11E431F561FC91FD01DB0
:1038E0007EF4703311F48A95E6CFE894015030F0FD
:1038F000080F0AF40027021708F4202F2395022F3F
:103900007A3328F079E37D932A95E9F710C07D9307
:103910002A9589F606949795679537951795179484
:10392000E118F10A430B560BC90BD00998F0239507
:103930007E9173957A3308F070E37C932013B8F787
:103940007E9170617D9330F0839571E37D9370E398
:103950002A95E1F71124EF90FF900F911F91CF91DD
:10396000DF91992787FD9095089591110C94951EEC
:10397000803219F089508550C8F708959111089543
:1039800081548A5108F4805E855A0895FC0105909F
:10399000061621F00020D9F7C00108953197CF0114
:1039A0000895FC010590615070400110D8F7809592
:1039B00090958E0F9F1F089540E458E30E941E1DAE
:1039C0000895FB01DC018D91019080190110D9F35C
:1039D000990B0895FB01DC014150504048F00190E3
:1039E0000D920020C9F701C01D9241505040E0F7F0
:1039F0000895FC016150704001900110D8F7809546
:103A000090958E0F9F1F0895FB0151915523A9F0AA
:103A1000BF01DC014D9145174111E1F759F4CD018A
:103A20000190002049F04D9140154111C9F3FB016F
:103A30004111EFCF81E090E001970895FA01A19143
:103A4000B081009719F41097E1F0CD01DC01CD01B0
:103A50000D90002011F4C00113C0FB01219122231D
:103A600019F02015D9F7F3CFFB012191201519F496
:103A70001E92119606C02223C1F70D900020A1F7D7
:103A8000D001FA01A193B0830895CF93DF93EC01A5
:103A90002B8120FF33C026FF0AC02F7B2B838E8112
:103AA0009F8101968E839F838A8190E029C022FFA7
:103AB0000FC0E881F9818081082E000C990B0097D6
:103AC00019F420622B831AC03196E883F9830EC063
:103AD000EA85FB85099597FF09C02B81019611F0B6
:103AE00080E201C080E1822B8B8308C02E813F8160
:103AF0002F5F3F4F2E833F83992702C08FEF9FEFA9
:103B0000DF91CF9108950F931F93CF93DF93FB0124
:103B1000238121FD03C08FEF9FEF2CC022FF16C031
:103B200046815781248135814217530744F4A0818F
:103B3000B1819D012F5F3F4F208331838C9326817C
:103B400037812F5F3F4F2683378314C08B01EC01F1
:103B5000FB010084F185E02D0995892BE1F6D80160
:103B600016968D919C911797019616968D939C931E
:103B70001797CE01DF91CF911F910F910895A0E08B
:103B8000B0E0E5ECFDE10C94BC1BAE014B5F5F4F78
:103B9000FA0161917191AF0180911D3990911E39A7
:103BA0000E942F18E2E00C94D51B0F931F93CF9324
:103BB000DF93E0911D39F0911E39238121FF1BC055
:103BC0008C01D0E0C0E0F80181918F0160911D3936
:103BD00070911E39DB011896ED91FC91199788239D
:103BE00031F00995892B79F3DFEFCFEFECCF8AE045
:103BF0000995892B19F08FEF9FEF02C08D2F9C2F15
:103C0000DF91CF911F910F910895AEE0B0E0EBE00E
:103C1000FEE10C94BC1B85E08C838B899C89898395
:103C20009A83AE01495E5F4F6D897E89CE01019610
:103C30000E94FD162E96E2E00C94D51BFB01238119
:103C400020FF12C026FD10C08F3F3FEF930761F0A9
:103C500082832F7D2064238326813781215031097F
:103C600026833783992708958FEF9FEF0895FA01F0
:103C7000AA27283051F1203181F1E8946F936E7FAB
:103C80006E5F7F4F8F4F9F4FAF4FB1E03ED0B4E09C
:103C90003CD0670F781F891F9A1FA11D680F791FDD
:103CA0008A1F911DA11D6A0F711D811D911DA11DEE
:103CB00020D009F468943F912AE0269F11243019FE
:103CC000305D3193DEF6CF010895462F4770405D99
:103CD0004193B3E00FD0C9F7F6CF462F4F70405D48
:103CE0004A3318F0495D31FD4052419302D0A9F7A3
:103CF000EACFB4E0A6959795879577956795BA959D
:103D0000C9F700976105710508959B01AC010A2E62
:103D100006945795479537952795BA95C9F7620F39
:103D2000731F841F951FA01D089599278827089544
:043D3000F894FFCF35
:103D3400496E69636961206E6F204164643A20258D
:103D4400782C205374617475732025640A005068BC
:103D54006967683A2025782C205374617475732040
:103D640025640A00506C6F773A2025782C20537410
:103D7400617475732025640A0054686967683A2081
:103D840025782C205374617475732025620A0054BD
:103D94006C6F773A2025782C2053746174757320E6
:103DA40025620A0050726573696F6E20656E205239
:103DB40041573A2025640A005469656D706F252EB9
:103DC40032660D00525354004757530053313A257D
:103DD4006353323A25630A00474C5400474C542538
:103DE4002E32660A0047433100474331252E32669E
:103DF4005F252E32660A0047433200474332252EA0
:103E040032665F252E32660A005653002C00256464
:103E140000434E3200256600434E31004D530D00E1
:103E2400566F6C74616A652053656E736F72313AB4
:103E34002025660A00566F6C74616A652053656EAE
:103E4400736F72323A2025660A0052540D005248AC
:103E5400252E3266524C252E306652564F252E3270
:103E640066525650252E32660A005248252E326676
:103E74005246252E326652564F252E3266525650E1
:103E8400252E32660A005248252E3266524C252EC3
:103E940030665251252E326652564F252E326652C6
:103EA4005650252E32660A005248252E3266524656
:103EB400252E32665251252E326652564F252E3209
:103EC40066525650252E32660A0041430D004E6F4D
:103ED400206163756D756C61646F0D004143252E1F
:103EE40032660A004C542C252E32660A0056520DB6
:103EF4000047565200564C0D0047564C004741436C
:103F040025640A0047535725640A00475331256343
:103F14000A0047533225630A0047465425640A00C1
:063F2400417975646100A3
:103F2A000000000200000000B901000000002000AB
:103F3A000000000000000000000000000000000077
:103F4A000000000000000000000000000000000067
:103F5A000000000000000000000000000000000057
:00000001FF
