:100000000C94E4000C9401010C9401010C94010186
:100010000C9401010C9401010C9401010C94010158
:100020000C9488050C9401010C9401010C940101BD
:100030000C9401010C949A060C9401010C9401019A
:100040000C9401010C94B9010C9401010C94010170
:100050000C9401010C9401010C9401010C94010118
:100060000C94AF050C9401010C9401010C94010156
:100070000C9401010C9401016E616E00696E6600C2
:1000800000407A10F35A00A0724E18090010A5D44F
:10009000E80000E87648170000E40B54020000CAAC
:1000A0009A3B000000E1F5050000809698000000F2
:1000B00040420F000000A086010000001027000051
:1000C0000000E803000000006400000000000A00D7
:1000D000000000000100000000002C76D888DC67DA
:1000E0004F0823DFC1DFAE59E1B1B796E5E3E45332
:1000F000C63AE651997696E8E6C28426EB898C9B4F
:1001000062ED407C6FFCEFBC9C9F40F2BAA56FA5EE
:10011000F490055A2AF75C936B6CF9676DC11BFC70
:10012000E0E40D47FEF520E6B500D0ED902E03008B
:10013000943577050080841E080000204E0A0000D8
:1001400000C80C333333330F986E12831141EF8D97
:100150002114893BE65516CFFEE6DB18D1844B38D7
:100160001BF77C1D901DA4BBE424203284725E2208
:100170008100C9F124ECA1E53D276364696E6F70CD
:10018000737578585B65666745464700616E006E1B
:1001900066696E69747900CDCCCC3D0AD7233C17D3
:1001A000B7D13877CC2B329595E6241FB14F0A0092
:1001B0000020410000C84200401C4620BCBE4CCA82
:1001C0001B0E5AAEC59D740011241FBECFEFCDBFCC
:1001D000DFE3DEBF18E3A0E0B8E3E3E7F7E302C044
:1001E00005900D92A034B107D9F729E3A0E4B8E354
:1001F00001C01D92A831B207E1F70E94860D0C9450
:10020000191B0C940000E0E0F4E080818B7F808378
:10021000808182608083A0E2B4E054968C915497F0
:10022000887F54968C93549754968C9154978460FD
:1002300054968C93549754968C915497877F5496E8
:100240008C9354978589887F858B85898460858B7D
:100250008589877F858B93E011969C9311975096A3
:100260008C915097877F50968C93509714969C93BF
:10027000149751968C915197877F51968C935197F3
:100280008689887F868B86898460868B8689877F2E
:10029000868B8C9180628C9355968C915597877F35
:1002A00055968C93559714968C9114978F7D149630
:1002B0008C938081886080838389877F838B84810E
:1002C000877F8483089580E008C0E82FF0E0E05F36
:1002D000FB4F9081986090838F5F8830B0F380E00F
:1002E00008C0E82FF0E0E05DFB4F908198609083BC
:1002F0008F5F8630B0F380E008C0E82FF0E0E05B6D
:10030000FB4F9081986090838F5F8430B0F30895A5
:1003100088ED84BF1092610084BF81E0809360000B
:1003200008959091040895FFFCCF809302080895EA
:100330000E94910180E090E0089580910408882354
:10034000E4F7809100080895E0E0F8E08DE690E0A1
:100350008087918780EC868380E88093050881E020
:100360008093E20580E098E38093143990931539E7
:1003700008951F920F920FB60F9211242F933F935F
:100380004F935F936F937F938F939F93AF93BF939D
:10039000EF93FF930E949D0180930F39882381F092
:1003A0008D3071F090917838E92FF0E0E25FF74CF2
:1003B00080839F5F90937838933310F01092783851
:1003C0008D3009F04FC0E0917838F0E0E25FF74CF3
:1003D0008083109278388091DD38811111C090911E
:1003E000AB3891110DC090917938911109C042E359
:1003F00050E06EE078E38DED98E30E946B1925C024
:10040000882389F09091AB3891110DC09091793883
:10041000911109C042E350E06EE078E38BEA98E383
:100420000E946B1912C0882381F08091AB38882319
:1004300061F080917938811108C042E350E06EE0AC
:1004400078E389E798E30E946B1982E3EEE0F8E332
:10045000DF011D928A95E9F781E090E0809376387C
:1004600090937738FF91EF91BF91AF919F918F91CA
:100470007F916F915F914F913F912F910F900FBEA0
:100480000F901F901895FC0160838DE984BF83E075
:10049000809300100895FC0180810895E0E0F6E06B
:1004A00081E0818386E08283089581E180930A065A
:1004B0008091050680FFFCCFE0E0F6E081E08583D7
:1004C00080899189A289B38908958F929F92AF9272
:1004D000BF92CF92DF92EF92FF92CF93DF9386305D
:1004E0009105C9F08930910519F0059771F407C09D
:1004F000E0E0F6E081E0808389E0848706C0E0E008
:10050000F6E081E0808385E08487C0E0D0E0C12C04
:10051000D12C760137C0E0E0F6E081E0808386E010
:100520008487F3CF0E945502BC0180E090E00E94D6
:100530007E0F20E030E040E250E40E94351020E0E1
:1005400030E040E859E30E94351020E030E040E020
:100550005FE30E9435104B015C0120E030E040E099
:100560005FE3C701B6010E9435109B01AC01C501D4
:10057000B4010E949B0E6B017C01219683E393E002
:100580000197F1F7C431D1056CF2E0E0F6E080812B
:100590008E7F8083C701B601DF91CF91FF90EF90EE
:1005A000DF90CF90BF90AF909F908F90089580E0A4
:1005B0009091A508907C29F49091A5089C7019F45D
:1005C00003C081E001C082E0882391F30895EF9297
:1005D000FF920F931F93CF93DF937C018FEF9FE0E8
:1005E0000197F1F700C00000E0EAF8E0168293E01E
:1005F00093831782108688E084838581806C85834D
:1006000081E0858381E58783948391E0E916F10495
:10061000A9F49091A5088091A8081F929F931F921A
:100620008F9386E396EB9F938F930E94401A0F90CF
:100630000F900F900F900F900F9004C08AED8A9545
:10064000F1F700C0E0EAF8E088E084838581806CFF
:10065000858391E0E916F10429F089E991E0019799
:10066000F1F700C081E58093A7080E94D70281308E
:1006700009F044C08091A808082F10E091E0E91625
:10068000F10499F49091A5081F929F931F928F9364
:1006900084E596EB9F938F930E94401A0F900F90E2
:1006A0000F900F900F900F9005C089E991E001978E
:1006B000F1F700C0E0EAF8E083E084838085C82F8A
:1006C000D0E091E0E916F10499F49091A5081F9209
:1006D0009F931F928F938AE696EB9F938F930E942E
:1006E000401A0F900F900F900F900F900F900AC02C
:1006F00089E991E00197F1F700C004C0C0E0D0E0C3
:1007000000E010E0E0EAF8E083818E7F8383102F21
:100710000027C02BD12BEA94EF2861F4DF93CF930D
:100720008FE796EB9F938F930E94401A0F900F9044
:100730000F900F90CE01DF91CF911F910F91FF90FD
:10074000EF900895CF92DF92EF92FF920F931F9355
:10075000CF93DF93CDB7DEB72C97CDBFDEBF6B0154
:100760007C014130510571F527C0C8018C509B4E6A
:100770000E944B02E1E0F0E0EC0FFD1FE00FF11FE3
:100780008083C80188509B4E0E944B02E5E0F0E058
:10079000EC0FFD1FE00FF11F8083C80184509B4EBA
:1007A0000E944B02E9E0F0E0EC0FFD1FE00FF11FAB
:1007B00080830F5F1F4F02C000E010E0043011057E
:1007C000A4F230C04230510569F527C0C8018851F4
:1007D0009B4E0E944B02E1E0F0E0EC0FFD1FE00FAA
:1007E000F11F8083C80184519B4E0E944B02E5E0BB
:1007F000F0E0EC0FFD1FE00FF11F8083C801805176
:100800009B4E0E944B02E9E0F0E0EC0FFD1FE00F71
:10081000F11F80830F5F1F4F02C000E010E0043023
:100820001105A4F269817A818B819C81A7019601CF
:100830000E9430108823ACF42D813E814F81588571
:10084000C701B6010E94351029853A854B855C8524
:100850000E949A0E23E333E343E251E40E943510F1
:1008600003C060E070E0CB012C96CDBFDEBFDF910E
:10087000CF911F910F91FF90EF90DF90CF9008954F
:100880000F931F93CF93DF938C01EB0161307105C0
:10089000D1F4083E83E01807D4F0B801685E7340D5
:1008A000072E000C880B990B0E94800F23E333E383
:1008B00043E251E40E94351020E030E04AEF54E476
:1008C0000E940C0F07C060E070E0CB0103C060E045
:1008D00070E0CB012297B9F4083E83E0180784F05A
:1008E000B801685E7340072E000C880B990B0E94BC
:1008F000800F2CEE31E545E852E40E940C0F03C056
:1009000060E070E0CB01DF91CF911F910F910895CE
:100910004F925F926F927F928F929F92AF92BF920F
:10092000CF92DF92EF92FF920F931F93CF93DF93BB
:10093000CDB7DEB72897CDBFDEBF6B017C0141305C
:10094000510511F51BC0C80188509B4E0E944B02F7
:10095000E1E0F0E0EC0FFD1FE00FF11F8083C80124
:1009600084509B4E0E944B02E5E0F0E0EC0FFD1F2F
:10097000E00FF11F80830F5F1F4F02C000E010E007
:100980000430110504F324C04230510509F51BC0A1
:10099000C80184519B4E0E944B02E1E0F0E0EC0F55
:1009A000FD1FE00FF11F8083C80180519B4E0E9404
:1009B0004B02E5E0F0E0EC0FFD1FE00FF11F80833C
:1009C0000F5F1F4F02C000E010E00430110504F378
:1009D00023EE3DE649E65FE3C701B6010E94070F3B
:1009E0008823ACF189809A80AB80BC80A5019401FA
:1009F000C701B6010E943510CD80DE80EF80F884FB
:100A0000A70196010E949A0E24EA3DEF43E35FE3BB
:100A10000E9435102B013C0123EE3DE649E65FE3E1
:100A2000C501B4010E943510A70196010E949A0EDB
:100A300024EA3DEF43E35FE30E9435109B01AC01E4
:100A4000C301B2010E949A0E6B017C0103C0C12C4C
:100A5000D12C760184E094E10E944B02982E85E02F
:100A600094E10E944B02A82E86E094E10E944B0282
:100A7000B82E87E094E10E944B02092D7A2C6B2C52
:100A8000182F892C9A2CAB2CB82E20E030E0A9012D
:100A9000602F772D862D912F0E94070F882391F0CC
:100AA000202F372D462D512FC701B6010E94070F69
:100AB000882344F4A7019601C501B4010E949A0E4F
:100AC0006B017C01C701B6012896CDBFDEBFDF9167
:100AD000CF911F910F91FF90EF90DF90CF90BF903B
:100AE000AF909F908F907F906F905F904F90089500
:100AF000E0E0FAE080E090E486A397A381E08083C1
:100B000082870895E0E0FAE080818E7F80830895F7
:100B10001F920F920FB60F9211248F939F93809183
:100B20007038909171380196809370389093713835
:100B300080917238909173380196809372389093B7
:100B4000733881E080930B0A8091743890917538E6
:100B50009F918F910F900FBE0F901F9018951F922D
:100B60000F920FB60F921124CF92DF92EF92FF9265
:100B70002F933F934F935F936F937F938F939F93A5
:100B8000AF93BF93EF93FF938091490480FF06C01A
:100B9000E0E4F4E08185817081879EC080916A38AD
:100BA00090916B38019680936A3890936B380E94CD
:100BB0008205A89586EE94E10E944B02823069F08E
:100BC000833029F0813031F42AE030E008C028EE8B
:100BD00033E005C021E030E002C024E630E080913F
:100BE000723890917338181619063CF48091723857
:100BF0009091733881329E444CF010926638109276
:100C00006738109268381092693837C080916A3816
:100C100090916B38289FB001299F700D389F700DFF
:100C2000112480E090E00E947E0F6B017C016091B6
:100C3000723870917338072E000C880B990B0E9444
:100C4000800F20E030E040E05FE30E9435109B0120
:100C5000AC01C701B6010E940C0F60936638709317
:100C60006738809368389093693810927238109280
:100C7000733810926A3810926B38A89580916C384E
:100C800090916D38019680936C3890936D38809177
:100C90007438909175380197C1F4809169388F93B9
:100CA000809168388F93809167388F9380916638F0
:100CB0008F9383E996EB9F938F930E94401A0F9036
:100CC0000F900F900F900F900F90E9E4F4E0808167
:100CD000886080830E947805FF91EF91BF91AF916A
:100CE0009F918F917F916F915F914F913F912F9144
:100CF000FF90EF90DF90CF900F900FBE0F901F905E
:100D00001895E0E8FAE0108280E090E88487958703
:100D1000118281E085830895E0E8FAE01286138667
:100D20008081816080830895E0E8FAE080818E7F91
:100D3000808308951F920F920FB60F9211242F9364
:100D40003F934F935F936F937F938F939F93AF9353
:100D5000BF93EF93FF93809164389091653801962B
:100D6000809364389093653881E08093860AA895D3
:100D70008091743890917538019781F4809164382E
:100D8000909165389F938F938FE996EB9F938F9304
:100D90000E94401A0F900F900F900F90FF91EF91CB
:100DA000BF91AF919F918F917F916F915F914F9183
:100DB0003F912F910F900FBE0F901F90189598EDB7
:100DC00094BFA0E0B1E01C92E0E5F0E08081897F73
:100DD00084608083F8948081816080837894889592
:100DE00080818E7F808394BF80EB8C930895EF92F7
:100DF000FF920F931F93CF93DF93CDB7DEB72C975E
:100E0000CDBFDEBF8C016BEA76EB0E948519892B82
:100E100009F44AC0109200061092000A1092800A4B
:100E200010924001A8950E94940610925E3810928C
:100E30005F38109260381092613810925A381092D0
:100E40005B3810925C3810925D3810924E381092D8
:100E50004F38109250381092513810924A381092F0
:100E60004B3810924C3810924D38109246381092F0
:100E70004738109248381092493886E696E0019734
:100E8000F1F700000E94DF06E6E6F6E03197F1F7A1
:100E900000001092643810926538109262381092F7
:100EA00063380E948C0628C66EEA76EBC8010E9461
:100EB0008519892B41F41AC011928DE984BF83E012
:100EC0008093001002C0E0E0F4E1E83E24E1F20784
:100ED0009CF31F930F9381EB96EB9F938F930E944C
:100EE000401A0F900F900F900F9006C6F801808166
:100EF0008735D9F481818335C1F4628184EE94E130
:100F00000E944302F801638185EE94E10E9443024E
:100F10001F930F9381EB96EB9F938F930E94401A40
:100F20000F900F900F900F90E7C564EB76EBC80120
:100F30000E948519892BD9F167EB76EBC8010E94D5
:100F40005D190097F9F422C00130110591F424E7EE
:100F500038E33F932F9329EB36EB3F932F939F93E7
:100F60008F930E94861A0F900F900F900F900F9002
:100F70000F906CEB76EB80E090E00E945D190F5FC4
:100F80001F4F02C000E010E00097F1F68091743826
:100F9000909175389F938F938EEB96EB9F938F93E1
:100FA0000E94401A0F900F900F900F90A5C565EC0E
:100FB00076EBC8010E948519892B09F483C067EB81
:100FC00076EBC8010E945D190097C1F53BC0013066
:100FD000110521F002301105A9F027C09E012B5FF9
:100FE0003F4F3F932F9329EC36EB3F932F939F93E3
:100FF0008F930E94861A0F900F900F900F900F9072
:101000000F9013C09E012F5F3F4F3F932F9329EC0A
:1010100036EB3F932F939F938F930E94861A0F90E6
:101020000F900F900F900F900F906CEB76EB80E08D
:1010300090E00E945D190F5F1F4F02C000E010E0BA
:10104000009729F669817A818B819C812D813E816F
:101050004F8158850E940C0F69877A878B879C8700
:10106000A89500E010E026C0E9E0F0E0EC0FFD1FDD
:10107000E00FF11F6081C80188519B4E0E9443021E
:10108000E5E0F0E0EC0FFD1FE00FF11F6081C8010B
:1010900084519B4E0E944302E1E0F0E0EC0FFD1F03
:1010A000E00FF11F6081C80180519B4E0E944302F6
:1010B0000F5F1F4F04301105BCF28CEC96EB0E94C1
:1010C000561A1AC56FEC76EBC8010E948519892B58
:1010D00009F483C067EB76EBC8010E945D190097A5
:1010E000C1F53BC00130110521F002301105A9F016
:1010F00027C09E012B5F3F4F3F932F9329EC36EB88
:101100003F932F939F938F930E94861A0F900F9077
:101110000F900F900F900F9013C09E012F5F3F4FC5
:101120003F932F9329EC36EB3F932F939F938F930D
:101130000E94861A0F900F900F900F900F900F90B3
:101140006CEB76EB80E090E00E945D190F5F1F4F23
:1011500002C000E010E0009729F669817A818B8156
:101160009C812D813E814F8158850E940C0F69879B
:101170007A878B879C87A89500E010E026C0E9E07D
:10118000F0E0EC0FFD1FE00FF11F6081C8018C50F3
:101190009B4E0E944302E5E0F0E0EC0FFD1FE00FE4
:1011A000F11F6081C80188509B4E0E944302E1E01C
:1011B000F0E0EC0FFD1FE00FF11F6081C8018450CB
:1011C0009B4E0E9443020F5F1F4F04301105BCF27B
:1011D0008CEC96EB0E94561A8FC463ED76EBC80137
:1011E0000E948519892B09F445C067EB76EBC8018D
:1011F0000E945D19009701F523C00130110599F493
:101200009E012F5F3F4F3F932F9329EC36EB3F9387
:101210002F939F938F930E94861A0F900F900F9099
:101220000F900F900F906CEB76EB80E090E00E94B7
:101230005D190F5F1F4F02C000E010E00097E9F654
:10124000A895698184E094E10E9443026A8185E067
:1012500094E10E9443026B8186E094E10E94430284
:101260006C8187E094E10E94430283ED96EB0E943B
:10127000561A42C466ED76EBC8010E946219892BAA
:1012800009F042C284EE94E10E944B02182F809331
:10129000103985EE94E10E944B0280931139E0E20F
:1012A000F4E0948190629483103531F0803521F020
:1012B0001E3411F08E3479F4A89580E090E0DC01C2
:1012C00004C0A8950196A11DB11D8115F0E49F07EA
:1012D000A105B105B0F31E3409F4B2C030F41134E5
:1012E00009F4EEC0193439F0F1C0103509F468C0C2
:1012F0001936B1F1EBC000E014E0F8018481806898
:1013000084838481886084838FEF9FE10197F1F764
:1013100000C00000A89580917438909175380E94A3
:10132000E70262E070E00E94400460934E387093E0
:101330004F388093503890935138F80184818F77DB
:1013400084838481877F84838FEF9FE10197F1F706
:1013500000C00000E6E6F6E03197F1F70000B6C005
:1013600000E014E0F80184818068848384818860CF
:1013700084838FEF9FE10197F1F700C00000A895EB
:1013800080917438909175380E94E70261E070E0B6
:101390000E94400460934E3870934F3880935038C9
:1013A00090935138F80184818F7784838481877F7B
:1013B00084838FEF9FE10197F1F700C0000086C0A2
:1013C000A89589E090E00E946502262F372F462FCE
:1013D000572F682F792F40935E3850935F38609372
:1013E000603870936138409174385091753841304D
:1013F000510581F49F938F933F932F938AED96EB42
:101400009F938F930E94401A0F900F900F900F9010
:101410000F900F9060915E3870915F3880916038C6
:101420009091613841E050E00E94A20360934E38F1
:1014300070934F388093503890935138A89546C098
:10144000A89589E090E00E946502262F372F462F4D
:10145000572F682F792F40935E3850935F386093F1
:1014600060387093613840917438509175384130CC
:10147000510581F49F938F933F932F938AED96EBC1
:101480009F938F930E94401A0F900F900F900F9090
:101490000F900F9060915E3870915F388091603846
:1014A0009091613841E050E00E9488046093563882
:1014B000709357388093583890935938A89506C040
:1014C00081E090E0809344389093453880911139C1
:1014D0008E3409F4BBC030F4813409F4F7C0893488
:1014E00039F0FAC0803509F471C08936C1F1F4C011
:1014F0006894EE24E6F8FF24F2F8F7018481846012
:10150000848300E014E0F8018481886084838FEF95
:101510009FE10197F1F700C00000A8958091743811
:10152000909175380E94E70262E070E00E944004EA
:1015300060934A3870934B3880934C3890934D3871
:10154000F70184818B7F8483F8018481877F848382
:101550008FEF9FE10197F1F700C00000BDC06894D4
:10156000EE24E6F8FF24F2F8F70184818460848396
:1015700000E014E0F8018481886084838FEF9FE1AC
:101580000197F1F700C00000A89580917438909100
:1015900075380E94E70261E070E00E9440046093A9
:1015A0004A3870934B3880934C3890934D38F701FC
:1015B00084818B7F8483F8018481877F84838FEF8C
:1015C0009FE10197F1F700C0000086C0A89585E073
:1015D00090E00E946502262F372F462F572F682F45
:1015E000792F40935A3850935B3860935C387093EE
:1015F0005D3840917438509175384130510581F40F
:101600009F938F933F932F938FEE96EB9F938F93A0
:101610000E94401A0F900F900F900F900F900F9014
:1016200060915A3870915B3880915C3890915D3848
:1016300042E050E00E94A20360934A3870934B3816
:1016400080934C3890934D38A89546C0A89585E076
:1016500090E00E946502262F372F462F572F682FC4
:10166000792F40935A3850935B3860935C3870936D
:101670005D3840917438509175384130510581F48E
:101680009F938F933F932F938FEE96EB9F938F9320
:101690000E94401A0F900F900F900F900F900F9094
:1016A00060915A3870915B3880915C3890915D38C8
:1016B00042E050E00E94880460935238709353389F
:1016C0008093543890935538A89506C081E090E0F7
:1016D0008093423890934338E0E2F4E084818F7D38
:1016E000848386E090E00E94650220E030E040EADA
:1016F00050E40E94351060934638709347388093C9
:10170000483890934938F8C164E077EBC8010E94EB
:101710006219892B09F0ECC180911039803529F0CC
:10172000893419F0893609F063C0909111399035E8
:1017300029F0993419F0993609F05AC08091493846
:101740008F93809148388F93809147388F93809101
:1017500046388F9380914D388F9380914C388F937A
:1017600080914B388F9380914A388F938091513874
:101770008F93809150388F9380914F388F938091C1
:101780004E388F9388E097EB9F938F930E94401A77
:10179000E0E0FAE080818E7F808310925E381092C4
:1017A0005F38109260381092613810925A38109257
:1017B0005B3810925C3810925D3810924E3810925F
:1017C0004F38109250381092513810924A38109277
:1017D0004B3810924C3810924D3810924638109277
:1017E00047381092483810924938CDBFDEBF84C1C7
:1017F000803529F0893419F0893609F05AC0909162
:1018000011399E3409F055C0809149388F938091E9
:1018100048388F93809147388F93809146388F93C3
:10182000809155388F93809154388F93809153389D
:101830008F93809152388F93809151388F938091FC
:1018400050388F9380914F388F9380914E388F937B
:101850008DE197EB9F938F930E94401A10925E3810
:1018600010925F38109260381092613810925A3896
:1018700010925B3810925C3810925D3810924E389E
:1018800010924F38109250381092513810925238AE
:10189000109253381092543810925538109246389E
:1018A000109247381092483810924938CDBFDEBFA9
:1018B00023C1803521F0893411F08936E9F5909102
:1018C00011399134C9F5809149388F938091483806
:1018D0008F93809147388F93809146388F93809172
:1018E00051388F93809150388F9380914F388F93D8
:1018F00080914E388F9382E397EB9F938F930E9452
:10190000401A10925E3810925F3810926038109230
:10191000613810924E3810924F3810925038109211
:101920005138109246381092473810924838109229
:101930004938CDBFDEBFE0C08E3409F05AC0909167
:1019400011399E3409F055C0809149388F938091A8
:1019500048388F93809147388F93809146388F9382
:10196000809155388F93809154388F93809153385C
:101970008F93809152388F93809159388F938091B3
:1019800058388F93809157388F93809156388F9322
:1019900081E497EB9F938F930E94401A10925E38D8
:1019A00010925F38109260381092613810925A3855
:1019B00010925B3810925C3810925D381092563855
:1019C0001092573810925838109259381092523855
:1019D000109253381092543810925538109246385D
:1019E000109247381092483810924938CDBFDEBF68
:1019F00083C08E34E9F5909111399134C9F5809105
:101A000049388F93809148388F93809147388F93CE
:101A1000809146388F93809159388F9380915838B0
:101A20008F93809157388F93809156388F9383E2AC
:101A300097EB9F938F930E94401A10925E381092FA
:101A40005F381092603810926138109256381092B8
:101A500057381092583810925938109246381092D0
:101A600047381092483810924938CDBFDEBF44C085
:101A7000813409F041C0809111398E34E9F58091AB
:101A800049388F93809148388F93809147388F934E
:101A9000809146388F93809155388F938091543838
:101AA0008F93809153388F93809152388F9383E234
:101AB00097EB9F938F930E94401A10925A3810927E
:101AC0005B3810925C3810925D3810925238109248
:101AD000533810925438109255381092463810925C
:101AE00047381092483810924938CDBFDEBF04C045
:101AF00086E597EB0E94561A2C96CDBFDEBFDF918C
:101B0000CF911F910F91FF90EF9008950E9488014F
:101B10000E9463010E9403010E944E02E0E0F4E093
:101B20008081806880838789877F878B84818F7796
:101B30008483E0E4F4E08081846080838289877F0D
:101B4000828B84818B7F848380818E7F8083808958
:101B5000877F808B80898160808B88ED84BF8BE05C
:101B60008093000182E3EEE0F8E3DF011D928A95A5
:101B7000E9F70E94A40183E393E00197F1F70E9443
:101B800081060E949406109200061092000A10929C
:101B9000800A10924001A6E6B6E01197F1F7000026
:101BA0000E94DF0686E696E00197F1F700001092AA
:101BB00062381092633810926E3810926F380E941B
:101BC0008C0678948091623890916338892BB9F4AF
:101BD0000E948C0686ED96EB0E94F70684E097EB58
:101BE0000E94F70682E3EEE0F8E3DF011D928A959A
:101BF000E9F781E090E080936238909363388091B8
:101C00006438909165384E9778F1109200061092E2
:101C1000000A1092800A10924001A89580917438B1
:101C200090917538019741F488E697EB9F938F93D5
:101C30000E94401A0F900F900E94940686E696E04C
:101C40000197F1F700000E94DF06A6E6B6E01197C3
:101C5000F1F70000109262381092633810926438E5
:101C6000109265380E948C06809176389091773872
:101C7000019709F057C08DED98E30E94F706809117
:101C8000AB38882341F190917938992321F1C2E34F
:101C9000EDEDF8E3DF018C2F1D928A95E9F742E321
:101CA00050E06BEA78E3CF010E946B19EBEAF8E3AE
:101CB000DF018C2F1D928A95E9F742E350E069E736
:101CC00078E3CF010E946B19E9E7F8E3DF011D9289
:101CD000CA95E9F727C08823D1F08091793881111E
:101CE00016C0C2E3EDEDF8E3DF018C2F1D928A955B
:101CF000E9F742E350E06BEA78E3CF010E946B1909
:101D0000EBEAF8E3DF011D92CA95E9F70BC082E325
:101D1000EDEDF8E3DF011D928A95E9F71092763830
:101D200010927738109200061092000A109240012B
:101D3000A89548CF5058BB27AA270E94B20E0C94F2
:101D4000F60F0E94E80F38F00E94EF0F20F039F4F0
:101D50009F3F19F426F40C94E50F0EF4E095E7FB91
:101D60000C94DF0FE92F0E94071058F3BA1762078F
:101D700073078407950720F079F4A6F50C942910D1
:101D80000EF4E0950B2EBA2FA02D0B01B901900196
:101D90000C01CA01A0011124FF27591B99F0593FDA
:101DA00050F4503E68F11A16F040A22F232F342F22
:101DB0004427585FF3CF469537952795A795F04070
:101DC0005395C9F77EF41F16BA0B620B730B840B85
:101DD000BAF09150A1F0FF0FBB1F661F771F881F3D
:101DE000C2F70EC0BA0F621F731F841F48F4879595
:101DF00077956795B795F7959E3F08F0B0CF939587
:101E0000880F08F09927EE0F9795879508950E94FF
:101E1000BB0F08F481E008950E94200F0C94F60F88
:101E20000E94EF0F58F00E94E80F40F029F45F3F46
:101E300029F00C94DF0F51110C942A100C94E50F2B
:101E40000E94071068F39923B1F3552391F3951B72
:101E5000550BBB27AA2762177307840738F09F5FCB
:101E60005F4F220F331F441FAA1FA9F335D00E2E38
:101E70003AF0E0E832D091505040E695001CCAF7A5
:101E80002BD0FE2F29D0660F771F881FBB1F261768
:101E900037074807AB07B0E809F0BB0B802DBF013F
:101EA000FF2793585F4F3AF09E3F510578F00C940E
:101EB000DF0F0C942A105F3FE4F3983ED4F386952D
:101EC00077956795B795F7959F5FC9F7880F911D2F
:101ED0009695879597F90895E1E0660F771F881F1B
:101EE000BB1F621773078407BA0720F0621B730BCE
:101EF000840BBA0BEE1F88F7E0950895E89409C0AB
:101F000097FB3EF490958095709561957F4F8F4F2C
:101F10009F4F9923A9F0F92F96E9BB279395F69542
:101F2000879577956795B795F111F8CFFAF4BB0FC0
:101F300011F460FF1BC06F5F7F4F8F4F9F4F16C024
:101F4000882311F096E911C0772321F09EE8872FAE
:101F5000762F05C0662371F096E8862F70E060E06A
:101F60002AF09A95660F771F881FDAF7880F9695E3
:101F7000879597F90895990F0008550FAA0BE0E887
:101F8000FEEF16161706E807F907C0F0121613063B
:101F9000E407F50798F0621B730B840B950B39F47B
:101FA0000A2661F0232B242B252B21F408950A26E1
:101FB00009F4A140A6958FEF811D811D089597F921
:101FC0009F6780E870E060E008959FEF80EC0895DF
:101FD00000240A9416161706180609060895002408
:101FE0000A9412161306140605060895092E039482
:101FF000000C11F4882352F0BB0F40F4BF2B11F4F6
:1020000060FF04C06F5F7F4F8F4F9F4F089557FD54
:102010009058440F551F59F05F3F71F04795880F56
:1020200097FB991F61F09F3F79F0879508951216ED
:1020300013061406551FF2CF4695F1DF08C0161699
:1020400017061806991FF1CF86957105610508944A
:102050000895E894BB2766277727CB0197F9089561
:102060000E94BB0F08F48FEF08950E9448100C9453
:10207000F60F0E94E80F38F00E94EF0F20F0952332
:1020800011F00C94DF0F0C94E50F11240C942A101E
:102090000E94071070F3959FC1F3950F50E0551FF4
:1020A000629FF001729FBB27F00DB11D639FAA27AD
:1020B000F00DB11DAA1F649F6627B00DA11D661FFC
:1020C000829F2227B00DA11D621F739FB00DA11D1D
:1020D000621F839FA00D611D221F749F3327A00DD7
:1020E000611D231F849F600D211D822F762F6A2F73
:1020F00011249F5750409AF0F1F088234AF0EE0FD8
:10210000FF1FBB1F661F771F881F91505040A9F704
:102110009E3F510580F00C94DF0F0C942A105F3F16
:10212000E4F3983ED4F3869577956795B795F79540
:10213000E7959F5FC1F7FE2B880F911D96958795B8
:1021400097F9089520FD09C0FC0123FD05C022FF79
:1021500002C07383628351834083089544FD17C096
:1021600046FD17C0AB01BC01DA01FB01AA0FBB1F82
:10217000EE1FFF1F1094D1F74A0F5B1F6E1F7F1FCA
:10218000CB01BA01660F771F881F991F09C033E082
:1021900001C034E0660F771F881F991F3150D1F7B7
:1021A000620F711D811D911D08950F931F93CF9391
:1021B000DF938C01C8010E94C619EC0197FD08C08D
:1021C0000E943619892BB1F7B801CE010E949F1ADF
:1021D000CE01DF91CF911F910F910895A0E0B0E063
:1021E000E4EFF0E10C9433187C018B016A01D22FEB
:1021F0000E94C6199C0133272B32310521F02D3264
:10220000310559F4D0680150110911F480E06BC018
:10221000C7010E94C61997FDF9CFCD2FCD7F2D2F75
:10222000207319F5803309F5580181E0A81AB10827
:1022300009F445C0C7010E94C61997FD40C09C0122
:102240002F7D33272835310551F4C264025011091E
:10225000B1F1C7010E94C61997FF07C030C0D6FF71
:1022600002C0C26001C0C2618501812C912C540161
:1022700020ED280F283080F0C4FF04C0B7010E9471
:102280009F1A1AC02A3040F0C6FFF8CF2F7D3FEECC
:10229000320F363098F727504C2FC501B4010E94F9
:1022A000AE104B015C01C2600150110959F0C70129
:1022B0000E94C61997FFDCCFC1FD04C0A7CF812CB7
:1022C000912C5401C7FF08C0B094A09490948094BE
:1022D000811C911CA11CB11C2C2FB501A401C601AD
:1022E0000E94A21081E0CDB7DEB7ECE00C944C1850
:1022F000A0E2B0E0EEE7F1E10C942F185C014B0195
:102300007A018E010F5F1F4F680180E2F801119280
:102310008A95E9F7F501538040E050E0612C90E0A8
:10232000712CA1E0B0E0F90153FC859153FE81913D
:102330008F01482E9F01811103C080E090E096C07C
:102340008E3519F44115510551F1672D70E0641770
:1023500075073CF48D3561F18D3219F4992311F133
:1023600003C0992309F46DC0842D869586958695C2
:10237000F601E80FF11D842D87708D0102C0000F5A
:10238000111F8A95E2F7C8019081892B808364141C
:1023900059F0461410F44394E7CF4A94E5CF7724DC
:1023A000739403C091E001C090E04F5F5F4FBBCFDB
:1023B000992319F08E8180628E83711003C0772477
:1023C000739419C0F6019E012F5D3F4F8081809567
:1023D00081932E173F07D1F7F2CFE114F10431F0CA
:1023E000F7018083B7016F5F7F4F7B0171E0871A30
:1023F0009108712CF9F0C5010E94C61997FD18C00B
:10240000FC01FF2723E0F595E7952A95E1F7EC0D10
:10241000FD1D208130E0AC014770552702C0359585
:1024200027954A95E2F720FDD8CFB5010E949F1A63
:10243000711083CFE114F10411F0F7011082C8018B
:1024400015C0682F669566956695F601E60FF11D35
:10245000682F67708D0102C0000F111F6A95E2F7A7
:10246000B8017081672B6083682E9FCFA096E0E152
:102470000C9448182F923F924F925F926F927F92E6
:102480009F92AF92BF92CF92DF92EF92FF920F9303
:102490001F93CF93DF936C018B011A010E94C61921
:1024A000EC0199278B32910529F08D9781F430E862
:1024B000932E01C0912C0150110911F480E00CC140
:1024C000C6010E94C619EC0197FF02C0F7CF912CFC
:1024D000CE010E943F198936910531F08E36910563
:1024E00099F5CCE8D1E002C0CFE8D1E02196FE0119
:1024F0003197B490BB20C9F00150110991F0C60189
:102500000E94C6197C0197FD0CC00E943F199927B3
:10251000EB2DF0E08E179F0749F3B601C7010E942B
:102520009F1AC259D14051F603C0CF58D14029F06B
:1025300080E090E0A0E8BFE704C080E090E0A0EC7D
:10254000BFE7BC01CD01B8C0412C512C3201E12CB8
:10255000F12C2C2F20532A3010F5E92DE260BE2EED
:10256000892D887092FE06C0811120C0FFEFEF1AFE
:10257000FF0A1CC0882319F081E0E81AF10840E244
:10258000C301B2010E94AE102B013C0168397949A8
:102590008949994158F0F92DF660BF2E07C02E3FAA
:1025A00089F493FC0FC0292D2860B22E0150110927
:1025B00041F0C6010E94C619EC019B2C97FFC9CFC0
:1025C00001C09B2C91FE7ACFCE018F7D9927853457
:1025D000910509F042C0580181E0A81AB10809F438
:1025E0006DCFC6010E94C619EC0197FD67CF9927F0
:1025F0008B32910529F08D9769F4E92DE0619E2ECB
:102600005801F2E0AF1AB10809F458CFC6010E9490
:10261000C619EC01CE01C0970A9708F04FCF85018B
:10262000A12CB12CB501BB0C880B990B2C2F20537E
:1026300040E20E94AE105B010150110939F0C60161
:102640000E94C619EC01C0970A9760F394FE03C07C
:10265000B194A194B108EA0CFB1C012B31F0D7FD19
:1026600004C0B601CE010E949F1AC301B2010E94AC
:102670007E0FF7FE06C0F194E194F108CBEAD1E0B9
:1026800002C0C3ECD1E06E0128E1C21AD10800E219
:1026900010E0E016F10650F0FE01259135914591CC
:1026A00054910E943510E01AF10AF3CF2497169541
:1026B0000795CC16DD0669F797FE05C0DC01CB0156
:1026C000B058BC01CD012114310429F0F10160831F
:1026D00071838283938381E0DF91CF911F910F916A
:1026E000FF90EF90DF90CF90BF90AF909F907F9042
:1026F0006F905F904F903F902F900895A0E0B0E0D2
:10270000E4E8F3E10C9431185C01EB014A01FC01AF
:1027100016821782612CF5010381FE0103FD85916C
:1027200003FF8191182FEF01882309F40FC190E076
:102730000E943619892B21F0C5010E94D510EBCFDC
:10274000153241F4FE0103FD159103FF1191EF01D4
:10275000153281F4C5010E94C61997FDF5C0412FBD
:1027600050E09C01332724173507A9F2B5010E94D8
:102770009F1AECC01A3241F403FD159103FF119129
:10278000EF017724739401C0712CE12CF12C20ED22
:10279000210F2A3088F4F72DF2607F2EB70180E0F8
:1027A00090E040E20E94AE107B01FE0103FD159116
:1027B00003FF1191EF01EBCF71FE04C0E114F104AE
:1027C00021F4C4C0EE24EA94FE2C183619F01C360D
:1027D00061F014C0FE0103FD159103FF1191EF019B
:1027E000183661F4872D8860782E972D9460792EA5
:1027F000FE0103FD159103FF1191EF01112309F46F
:10280000A5C0612F70E08AE791E00E944719892BEB
:1028100009F49CC070FC07C0F401C080D180C401E1
:1028200002964C0102C0C12CD12C1E3651F4F50188
:102830004681578160E070E0272DC6010E94A210FA
:102840006ACF1336B9F471FC03C0EE24E394F12C83
:10285000C5010E94C61997FD77C0C114D10429F0A3
:10286000F6018083C60101966C0191E0E91AF10836
:1028700079F766C01B3559F49E01A601B701C50161
:102880000E947811EC01892B09F05AC054C0C5018F
:102890000E94D51097FD58C01F36E1F140F4143660
:1028A000A9F11936D1F1183509F03EC02BC0133704
:1028B000A9F018F4103731F137C0153739F118374E
:1028C00009F132C0C114D10429F0F6010083C60118
:1028D00001966C0191E0E91AF10871F0C5010E94BE
:1028E000C6198C0197FD08C00E943619892B51F337
:1028F000B501C8010E949F1AC114D10409F1F60163
:1029000010821EC0F72DF0647F2E07C0872D8062D5
:10291000782E03C0972D9061792E272DA601B7013F
:10292000C5010E94EE1005C0A601B701C5010E94B5
:102930003A12811105C0F5018381807329F406C024
:1029400070FCE9CE6394E7CE662019F0862D90E006
:1029500002C08FEF9FEFCDB7DEB7EEE00C944A18C0
:10296000A0E1B0E0E6EBF4E10C942D187C011B0132
:102970006A01FC0116821782838181FF44C39E0194
:102980002F5F3F4F3901F7019381F10193FD85914D
:1029900093FF81911F01882309F431C3853239F4F3
:1029A00093FD859193FF81911F01853239F4B70121
:1029B00090E00E94041A56016501E5CF10E0512C09
:1029C000912CFFE1F915D8F08B3279F038F4803290
:1029D00079F08332A1F4F92DF0612EC08D3261F0CF
:1029E000803369F4292D21602DC0392D3260932E5A
:1029F000892D8460982E2AC0E92DE86015C097FCC7
:102A00002DC020ED280F2A3088F496FE06C03AE04B
:102A1000139F200D1124122F19C08AE0589E200DFB
:102A20001124522EE92DE0629E2E10C08E3231F418
:102A300096FCE5C2F92DF0649F2E08C08C3621F477
:102A4000292D2068922E02C0883641F4F10193FDB1
:102A5000859193FF81911F018111B3CF9BEB980F5B
:102A6000933020F4992D9061805E07C09BE9980F08
:102A7000933008F066C1992D9F7E96FF16E09F73F4
:102A8000992E853619F49064992E08C0863621F463
:102A9000392F3068932E02C01111115097FE07C0D4
:102AA0001C3350F444244394410E27E00BC01830EB
:102AB00038F027E017E005C027E09CE3492E02C06C
:102AC000212F412C560184E0A80EB11CF601608133
:102AD000718182819381042DA3010E945E186C0193
:102AE000F981FC87F0FF02C0F3FF06C091FC06C02D
:102AF00092FE06C000E205C00DE203C00BE201C079
:102B000000E08C858C7019F001115AC29BC297FEAF
:102B100010C04C0CFC85F4FF04C08A81813309F499
:102B20004A94141474F528E0241578F588E0482EAA
:102B30002CC096FC2AC0812F90E08C159D059CF03E
:102B40003CEFC3163FEFD30674F0892D8068982EB2
:102B50000AC0E2E0F0E0EC0FFD1FE10FF11D808103
:102B6000803319F411501111F4CF97FE0EC0442494
:102B70004394410E812F90E0C816D9062CF41C19FD
:102B800004C04424439401C010E097FE06C01C1406
:102B90001D0434F4C601019605C085E090E002C032
:102BA00081E090E001110196112331F0212F30E0F6
:102BB0002F5F3F4F820F931F252D30E08217930721
:102BC00014F4581A01C0512C892D897049F45520EC
:102BD00039F0B70180E290E00E94041A5A94F7CFCE
:102BE000002329F0B701802F90E00E94041A93FC83
:102BF00009C0552039F0B70180E390E00E94041A23
:102C00005A94F7CF97FE4CC04601D7FE02C0812CE4
:102C1000912CC60188199909F301E80FF91FED8776
:102C2000FE879601241931092F87388B012F10E078
:102C30001195019511093FEF8316930629F4B70109
:102C40008EE290E00E94041AC814D9044CF08F85DB
:102C500098898815990524F4ED85FE85818101C048
:102C600080E3F1E08F1A91082D853E852F5F3F4F5D
:102C70002D873E87801691062CF0B70190E00E94C8
:102C8000041AD9CFC814D90441F49A81963320F498
:102C9000953319F43C8534FF81E3B70190E04EC0D1
:102CA0008A81813319F09C859F7E9C87B70190E0D3
:102CB0000E94041A111105C094FC18C085E690E02A
:102CC00017C0B7018EE290E00E94041A1E5F82E0F6
:102CD00001E0080FF301E80FF11D8081B70190E0DA
:102CE0000E94041A802F0113F3CFE6CF85E490E011
:102CF000B7010E94041AD7FC06C0C114D10441F4E4
:102D0000EC85E4FF05C0D194C194D1088DE201C0E7
:102D10008BE2B70190E00E94041A80E32AE0C21619
:102D2000D1042CF08F5FFAE0CF1AD108F7CFB701AA
:102D300090E00E94041AB701C601C0960E94041ACE
:102D400054C1833631F0833779F0833509F056C0AA
:102D500020C0560132E0A30EB11CF60180818983A8
:102D600001E010E0630112C05601F2E0AF0EB11CA9
:102D7000F601C080D18096FE03C0612F70E002C0D2
:102D80006FEF7FEFC6010E947A198C01F92DFF7752
:102D900014C0560122E0A20EB11CF601C080D18001
:102DA00096FE03C0612F70E002C06FEF7FEFC60197
:102DB0000E9452198C01F92DF0689F2EF3FD1AC064
:102DC000852D90E008171907A8F4B70180E290E07C
:102DD0000E94041A5A94F4CFF60197FC859197FE4D
:102DE00081916F01B70190E00E94041A51105A942A
:102DF000015011090115110579F7F7C0843611F05A
:102E0000893661F5560197FE09C024E0A20EB11C77
:102E1000F60160817181828193810AC0F2E0AF0E78
:102E2000B11CF60160817181072E000C880B990B93
:102E3000F92DFF769F2E97FF09C09095809570958C
:102E400061957F4F8F4F9F4FF0689F2E2AE030E0B3
:102E5000A3010E94B81AC82EC6183FC0092D853795
:102E600021F40F7E2AE030E01DC0097F8F3691F0FB
:102E700018F4883559F0C3C0803719F0883711F03D
:102E8000BEC0006104FF09C0046007C094FE08C012
:102E9000066006C028E030E005C020E130E002C056
:102EA00020E132E0560107FF09C084E0A80EB11C02
:102EB000F601608171818281938108C0F2E0AF0EDA
:102EC000B11CF6016081718180E090E0A3010E9455
:102ED000B81AC82EC6180F77902E96FE0BC0092D73
:102EE0000E7FC11650F494FE0AC092FC08C0092D52
:102EF0000E7E05C0DC2C092D03C0DC2C01C0D12EB8
:102F000004FF0DC0FE01EC0DF11D8081803311F432
:102F1000097E09C002FF06C0D394D39404C0802F59
:102F2000867809F0D39403FD11C000FF06C01C2D64
:102F3000D51480F4150D1D190DC0D51458F4B70122
:102F400080E290E00E94041AD394F7CFD51410F4D5
:102F50005D1801C0512C04FF10C0B70180E390E060
:102F60000E94041A02FF17C001FD03C088E790E029
:102F700002C088E590E0B7010CC0802F867859F038
:102F800001FF02C08BE201C080E207FD8DE2B701C4
:102F900090E00E94041AC11638F4B70180E390E073
:102FA0000E94041A1150F7CFCA94F301EC0DF11DE1
:102FB0008081B70190E00E94041AC110F5CF15C0BE
:102FC000F4E0F51560F584E0581A93FE1FC0011176
:102FD00027C02C8523FF2AC008E710E0392D307167
:102FE000932EF8018491811124C0552009F4E4CC7A
:102FF000B70180E290E00E94041A5A94F6CFF701DC
:103000008681978126C08FEF9FEF23C0B70180E2B2
:1030100090E00E94041A5A945110F8CFD8CF512C46
:10302000B701802F90E00E94041AD3CF0CE710E084
:10303000D5CF91108052B70190E00E94041A0F5F23
:103040001F4FCFCF23E0251510F483E0BDCF512CC7
:10305000C0CF6096E2E10C9446182F923F924F92B7
:103060005F926F927F928F929F92AF92BF92CF9218
:10307000DF92EF92FF920F931F93CF93DF93CDB721
:10308000DEB7CA1BDB0BCDBFDEBF09942A883988A7
:1030900048885F846E847D848C849B84AA84B984F0
:1030A000C884DF80EE80FD800C811B81AA81B981FC
:1030B000CE0FD11DCDBFDEBFED010895283008F041
:1030C00027E03327DA01990F311D87FD91600096C3
:1030D0006105710539F432602E5F3D9330E32A9526
:1030E000E1F708959F3F30F080387105610509F0E0
:1030F0003C5F3C5F3D93913008F08068911DDF9309
:10310000CF931F930F93FF92EF92192F987F96956D
:10311000E92F96959695E90FFF27E652FF4F9927DD
:103120003327EE24FF24A701E701059008940794B4
:1031300028F4360FE71EF81E491F511D660F771F32
:10314000881F991F0694A1F70590079428F4E70EAD
:10315000F81E491F561FC11D770F881F991F661F34
:103160000694A1F70590079428F4F80E491F561FFE
:10317000C71FD11D880F991F661F771F0694A1F7DF
:103180000590079420F4490F561FC71FD81F990FA9
:10319000661F771F881F0694A9F7849110951770F2
:1031A00041F0D695C79557954795F794E7941A95AA
:1031B000C1F7E0E8F0E068941590159135916591BC
:1031C000959105907FE27395E118F10A430B560B38
:1031D000C90BD009C0F7E10CF11E431F561FC91FD0
:1031E000D01D7EF4703311F48A95E6CFE894015037
:1031F00030F0080F0AF40027021708F4202F239557
:10320000022F7A3328F079E37D932A95E9F710C0ED
:103210007D932A9589F60694979567953795179526
:103220001794E118F10A430B560BC90BD00998F01B
:1032300023957E9173957A3308F070E37C93201385
:10324000B8F77E9170617D9330F0839571E37D9343
:1032500070E32A95E1F71124EF90FF900F911F91F1
:10326000CF91DF91992787FD9095089591110C9446
:10327000161B803219F089508550C8F708959111B6
:10328000089581548A5108F4805E855A0895FC019E
:103290000590061621F00020D9F7C0010895319756
:1032A000CF010895FC010590615070400110D8F7DE
:1032B000809590958E0F9F1F089540E458E30E94DB
:1032C0009F190895FB01DC018D9101908019011077
:1032D000D9F3990B0895FB01DC014150504048F0AF
:1032E00001900D920020C9F701C01D92415050403D
:1032F000E0F70895FC016150704001900110D8F78B
:10330000809590958E0F9F1F0895FB015191552335
:10331000A9F0BF01DC014D9145174111E1F759F4C6
:10332000CD010190002049F04D9140154111C9F3A4
:10333000FB014111EFCF81E090E001970895FA0180
:10334000A191B081009719F41097E1F0CD01DC0153
:10335000CD010D90002011F4C00113C0FB0121919B
:10336000222319F02015D9F7F3CFFB012191201565
:1033700019F41E92119606C02223C1F70D90002069
:10338000A1F7D001FA01A193B0830895CF93DF9301
:10339000EC012B8120FF33C026FF0AC02F7B2B833B
:1033A0008E819F8101968E839F838A8190E029C0C0
:1033B00022FF0FC0E881F9818081082E000C990B53
:1033C000009719F420622B831AC03196E883F983A1
:1033D0000EC0EA85FB85099597FF09C02B810196F0
:1033E00011F080E201C080E1822B8B8308C02E8126
:1033F0003F812F5F3F4F2E833F83992702C08FEF7E
:103400009FEFDF91CF9108950F931F93CF93DF9399
:10341000FB01238121FD03C08FEF9FEF2CC022FF12
:1034200016C046815781248135814217530744F4E1
:10343000A081B1819D012F5F3F4F208331838C9309
:10344000268137812F5F3F4F2683378314C08B013E
:10345000EC01FB010084F185E02D0995892BE1F653
:10346000D80116968D919C911797019616968D937B
:103470009C931797CE01DF91CF911F910F910895E3
:10348000A0E0B0E0E6E4FAE10C943D18AE014B5F39
:103490005F4FFA0161917191AF0180911439909160
:1034A00015390E94B014E2E00C9456180F931F9344
:1034B000CF93DF93E0911439F0911539238121FFE7
:1034C0001BC08C01D0E0C0E0F80181918F016091B8
:1034D000143970911539DB011896ED91FC9119970B
:1034E000882331F00995892B79F3DFEFCFEFECCF0B
:1034F0008AE00995892B19F08FEF9FEF02C08D2F7D
:103500009C2FDF91CF911F910F910895AEE0B0E015
:10351000ECE8FAE10C943D1885E08C838B899C895A
:1035200089839A83AE01495E5F4F6D897E89CE01A2
:1035300001960E947E132E96E2E00C945618FB0131
:10354000238120FF12C026FD10C08F3F3FEF93075D
:1035500061F082832F7D206423832681378121506F
:10356000310926833783992708958FEF9FEF0895B8
:10357000FA01AA27283051F1203181F1E8946F93A4
:103580006E7F6E5F7F4F8F4F9F4FAF4FB1E03ED04A
:10359000B4E03CD0670F781F891F9A1FA11D680FE8
:1035A000791F8A1F911DA11D6A0F711D811D911D1B
:1035B000A11D20D009F468943F912AE0269F112490
:1035C0003019305D3193DEF6CF010895462F4770F4
:1035D000405D4193B3E00FD0C9F7F6CF462F4F704F
:1035E000405D4A3318F0495D31FD4052419302D0AD
:1035F000A9F7EACFB4E0A695979587957795679553
:10360000BA95C9F700976105710508959B01AC0152
:103610000A2E06945795479537952795BA95C9F779
:10362000620F731F841F951FA01D08959927882777
:063630000895F894FFCF9D
:10363600496E69636961206E6F204164643A202592
:10364600782C205374617475732025640D005068BE
:103656006967683A2025782C205374617475732045
:1036660025640D00506C6F773A2025782C20537412
:10367600617475732025640D0050726573696F6EF1
:1036860020656E205241573A2025640D004361752E
:1036960064616C252E32660D005469656D706F3A53
:1036A6002025640D00534D004545002573005653F3
:1036B600002C00256400200056532C25640A004384
:1036C6004E3200256600434E00434E3100434C0007
:1036D6004D530D00566F6C74616A652053656E73A9
:1036E6006F72313A2025660D00566F6C74616A65FB
:1036F6002053656E736F72323A2025660D00525460
:103706000D005248252E32665251252E32665256EB
:103716004F252E32660A005250252E3266524E250D
:103726002E326652564F252E32660A005250252EEC
:10373600326652564F252E32660A005250252E32D8
:10374600665251252E326652564F252E32660A0093
:10375600496E636F727265637420436F6D6D616E3F
:0D37660064004D6520447565726D6F0D00A7
:10377300000000020000000098010000000020008B
:103783000000000000000000000000000000000036
:103793000000000000000000000000000000000026
:1037A3000000000000000000000000000000000016
:00000001FF
