:100000000C94E4000C9401010C9401010C94010186
:100010000C9401010C9401010C9401010C94010158
:100020000C94E4040C9401010C9401010C94010162
:100030000C9401010C94F6050C9401010C9401013F
:100040000C9401010C94D1010C9401010C94010158
:100050000C9401010C9401010C9401010C94010118
:100060000C940B050C9401010C9401010C940101FA
:100070000C9401010C9401016E616E00696E6600C2
:1000800000407A10F35A00A0724E18090010A5D44F
:10009000E80000E87648170000E40B54020000CAAC
:1000A0009A3B000000E1F5050000809698000000F2
:1000B00040420F000000A086010000001027000051
:1000C0000000E803000000006400000000000A00D7
:1000D000000000000100000000002C76D888DC67DA
:1000E0004F0823DFC1DFAE59E1B1B796E5E3E45332
:1000F000C63AE651997696E8E6C28426EB898C9B4F
:1001000062ED407C6FFCEFBC9C9F40F2BAA56FA5EE
:10011000F490055A2AF75C936B6CF9676DC11BFC70
:10012000E0E40D47FEF520E6B500D0ED902E03008B
:10013000943577050080841E080000204E0A0000D8
:1001400000C80C333333330F986E12831141EF8D97
:100150002114893BE65516CFFEE6DB18D1844B38D7
:100160001BF77C1D901DA4BBE424203284725E2208
:100170008100C9F124ECA1E53D276364696E6F70CD
:10018000737578585B65666745464700616E006E1B
:1001900066696E69747900CDCCCC3D0AD7233C17D3
:1001A000B7D13877CC2B329595E6241FB14F0A0092
:1001B0000020410000C84200401C4620BCBE4CCA82
:1001C0001B0E5AAEC59D740011241FBECFEFCDBFCC
:1001D000DFE3DEBF18E3A0E0B8E3E2EDF1E302C045
:1001E00005900D92A034B107D9F729E3A0E4B8E354
:1001F00001C01D92A031B207E1F70E94DB0A0C9406
:1002000061180C940000E0E0F4E080818B7F808333
:10021000808182608083A0E2B4E054968C915497F0
:10022000887F54968C93549754968C9154978460FD
:1002300054968C93549754968C915497877F5496E8
:100240008C9354978589887F858B85898460858B7D
:100250008589877F858B93E011969C9311975096A3
:100260008C915097877F50968C93509714969C93BF
:10027000149751968C915197877F51968C935197F3
:100280008689887F868B86898460868B8689877F2E
:10029000868B8C9180628C9355968C915597877F35
:1002A00055968C93559714968C9114978F7D149630
:1002B0008C938081886080838389877F838B84810E
:1002C000877F8483089580E008C0E82FF0E0E05F36
:1002D000FB4F9081986090838F5F8830B0F380E00F
:1002E00008C0E82FF0E0E05DFB4F908198609083BC
:1002F0008F5F8630B0F380E008C0E82FF0E0E05B6D
:10030000FB4F9081986090838F5F8430B0F30895A5
:1003100098ED94BFA0E0B1E01C92E0E5F0E08081B0
:10032000897F84608083F894808181608083789461
:10033000889580818E7F808394BF80EB8C93089515
:1003400088ED84BF1092610084BF81E080936000DB
:1003500008959091040895FFFCCF809302080895BA
:100360000E94A90180E090E008958091040888230C
:10037000E4F7809100080895E0E0F8E08DE690E071
:100380008087918780EC868380E88093050881E0F0
:100390008093E20580E098E380930C3990930D39C7
:1003A00008951F920F920FB60F9211242F933F932F
:1003B0004F935F936F937F938F939F93AF93BF936D
:1003C000EF93FF930E94B50180930739882381F052
:1003D0008D3071F090917038E92FF0E0E25FF74CCA
:1003E00080839F5F90937038933310F01092703831
:1003F0008D3009F04FC0E0917038F0E0E25FF74CCB
:100400008083109270388091D538811111C09091FD
:10041000A33891110DC090917138911109C042E338
:1004200050E06EE078E385ED98E30E94B31625C0B6
:10043000882389F09091A33891110DC09091713863
:10044000911109C042E350E06EE078E383EA98E35B
:100450000E94B31612C0882381F08091A3388823AC
:1004600061F080917138811108C042E350E06EE084
:1004700078E381E798E30E94B31682E3EEE0F8E3C5
:10048000DF011D928A95E9F781E090E080936E3854
:1004900090936F38FF91EF91BF91AF919F918F91A2
:1004A0007F916F915F914F913F912F910F900FBE70
:1004B0000F901F901895FC0160838DE984BF83E045
:1004C000809300100895FC0180810895E0E0F6E03B
:1004D00081E0818386E08283089581E180930A062A
:1004E0008091050680FFFCCFE0E0F6E081E08583A7
:1004F00080899189A289B38908958F929F92AF9242
:10050000BF92CF92DF92EF92FF92CF93DF9386302C
:100510009105C9F08930910519F0059771F407C06C
:10052000E0E0F6E081E0808389E0848706C0E0E0D7
:10053000F6E081E0808385E08487C0E0D0E0C12CD4
:10054000D12C760137C0E0E0F6E081E0808386E0E0
:100550008487F3CF0E946D02BC0180E090E00E948E
:10056000C60C20E030E040E250E40E94590D20E04B
:1005700030E040E859E30E94590D20E030E040E0CF
:100580005FE30E94590D4B015C0120E030E040E048
:100590005FE3C701B6010E94590D9B01AC01C50183
:1005A000B4010E94E80B6B017C01219683E393E088
:1005B0000197F1F7C431D1056CF2E0E0F6E08081FB
:1005C0008E7F8083C701B601DF91CF91FF90EF90BE
:1005D000DF90CF90BF90AF909F908F90089580E074
:1005E0009091A508907C29F49091A5089C7019F42D
:1005F00003C081E001C082E0882391F30895EF9267
:10060000FF920F931F93CF93DF937C018FEF9FE0B7
:100610000197F1F700C00000E0EAF8E0168293E0ED
:1006200093831782108688E084838581806C85831C
:1006300081E0858381E58783948391E0E916F10465
:10064000A9F49091A5088091A8081F929F931F92EA
:100650008F9386EC90EB9F938F930E9488170F9057
:100660000F900F900F900F900F9004C08AED8A9515
:10067000F1F700C0E0EAF8E088E084838581806CCF
:10068000858391E0E916F10429F089E991E0019769
:10069000F1F700C081E58093A7080E94EF02813046
:1006A00009F044C08091A808082F10E091E0E916F5
:1006B000F10499F49091A5081F929F931F928F9334
:1006C00084EE90EB9F938F930E9488170F900F906A
:1006D0000F900F900F900F9005C089E991E001975E
:1006E000F1F700C0E0EAF8E083E084838085C82F5A
:1006F000D0E091E0E916F10499F49091A5081F92D9
:100700009F931F928F938AEF90EB9F938F930E94FA
:1007100088170F900F900F900F900F900F900AC0B6
:1007200089E991E00197F1F700C004C0C0E0D0E092
:1007300000E010E0E0EAF8E083818E7F8383102FF1
:100740000027C02BD12BEA94EF2861F4DF93CF93DD
:100750008FE091EB9F938F930E9488170F900F90DB
:100760000F900F90CE01DF91CF911F910F91FF90CD
:10077000EF900895CF92DF92EF92FF920F931F9325
:10078000CF93DF93CDB7DEB72C97CDBFDEBF6B0124
:100790007C0100E010E026C0C80188519B4E0E94F9
:1007A0006302E1E0F0E0EC0FFD1FE00FF11F80833A
:1007B000C80184519B4E0E946302E5E0F0E0EC0F1B
:1007C000FD1FE00FF11F8083C80180519B4E0E94E6
:1007D0006302E9E0F0E0EC0FFD1FE00FF11F808302
:1007E0000F5F1F4F04301105BCF269817A818B8144
:1007F0009C81A70196010E94540D8823ACF42D81A1
:100800003E814F815885C701B6010E94590D298547
:100810003A854B855C850E94E70B23E333E343E293
:1008200051E40E94590D03C060E070E0CB012C96AA
:10083000CDBFDEBFDF91CF911F910F91FF90EF9061
:10084000DF90CF900895CF92DF92EF92FF920F93B7
:100850001F93CF93DF93CDB7DEB72C97CDBFDEBF0D
:100860006B017C0100E010E026C0C8018C509B4E5B
:100870000E946302E1E0F0E0EC0FFD1FE00FF11FCA
:100880008083C80188509B4E0E946302E5E0F0E03F
:10089000EC0FFD1FE00FF11F8083C80184509B4EB9
:1008A0000E946302E9E0F0E0EC0FFD1FE00FF11F92
:1008B00080830F5F1F4F04301105BCF269817A817C
:1008C0008B819C81A70196010E94540D8823ACF472
:1008D0002D813E814F815885C701B6010E94590D77
:1008E00029853A854B855C850E94E70B23E333E33A
:1008F00043E251E40E94590D03C060E070E0CB0177
:100900002C96CDBFDEBFDF91CF911F910F91FF904D
:10091000EF90DF90CF9008950F931F93CF93DF93C5
:100920008C01EB0161307105D1F4083E83E01807BA
:10093000D4F0B801685E7340072E000C880B990B49
:100940000E94C80C23E333E343E251E40E94590DB3
:1009500020E030E04AEF54E40E94540C07C060E00D
:1009600070E0CB0103C060E070E0CB012297B9F4E6
:10097000083E83E0180784F0B801685E7340072ED4
:10098000000C880B990B0E94C80C2CEE31E545E851
:1009900052E40E94540C03C060E070E0CB01DF9190
:1009A000CF911F910F910895E0E0FAE080E090E48C
:1009B00086A397A381E0808382870895E0E0FAE030
:1009C00080818E7F808308951F920F920FB60F92C1
:1009D00011248F939F938091683890916938019684
:1009E000809368389093693880916A3890916B3819
:1009F000019680936A3890936B3881E080930B0A5C
:100A000080916C3890916D389F918F910F900FBEAF
:100A10000F901F9018951F920F920FB60F921124EE
:100A2000CF92DF92EF92FF922F933F934F935F937A
:100A30006F937F938F939F93AF93BF93EF93FF93A6
:100A40008091490480FF06C0E0E4F4E08185817074
:100A500081879EC08091623890916338019680931F
:100A60006238909363380E94DE04A89586EE94E184
:100A70000E946302823069F0833029F0813031F4C2
:100A80002AE030E008C028EE33E005C021E030E085
:100A900002C024E630E080916A3890916B381816D5
:100AA00019063CF480916A3890916B3881329E44EB
:100AB0004CF010925E3810925F38109260381092AD
:100AC000613837C08091623890916338289FB001B7
:100AD000299F700D389F700D112480E090E00E94D6
:100AE000C60C6B017C0160916A3870916B38072EDF
:100AF000000C880B990B0E94C80C20E030E040E00D
:100B00005FE30E94590D9B01AC01C701B6010E9431
:100B1000540C60935E3870935F3880936038909384
:100B2000613810926A3810926B38109262381092C5
:100B30006338A895809164389091653801968093C8
:100B400064389093653880916C3890916D38019736
:100B5000C1F4809161388F93809160388F93809138
:100B60005F388F9380915E388F9383E291EB9F93F0
:100B70008F930E9488170F900F900F900F900F90F7
:100B80000F90E9E4F4E08081886080830E94D404BF
:100B9000FF91EF91BF91AF919F918F917F916F9155
:100BA0005F914F913F912F91FF90EF90DF90CF9009
:100BB0000F900FBE0F901F901895E0E8FAE010829A
:100BC00080E090E884879587118281E0858308958D
:100BD000E0E8FAE0128613868081816080830895C0
:100BE000E0E8FAE080818E7F808308951F920F9263
:100BF0000FB60F9211242F933F934F935F936F93F0
:100C00007F938F939F93AF93BF93EF93FF938091C5
:100C10005C3890915D38019680935C3890935D3894
:100C200081E08093860AA89580916C3890916D3808
:100C3000019781F480915C3890915D389F938F93F8
:100C40008FE291EB9F938F930E9488170F900F90E4
:100C50000F900F90FF91EF91BF91AF919F918F9166
:100C60007F916F915F914F913F912F910F900FBEA8
:100C70000F901F901895EF92FF920F931F93CF93B1
:100C8000DF93CDB7DEB72C97CDBFDEBF8C016BE312
:100C900071EB0E94CD16892B09F44AC01092000610
:100CA0001092000A1092800A10924001A8950E94AA
:100CB000F00510925638109257381092583810920A
:100CC000593810925238109253381092543810926A
:100CD000553810924E3810924F381092503810926A
:100CE000513810924A3810924B3810924C3810926A
:100CF0004D3810924638109247381092483810926A
:100D0000493886E696E00197F1F700000E948801D5
:100D1000E6E6F6E03197F1F7000010925C381092A9
:100D20005D3810925A3810925B380E94E80539C439
:100D30006EE371EBC8010E94CD16892B41F41AC0F5
:100D400011928DE984BF83E08093001002C0E0E03F
:100D5000F4E1E83E24E1F2079CF31F930F9381E452
:100D600091EB9F938F930E9488170F900F900F9095
:100D70000F9017C4F80180818735D9F481818335BC
:100D8000C1F4628184EE94E10E945B02F801638108
:100D900085EE94E10E945B021F930F9381E491EB37
:100DA0009F938F930E9488170F900F900F900F9032
:100DB000F8C364E471EBC8010E94CD16892BC9F118
:100DC00067E471EBC8010E94A516009709F524C0DD
:100DD000F1E0EF16F10491F42CE638E33F932F9302
:100DE00029E431EB3F932F939F938F930E94CE176B
:100DF0000F900F900F900F900F900F9067E471EB92
:100E000080E090E00E94A5162FEFE21AF20A02C0DD
:100E1000E12CF12C0097E1F61F930F938CE491EBFA
:100E20009F938F930E9488170F900F900F900F90B1
:100E3000B8C360E571EBC8010E94CD16892B09F497
:100E400087C067E471EBC8010E94A5160097C1F541
:100E50003BC00130110521F002301105A9F027C077
:100E60009E012B5F3F4F3F932F9324E531EB3F9340
:100E70002F939F938F930E94CE170F900F900F90F8
:100E80000F900F900F9013C09E012F5F3F4F3F9325
:100E90002F9324E531EB3F932F939F938F930E94E1
:100EA000CE170F900F900F900F900F900F9067E458
:100EB00071EB80E090E00E94A5160F5F1F4F02C00B
:100EC00000E010E0009729F669817A818B819C818E
:100ED0002D813E814F8158850E94540C69877A8705
:100EE0008B879C87A89500E010E026C0E9E0F0E041
:100EF000EC0FFD1FE00FF11F6081C80188519B4E70
:100F00000E945B02E5E0F0E0EC0FFD1FE00FF11F37
:100F10006081C80184519B4E0E945B02E1E0F0E0D9
:100F2000EC0FFD1FE00FF11F6081C80180519B4E47
:100F30000E945B020F5F1F4F04301105BCF287E572
:100F400091EB9F938F930E9488170F900F9029C366
:100F50006BE571EBC8010E94CD16892B09F487C09F
:100F600067E471EBC8010E94A5160097C1F53BC06C
:100F70000130110521F002301105A9F027C09E01B2
:100F80002B5F3F4F3F932F9324E531EB3F932F93FC
:100F90009F938F930E94CE170F900F900F900F90FA
:100FA0000F900F9013C09E012F5F3F4F3F932F93E1
:100FB00024E531EB3F932F939F938F930E94CE179D
:100FC0000F900F900F900F900F900F9067E471EBC0
:100FD00080E090E00E94A5160F5F1F4F02C000E066
:100FE00010E0009729F669817A818B819C812D819F
:100FF0003E814F8158850E94540C69877A878B8780
:101000009C87A89500E010E026C0E9E0F0E0EC0F36
:10101000FD1FE00FF11F6081C8018C509B4E0E94A4
:101020005B02E5E0F0E0EC0FFD1FE00FF11F6081D7
:10103000C80188509B4E0E945B02E1E0F0E0EC0F9B
:10104000FD1FE00FF11F6081C80184509B4E0E947C
:101050005B020F5F1F4F04301105BCF287E591EB77
:101060009F938F930E9488170F900F909AC26FE5FD
:1010700071EBC8010E94AA16892B09F0D9C184EE30
:1010800094E10E946302182F8093083985EE94E161
:101090000E94630280930939E0E2F4E09481906257
:1010A0009483103511F0803579F4A89580E090E0B4
:1010B000DC0104C0A8950196A11DB11D8115E0E4D5
:1010C0009E07A105B105B0F3193459F020F411348D
:1010D00009F49DC0A2C0103509F45BC0193649F16E
:1010E0009CC000E014E0F80184818860848386E677
:1010F00096E00197F1F70000A89580916C389091E7
:101100006D380E94FF0262E070E00E948C046093E0
:101110004E3870934F388093503890935138F8017F
:101120008481877F848386E696E00197F1F700004B
:1011300074C000E014E0F8018481806884838481B5
:10114000886084838FEF9FE10197F1F700C0000072
:10115000A89580916C3890916D380E94FF0261E0F3
:1011600070E00E948C0460934E3870934F388093E7
:10117000503890935138F80184818F77848384812B
:10118000877F84838FEF9FE10197F1F700C0000014
:1011900044C0A89589E090E00E947D02262F372F59
:1011A000462F572F682F792F409356385093573832
:1011B000609358387093593840916C3850916D381D
:1011C0004130510581F49F938F933F932F9383E692
:1011D00091EB9F938F930E9488170F900F900F9021
:1011E0000F900F900F906091563870915738809102
:1011F0005838909159380E94230460934E38709368
:101200004F388093503890935138A89506C081E0AC
:1012100090E0809344389093453880910939803527
:1012200009F46CC030F4813409F4E4C0893439F035
:10123000E7C0893661F1803709F49EC0E1C000E063
:1012400014E0F80184818860848386E696E0019743
:10125000F1F70000A89580916C3890916D380E944C
:10126000FF0262E070E00E948C0460934A38709341
:101270004B3880934C3890934D38F8018481877FA8
:10128000848386E696E00197F1F70000B9C0689480
:10129000EE24E6F8FF24F2F8F70184818460848369
:1012A00000E014E0F8018481886084838FEF9FE17F
:1012B0000197F1F700C00000A89580916C389091DB
:1012C0006D380E94FF0261E070E00E948C04609320
:1012D0004A3870934B3880934C3890934D38F701CF
:1012E00084818B7F8483F8018481877F84838FEF5F
:1012F0009FE10197F1F700C0000082C0A89585E04A
:1013000090E00E947D02262F372F462F572F682FFF
:10131000792F4093523850935338609354387093D8
:10132000553840916C3850916D384130510581F4F9
:101330009F938F933F932F9388E791EB9F938F9386
:101340000E9488170F900F900F900F900F900F90A2
:10135000609152387091533880915438909155383B
:101360000E94BA0360934A3870934B3880934C388C
:1013700090934D38A89544C0A89585E090E00E94D0
:101380007D02262F372F462F572F682F792F409316
:101390005238509353386093543870935538409175
:1013A0006C3850916D384130510581F49F938F9383
:1013B0003F932F9388E791EB9F938F930E94881719
:1013C0000F900F900F900F900F900F9060915238E8
:1013D0007091533880915438909155380E94BA03D7
:1013E00060934A3870934B3880934C3890934D38C3
:1013F000A89506C081E090E08093423890934338EE
:10140000E0E2F4E084818F7D848386E090E00E94B6
:101410007D0220E030E040EA50E40E94590D6093E4
:101420004638709347388093483890934938B9C00C
:101430006DE871EBC8010E94AA16892B09F0B1C0B2
:101440008091443890914538892B09F060C0809193
:10145000423890914338892B09F059C0809149381E
:101460008F93809148388F93809147388F938091E4
:1014700046388F9380914D388F9380914C388F935D
:1014800080914B388F9380914A388F938091513857
:101490008F93809150388F9380914F388F938091A4
:1014A0004E388F9381E991EB9F938F930E94881719
:1014B000E0E0FAE080818E7F8083109256381092AF
:1014C000573810925838109259381092523810925A
:1014D0005338109254381092553810924E3810925A
:1014E0004F38109250381092513810924A3810925A
:1014F0004B3810924C3810924D381092463810925A
:1015000047381092483810924938CDBFDEBF8091DD
:10151000443890914538892B09F03FC0809142387A
:1015200090914338892BC9F1809149388F938091EC
:1015300048388F93809147388F93809146388F93A6
:10154000809151388F93809150388F9380914F388C
:101550008F9380914E388F9386EA91EB9F938F9370
:101560000E948817109256381092573810925838A7
:101570001092593810924E3810924F3810925038BD
:1015800010925138109246381092473810924838CD
:1015900010924938CDBFDEBF04C085EB91EB0E94AD
:1015A0009E172C96CDBFDEBFDF91CF911F910F917B
:1015B000FF90EF9008950E94A0010E9463010E9495
:1015C00003010E946602E0E0F4E08081806880838D
:1015D0008789877F878B84818F778483E0E4F4E039
:1015E0008081846080838289877F828B84818B7FE6
:1015F000848380818E7F80838089877F808B8089B0
:101600008160808B88ED84BF8BE08093000182E352
:10161000EEE0F8E3DF011D928A95E9F70E94BC0134
:1016200083E393E00197F1F70E94DD050E94F00546
:10163000A6E6B6E01197F1F700000E94880186E661
:1016400096E00197F1F7000010925A3810925B383B
:1016500010926638109267380E94E805789480915D
:101660005A3890915B38892BB9F40E94E8058FE5D0
:1016700091EB0E943B068DE891EB0E943B0682E3D2
:10168000EEE0F8E3DF011D928A95E9F781E090E052
:1016900080935A3890935B3880915C3890915D3894
:1016A0004E9778F1109200061092000A1092800A6C
:1016B00010924001A89580916C3890916D380197F7
:1016C00041F487EC91EB9F938F930E9488170F90C2
:1016D0000F900E94F00586E696E00197F1F7000072
:1016E0000E948801A6E6B6E01197F1F7000010927B
:1016F0005A3810925B3810925C3810925D380E9414
:10170000E80580916E3890916F38019709F057C0C5
:1017100085ED98E30E943B068091A338882341F130
:1017200090917138992321F1C2E3E5EDF8E3DF01EF
:101730008C2F1D928A95E9F742E350E063EA78E343
:10174000CF010E94B316E3EAF8E3DF018C2F1D926C
:101750008A95E9F742E350E061E778E3CF010E9420
:10176000B316E1E7F8E3DF011D92CA95E9F727C058
:101770008823D1F080917138811116C0C2E3E5ED64
:10178000F8E3DF018C2F1D928A95E9F742E350E0E0
:1017900063EA78E3CF010E94B316E3EAF8E3DF01DE
:1017A0001D92CA95E9F70BC082E3E5EDF8E3DF018E
:1017B0001D928A95E9F710926E3810926F38109248
:1017C00000061092000A10924001A89548CF505888
:1017D000BB27AA270E94FF0B0C941A0D0E940C0D28
:1017E00038F00E94130D20F039F49F3F19F426F4CD
:1017F0000C94090D0EF4E095E7FB0C94030DE92F12
:101800000E942B0D58F3BA176207730784079507D8
:1018100020F079F4A6F50C944D0D0EF4E0950B2E06
:10182000BA2FA02D0B01B90190010C01CA01A00132
:101830001124FF27591B99F0593F50F4503E68F18D
:101840001A16F040A22F232F342F4427585FF3CFCE
:10185000469537952795A795F0405395C9F77EF49F
:101860001F16BA0B620B730B840BBAF09150A1F0E8
:10187000FF0FBB1F661F771F881FC2F70EC0BA0F6E
:10188000621F731F841F48F4879577956795B795F6
:10189000F7959E3F08F0B0CF9395880F08F09927F1
:1018A000EE0F9795879508950E94680C0C941A0D79
:1018B0000E94130D58F00E940C0D40F029F45F3F78
:1018C00029F00C94030D51110C944E0D0C94090D3C
:1018D0000E942B0D68F39923B1F3552391F3951BC7
:1018E000550BBB27AA2762177307840738F09F5F41
:1018F0005F4F220F331F441FAA1FA9F335D00E2EAE
:101900003AF0E0E832D091505040E695001CCAF71A
:101910002BD0FE2F29D0660F771F881FBB1F2617DD
:1019200037074807AB07B0E809F0BB0B802DBF01B4
:10193000FF2793585F4F3AF09E3F510578F00C9483
:10194000030D0C944E0D5F3FE4F3983ED4F386955F
:1019500077956795B795F7959F5FC9F7880F911DA4
:101960009695879597F90895E1E0660F771F881F90
:10197000BB1F621773078407BA0720F0621B730B43
:10198000840BBA0BEE1F88F7E0950895E89409C020
:1019900097FB3EF490958095709561957F4F8F4FA2
:1019A0009F4F9923A9F0F92F96E9BB279395F695B8
:1019B000879577956795B795F111F8CFFAF4BB0F36
:1019C00011F460FF1BC06F5F7F4F8F4F9F4F16C09A
:1019D000882311F096E911C0772321F09EE8872F24
:1019E000762F05C0662371F096E8862F70E060E0E0
:1019F0002AF09A95660F771F881FDAF7880F969559
:101A0000879597F9089597F99F6780E870E060E0FF
:101A100008959FEF80EC089500240A941616170687
:101A200018060906089500240A94121613061406CF
:101A300005060895092E0394000C11F4882352F032
:101A4000BB0F40F4BF2B11F460FF04C06F5F7F4FEA
:101A50008F4F9F4F089557FD9058440F551F59F0D1
:101A60005F3F71F04795880F97FB991F61F09F3F8B
:101A700079F087950895121613061406551FF2CFB4
:101A80004695F1DF08C0161617061806991FF1CF04
:101A900086957105610508940895E894BB2766272B
:101AA0007727CB0197F908950E94C60D08F48FEFB0
:101AB00008950E946C0D0C941A0D0E940C0D38F0C4
:101AC0000E94130D20F0952311F00C94030D0C943B
:101AD000090D11240C944E0D0E942B0D70F3959F4F
:101AE000C1F3950F50E0551F629FF001729FBB2715
:101AF000F00DB11D639FAA27F00DB11DAA1F649FB1
:101B00006627B00DA11D661F829F2227B00DA11D63
:101B1000621F739FB00DA11D621F839FA00D611DE9
:101B2000221F749F3327A00D611D231F849F600D0A
:101B3000211D822F762F6A2F11249F5750409AF033
:101B4000F1F088234AF0EE0FFF1FBB1F661F771FBF
:101B5000881F91505040A9F79E3F510580F00C948A
:101B6000030D0C944E0D5F3FE4F3983ED4F386953D
:101B700077956795B795F795E7959F5FC1F7FE2B2A
:101B8000880F911D9695879597F90895990F0008EC
:101B9000550FAA0BE0E8FEEF16161706E807F9073F
:101BA000C0F012161306E407F50798F0621B730BDA
:101BB000840B950B39F40A2661F0232B242B252B5B
:101BC00021F408950A2609F4A140A6958FEF811DFE
:101BD000811D089520FD09C0FC0123FD05C022FFE1
:101BE00002C07383628351834083089544FD17C00C
:101BF00046FD17C0AB01BC01DA01FB01AA0FBB1FF8
:101C0000EE1FFF1F1094D1F74A0F5B1F6E1F7F1F3F
:101C1000CB01BA01660F771F881F991F09C033E0F7
:101C200001C034E0660F771F881F991F3150D1F72C
:101C3000620F711D811D911D08950F931F93CF9306
:101C4000DF938C01C8010E940E17EC0197FD08C0BC
:101C50000E947E16892BB1F7B801CE010E94E717CA
:101C6000CE01DF91CF911F910F910895A0E0B0E0D8
:101C7000ECE3FEE00C947B157C018B016A01D22F12
:101C80000E940E179C0133272B32310521F02D3293
:101C9000310559F4D0680150110911F480E06BC08E
:101CA000C7010E940E1797FDF9CFCD2FCD7F2D2FA5
:101CB000207319F5803309F5580181E0A81AB1089D
:101CC00009F445C0C7010E940E1797FD40C09C0152
:101CD0002F7D33272835310551F4C2640250110994
:101CE000B1F1C7010E940E1797FF07C030C0D6FFA1
:101CF00002C0C26001C0C2618501812C912C5401D7
:101D000020ED280F283080F0C4FF04C0B7010E94E6
:101D1000E7171AC02A3040F0C6FFF8CF2F7D3FEEFC
:101D2000320F363098F727504C2FC501B4010E946E
:101D3000F60D4B015C01C2600150110959F0C70159
:101D40000E940E1797FFDCCFC1FD04C0A7CF812CE6
:101D5000912C5401C7FF08C0B094A0949094809433
:101D6000811C911CA11CB11C2C2FB501A401C60122
:101D70000E94EA0D81E0CDB7DEB7ECE00C9494153B
:101D8000A0E2B0E0E6ECFEE00C9477155C014B01BC
:101D90007A018E010F5F1F4F680180E2F8011192F6
:101DA0008A95E9F7F501538040E050E0612C90E01E
:101DB000712CA1E0B0E0F90153FC859153FE8191B3
:101DC0008F01482E9F01811103C080E090E096C0F2
:101DD0008E3519F44115510551F1672D70E06417E6
:101DE00075073CF48D3561F18D3219F4992311F1A9
:101DF00003C0992309F46DC0842D86958695869538
:101E0000F601E80FF11D842D87708D0102C0000FCF
:101E1000111F8A95E2F7C8019081892B8083641491
:101E200059F0461410F44394E7CF4A94E5CF772451
:101E3000739403C091E001C090E04F5F5F4FBBCF50
:101E4000992319F08E8180628E83711003C07724EC
:101E5000739419C0F6019E012F5D3F4F80818095DC
:101E600081932E173F07D1F7F2CFE114F10431F03F
:101E7000F7018083B7016F5F7F4F7B0171E0871AA5
:101E80009108712CF9F0C5010E940E1797FD18C03A
:101E9000FC01FF2723E0F595E7952A95E1F7EC0D86
:101EA000FD1D208130E0AC014770552702C03595FB
:101EB00027954A95E2F720FDD8CFB5010E94E71794
:101EC000711083CFE114F10411F0F7011082C80101
:101ED00015C0682F669566956695F601E60FF11DAB
:101EE000682F67708D0102C0000F111F6A95E2F71D
:101EF000B8017081672B6083682E9FCFA096E0E1C8
:101F00000C9490152F923F924F925F926F927F9216
:101F10009F92AF92BF92CF92DF92EF92FF920F9378
:101F20001F93CF93DF936C018B011A010E940E1750
:101F3000EC0199278B32910529F08D9781F430E8D7
:101F4000932E01C0912C0150110911F480E00CC1B5
:101F5000C6010E940E17EC0197FF02C0F7CF912C2B
:101F6000CE010E9487168936910531F08E36910593
:101F700099F5CCE8D1E002C0CFE8D1E02196FE018E
:101F80003197B490BB20C9F00150110991F0C601FE
:101F90000E940E177C0197FD0CC00E94871699279E
:101FA000EB2DF0E08E179F0749F3B601C7010E94A1
:101FB000E717C259D14051F603C0CF58D14029F09C
:101FC00080E090E0A0E8BFE704C080E090E0A0ECF3
:101FD000BFE7BC01CD01B8C0412C512C3201E12C2E
:101FE000F12C2C2F20532A3010F5E92DE260BE2E63
:101FF000892D887092FE06C0811120C0FFEFEF1A74
:10200000FF0A1CC0882319F081E0E81AF10840E2B9
:10201000C301B2010E94F60D2B013C0168397949D8
:102020008949994158F0F92DF660BF2E07C02E3F1F
:1020300089F493FC0FC0292D2860B22E015011099C
:1020400041F0C6010E940E17EC019B2C97FFC9CFEF
:1020500001C09B2C91FE7ACFCE018F7D99278534CC
:10206000910509F042C0580181E0A81AB10809F4AD
:102070006DCFC6010E940E17EC0197FD67CF99271F
:102080008B32910529F08D9769F4E92DE0619E2E40
:102090005801F2E0AF1AB10809F458CFC6010E9406
:1020A0000E17EC01CE01C0970A9708F04FCF8501BB
:1020B000A12CB12CB501BB0C880B990B2C2F2053F4
:1020C00040E20E94F60D5B010150110939F0C60192
:1020D0000E940E17EC01C0970A9760F394FE03C0AC
:1020E000B194A194B108EA0CFB1C012B31F0D7FD8F
:1020F00004C0B601CE010E94E717C301B2010E94DD
:10210000C60CF7FE06C0F194E194F108CBEAD1E0E9
:1021100002C0C3ECD1E06E0128E1C21AD10800E28E
:1021200010E0E016F10650F0FE0125913591459141
:1021300054910E94590DE01AF10AF3CF2497169595
:102140000795CC16DD0669F797FE05C0DC01CB01CB
:10215000B058BC01CD012114310429F0F101608394
:1021600071838283938381E0DF91CF911F910F91DF
:10217000FF90EF90DF90CF90BF90AF909F907F90B7
:102180006F905F904F903F902F900895A0E0B0E047
:10219000ECECF0E10C9479155C01EB014A01FC01D7
:1021A00016821782612CF5010381FE0103FD8591E2
:1021B00003FF8191182FEF01882309F40FC190E0EC
:1021C0000E947E16892B21F0C5010E941D0EEBCFC7
:1021D000153241F4FE0103FD159103FF1191EF014A
:1021E000153281F4C5010E940E1797FDF5C0412FED
:1021F00050E09C01332724173507A9F2B5010E944E
:10220000E717ECC01A3241F403FD159103FF119159
:10221000EF017724739401C0712CE12CF12C20ED97
:10222000210F2A3088F4F72DF2607F2EB70180E06D
:1022300090E040E20E94F60D7B01FE0103FD159146
:1022400003FF1191EF01EBCF71FE04C0E114F10423
:1022500021F4C4C0EE24EA94FE2C183619F01C3682
:1022600061F014C0FE0103FD159103FF1191EF0110
:10227000183661F4872D8860782E972D9460792E1A
:10228000FE0103FD159103FF1191EF01112309F4E4
:10229000A5C0612F70E08AE791E00E948F16892B1C
:1022A00009F49CC070FC07C0F401C080D180C40157
:1022B00002964C0102C0C12CD12C1E3651F4F501FE
:1022C0004681578160E070E0272DC6010E94EA0D2B
:1022D0006ACF1336B9F471FC03C0EE24E394F12CF9
:1022E000C5010E940E1797FD77C0C114D10429F0D3
:1022F000F6018083C60101966C0191E0E91AF108AC
:1023000079F766C01B3559F49E01A601B701C501D6
:102310000E94C00EEC01892B09F05AC054C0C501BF
:102320000E941D0E97FD58C01F36E1F140F414368F
:10233000A9F11936D1F1183509F03EC02BC0133779
:10234000A9F018F4103731F137C0153739F11837C3
:1023500009F132C0C114D10429F0F6010083C6018D
:1023600001966C0191E0E91AF10871F0C5010E9433
:102370000E178C0197FD08C00E947E16892B51F321
:10238000B501C8010E94E717C114D10409F1F60193
:1023900010821EC0F72DF0647F2E07C0872D80624B
:1023A000782E03C0972D9061792E272DA601B701B5
:1023B000C5010E94360E05C0A601B701C5010E94E5
:1023C000820F811105C0F5018381807329F406C055
:1023D00070FCE9CE6394E7CE662019F0862D90E07C
:1023E00002C08FEF9FEFCDB7DEB7EEE00C949215F1
:1023F000A0E1B0E0EEEFF1E10C9475157C011B015A
:102400006A01FC0116821782838181FF44C39E0109
:102410002F5F3F4F3901F7019381F10193FD8591C2
:1024200093FF81911F01882309F431C3853239F468
:1024300093FD859193FF81911F01853239F4B70196
:1024400090E00E944C1756016501E5CF10E0512C39
:10245000912CFFE1F915D8F08B3279F038F4803205
:1024600079F08332A1F4F92DF0612EC08D3261F044
:10247000803369F4292D21602DC0392D3260932ECF
:10248000892D8460982E2AC0E92DE86015C097FC3C
:102490002DC020ED280F2A3088F496FE06C03AE0C1
:1024A000139F200D1124122F19C08AE0589E200D71
:1024B0001124522EE92DE0629E2E10C08E3231F48E
:1024C00096FCE5C2F92DF0649F2E08C08C3621F4ED
:1024D000292D2068922E02C0883641F4F10193FD27
:1024E000859193FF81911F018111B3CF9BEB980FD1
:1024F000933020F4992D9061805E07C09BE9980F7E
:10250000933008F066C1992D9F7E96FF16E09F7369
:10251000992E853619F49064992E08C0863621F4D8
:10252000392F3068932E02C01111115097FE07C049
:102530001C3350F444244394410E27E00BC0183060
:1025400038F027E017E005C027E09CE3492E02C0E1
:10255000212F412C560184E0A80EB11CF6016081A8
:10256000718182819381042DA3010E94A6156C01C3
:10257000F981FC87F0FF02C0F3FF06C091FC06C0A2
:1025800092FE06C000E205C00DE203C00BE201C0EE
:1025900000E08C858C7019F001115AC29BC297FE25
:1025A00010C04C0CFC85F4FF04C08A81813309F40F
:1025B0004A94141474F528E0241578F588E0482E20
:1025C0002CC096FC2AC0812F90E08C159D059CF0B4
:1025D0003CEFC3163FEFD30674F0892D8068982E28
:1025E0000AC0E2E0F0E0EC0FFD1FE10FF11D808179
:1025F000803319F411501111F4CF97FE0EC044240A
:102600004394410E812F90E0C816D9062CF41C1972
:1026100004C04424439401C010E097FE06C01C147B
:102620001D0434F4C601019605C085E090E002C0A7
:1026300081E090E001110196112331F0212F30E06B
:102640002F5F3F4F820F931F252D30E08217930796
:1026500014F4581A01C0512C892D897049F4552061
:1026600039F0B70180E290E00E944C175A94F7CFFE
:10267000002329F0B701802F90E00E944C1793FCB3
:1026800009C0552039F0B70180E390E00E944C1753
:102690005A94F7CF97FE4CC04601D7FE02C0812C5A
:1026A000912CC60188199909F301E80FF91FED87EC
:1026B000FE879601241931092F87388B012F10E0EE
:1026C0001195019511093FEF8316930629F4B7017F
:1026D0008EE290E00E944C17C814D9044CF08F850C
:1026E00098898815990524F4ED85FE85818101C0BE
:1026F00080E3F1E08F1A91082D853E852F5F3F4FD3
:102700002D873E87801691062CF0B70190E00E943D
:102710004C17D9CFC814D90441F49A81963320F4C8
:10272000953319F43C8534FF81E3B70190E04EC046
:102730008A81813319F09C859F7E9C87B70190E048
:102740000E944C17111105C094FC18C085E690E05A
:1027500017C0B7018EE290E00E944C171E5F82E026
:1027600001E0080FF301E80FF11D8081B70190E04F
:102770000E944C17802F0113F3CFE6CF85E490E041
:10278000B7010E944C17D7FC06C0C114D10441F414
:10279000EC85E4FF05C0D194C194D1088DE201C05D
:1027A0008BE2B70190E00E944C1780E32AE0C2164A
:1027B000D1042CF08F5FFAE0CF1AD108F7CFB70120
:1027C00090E00E944C17B701C601C0960E944C17BA
:1027D00054C1833631F0833779F0833509F056C020
:1027E00020C0560132E0A30EB11CF601808189831E
:1027F00001E010E0630112C05601F2E0AF0EB11C1F
:10280000F601C080D18096FE03C0612F70E002C047
:102810006FEF7FEFC6010E94C2168C01F92DFF7782
:1028200014C0560122E0A20EB11CF601C080D18076
:1028300096FE03C0612F70E002C06FEF7FEFC6010C
:102840000E949A168C01F92DF0689F2EF3FD1AC094
:10285000852D90E008171907A8F4B70180E290E0F1
:102860000E944C175A94F4CFF60197FC859197FE7D
:1028700081916F01B70190E00E944C1751105A945A
:10288000015011090115110579F7F7C0843611F0CF
:10289000893661F5560197FE09C024E0A20EB11CED
:1028A000F60160817181828193810AC0F2E0AF0EEE
:1028B000B11CF60160817181072E000C880B990B09
:1028C000F92DFF769F2E97FF09C090958095709502
:1028D00061957F4F8F4F9F4FF0689F2E2AE030E029
:1028E000A3010E940018C82EC6183FC0092D8537C5
:1028F00021F40F7E2AE030E01DC0097F8F3691F071
:1029000018F4883559F0C3C0803719F0883711F0B2
:10291000BEC0006104FF09C0046007C094FE08C087
:10292000066006C028E030E005C020E130E002C0CB
:1029300020E132E0560107FF09C084E0A80EB11C77
:10294000F601608171818281938108C0F2E0AF0E4F
:10295000B11CF6016081718180E090E0A3010E94CA
:102960000018C82EC6180F77902E96FE0BC0092DA2
:102970000E7FC11650F494FE0AC092FC08C0092DC7
:102980000E7E05C0DC2C092D03C0DC2C01C0D12E2D
:1029900004FF0DC0FE01EC0DF11D8081803311F4A8
:1029A000097E09C002FF06C0D394D39404C0802FCF
:1029B000867809F0D39403FD11C000FF06C01C2DDA
:1029C000D51480F4150D1D190DC0D51458F4B70198
:1029D00080E290E00E944C17D394F7CFD51410F406
:1029E0005D1801C0512C04FF10C0B70180E390E0D6
:1029F0000E944C1702FF17C001FD03C088E790E05A
:102A000002C088E590E0B7010CC0802F867859F0AD
:102A100001FF02C08BE201C080E207FD8DE2B70139
:102A200090E00E944C17C11638F4B70180E390E0A3
:102A30000E944C171150F7CFCA94F301EC0DF11D11
:102A40008081B70190E00E944C17C110F5CF15C0EE
:102A5000F4E0F51560F584E0581A93FE1FC00111EB
:102A600027C02C8523FF2AC008E710E0392D3071DC
:102A7000932EF8018491811124C0552009F4E4CCEF
:102A8000B70180E290E00E944C175A94F6CFF7010C
:102A90008681978126C08FEF9FEF23C0B70180E228
:102AA00090E00E944C175A945110F8CFD8CF512C77
:102AB000B701802F90E00E944C17D3CF0CE710E0B5
:102AC000D5CF91108052B70190E00E944C170F5F54
:102AD0001F4FCFCF23E0251510F483E0BDCF512C3D
:102AE000C0CF6096E2E10C948E152F923F924F92E8
:102AF0005F926F927F928F929F92AF92BF92CF928E
:102B0000DF92EF92FF920F931F93CF93DF93CDB796
:102B1000DEB7CA1BDB0BCDBFDEBF09942A8839881C
:102B200048885F846E847D848C849B84AA84B98465
:102B3000C884DF80EE80FD800C811B81AA81B98171
:102B4000CE0FD11DCDBFDEBFED010895283008F0B6
:102B500027E03327DA01990F311D87FD9160009638
:102B60006105710539F432602E5F3D9330E32A959B
:102B7000E1F708959F3F30F080387105610509F055
:102B80003C5F3C5F3D93913008F08068911DDF937E
:102B9000CF931F930F93FF92EF92192F987F9695E3
:102BA000E92F96959695E90FFF27E652FF4F992753
:102BB0003327EE24FF24A701E7010590089407942A
:102BC00028F4360FE71EF81E491F511D660F771FA8
:102BD000881F991F0694A1F70590079428F4E70E23
:102BE000F81E491F561FC11D770F881F991F661FAA
:102BF0000694A1F70590079428F4F80E491F561F74
:102C0000C71FD11D880F991F661F771F0694A1F754
:102C10000590079420F4490F561FC71FD81F990F1E
:102C2000661F771F881F0694A9F784911095177067
:102C300041F0D695C79557954795F794E7941A951F
:102C4000C1F7E0E8F0E06894159015913591659131
:102C5000959105907FE27395E118F10A430B560BAD
:102C6000C90BD009C0F7E10CF11E431F561FC91F45
:102C7000D01D7EF4703311F48A95E6CFE8940150AC
:102C800030F0080F0AF40027021708F4202F2395CC
:102C9000022F7A3328F079E37D932A95E9F710C063
:102CA0007D932A9589F6069497956795379517959C
:102CB0001794E118F10A430B560BC90BD00998F091
:102CC00023957E9173957A3308F070E37C932013FB
:102CD000B8F77E9170617D9330F0839571E37D93B9
:102CE00070E32A95E1F71124EF90FF900F911F9167
:102CF000CF91DF91992787FD9095089591110C94BC
:102D00005E18803219F089508550C8F708959111E6
:102D1000089581548A5108F4805E855A0895FC0113
:102D20000590061621F00020D9F7C00108953197CB
:102D3000CF010895FC010590615070400110D8F753
:102D4000809590958E0F9F1F089540E458E30E9450
:102D5000E7160895FB01DC018D91019080190110A7
:102D6000D9F3990B0895FB01DC014150504048F024
:102D700001900D920020C9F701C01D9241505040B2
:102D8000E0F70895FC016150704001900110D8F700
:102D9000809590958E0F9F1F0895FB0151915523AB
:102DA000A9F0BF01DC014D9145174111E1F759F43C
:102DB000CD010190002049F04D9140154111C9F31A
:102DC000FB014111EFCF81E090E001970895FA01F6
:102DD000A191B081009719F41097E1F0CD01DC01C9
:102DE000CD010D90002011F4C00113C0FB01219111
:102DF000222319F02015D9F7F3CFFB0121912015DB
:102E000019F41E92119606C02223C1F70D900020DE
:102E1000A1F7D001FA01A193B0830895CF93DF9376
:102E2000EC012B8120FF33C026FF0AC02F7B2B83B0
:102E30008E819F8101968E839F838A8190E029C035
:102E400022FF0FC0E881F9818081082E000C990BC8
:102E5000009719F420622B831AC03196E883F98316
:102E60000EC0EA85FB85099597FF09C02B81019665
:102E700011F080E201C080E1822B8B8308C02E819B
:102E80003F812F5F3F4F2E833F83992702C08FEFF3
:102E90009FEFDF91CF9108950F931F93CF93DF930F
:102EA000FB01238121FD03C08FEF9FEF2CC022FF88
:102EB00016C046815781248135814217530744F457
:102EC000A081B1819D012F5F3F4F208331838C937F
:102ED000268137812F5F3F4F2683378314C08B01B4
:102EE000EC01FB010084F185E02D0995892BE1F6C9
:102EF000D80116968D919C911797019616968D93F1
:102F00009C931797CE01DF91CF911F910F91089558
:102F1000A0E0B0E0EEE8F7E10C948515AE014B5F60
:102F20005F4FFA0161917191AF0180910C399091DD
:102F30000D390E94F811E2E00C949E150F931F9337
:102F4000CF93DF93E0910C39F0910D39238121FF6C
:102F50001BC08C01D0E0C0E0F80181918F0160912D
:102F60000C3970910D39DB011896ED91FC91199790
:102F7000882331F00995892B79F3DFEFCFEFECCF80
:102F80008AE00995892B19F08FEF9FEF02C08D2FF2
:102F90009C2FDF91CF911F910F910895AEE0B0E08B
:102FA000E4EDF7E10C94851585E08C838B899C8991
:102FB00089839A83AE01495E5F4F6D897E89CE0118
:102FC00001960E94C6102E96E2E00C949E15FB011D
:102FD000238120FF12C026FD10C08F3F3FEF9307D3
:102FE00061F082832F7D20642383268137812150E5
:102FF000310926833783992708958FEF9FEF08952E
:10300000FA01AA27283051F1203181F1E8946F9319
:103010006E7F6E5F7F4F8F4F9F4FAF4FB1E03ED0BF
:10302000B4E03CD0670F781F891F9A1FA11D680F5D
:10303000791F8A1F911DA11D6A0F711D811D911D90
:10304000A11D20D009F468943F912AE0269F112405
:103050003019305D3193DEF6CF010895462F477069
:10306000405D4193B3E00FD0C9F7F6CF462F4F70C4
:10307000405D4A3318F0495D31FD4052419302D022
:10308000A9F7EACFB4E0A6959795879577956795C8
:10309000BA95C9F700976105710508959B01AC01C8
:1030A0000A2E06945795479537952795BA95C9F7EF
:1030B000620F731F841F951FA01D089599278827ED
:0630C0000895F894FFCF13
:1030C600496E69636961206E6F204164643A202508
:1030D600782C205374617475732025640D00506834
:1030E6006967683A2025782C2053746174757320BB
:1030F60025640D00506C6F773A2025782C20537488
:10310600617475732025640D0050726573696F6E66
:1031160020656E205241573A2025640D00436175A3
:1031260064616C252E32660D005469656D706F3AC8
:103136002025640D00534D00454500257300565368
:1031460000200025640025730D00434E32002566DD
:1031560000434E0D00434E31004D530D00566F6C2B
:1031660074616A652053656E736F72313A20256605
:103176000D00566F6C74616A652053656E736F72CD
:10318600323A2025660D0052540D005248252E3243
:10319600665251252E326652564F252E32660A0049
:1031A6005250252E326652564F252E32660A004957
:1031B6006E636F727265637420436F6D6D616E64CA
:0C31C600004D6520447565726D6F0D00B2
:1031D2000000000200000000B0010000000020001A
:1031E20000000000000000000000000000000000DD
:1031F20000000000000000000000000000000000CD
:1032020000000000000000000000000000000000BC
:00000001FF
