:100000000C94E4000C9401010C9401010C94010186
:100010000C9401010C9401010C9401010C94010158
:100020000C9401010C9401010C9401010C94010148
:100030000C9401010C9401010C9401010C94010138
:100040000C9401010C94DD030C9401010C9401014A
:100050000C9401010C9401010C9401010C94010118
:100060000C9426040C9401010C9401010C940101E0
:100070000C9401010C9401016E616E00696E6600C2
:1000800000407A10F35A00A0724E18090010A5D44F
:10009000E80000E87648170000E40B54020000CAAC
:1000A0009A3B000000E1F5050000809698000000F2
:1000B00040420F000000A086010000001027000051
:1000C0000000E803000000006400000000000A00D7
:1000D000000000000100000000002C76D888DC67DA
:1000E0004F0823DFC1DFAE59E1B1B796E5E3E45332
:1000F000C63AE651997696E8E6C28426EB898C9B4F
:1001000062ED407C6FFCEFBC9C9F40F2BAA56FA5EE
:10011000F490055A2AF75C936B6CF9676DC11BFC70
:10012000E0E40D47FEF520E6B500D0ED902E03008B
:10013000943577050080841E080000204E0A0000D8
:1001400000C80C333333330F986E12831141EF8D97
:100150002114893BE65516CFFEE6DB18D1844B38D7
:100160001BF77C1D901DA4BBE424203284725E2208
:100170008100C9F124ECA1E53D276364696E6F70CD
:10018000737578585B65666745464700616E006E1B
:1001900066696E69747900CDCCCC3D0AD7233C17D3
:1001A000B7D13877CC2B329595E6241FB14F0A0092
:1001B0000020410000C84200401C4620BCBE4CCA82
:1001C0001B0E5AAEC59D740011241FBECFEFCDBFCC
:1001D000DFE3DEBF18E3A0E0B8E3ECE3F1E202C046
:1001E00005900D92A034B107D9F728E3A0E4B8E355
:1001F00001C01D92AE34B207E1F70E9464030C9473
:1002000081100C9400009091040895FFFCCF80931E
:10021000020808950E94030180E090E00895E0E064
:10022000F8E08DE690E08087918780EC868380E817
:100230008093050881E08093E20580E098E3809355
:100240004A3890934B38089588ED84BF109261002E
:1002500084BF81E080936000089598ED94BFA0E092
:10026000B1E01C92E0E5F0E08081897F8083F89422
:100270008081816080837894889580818E7F80835F
:1002800094BF8BE08C9386E696E00197F1F700002F
:100290000895809104088823E4F780910008089568
:1002A00080E008C0E82FF0E0E05FFB4F90819860AD
:1002B00090838F5F8830B0F380E008C0E82FF0E0D3
:1002C000E05DFB4F9081986090838F5F8630B0F344
:1002D00080E008C0E82FF0E0E05BFB4F9081986081
:1002E00090838F5F8430B0F30895E0E0F6E081E022
:1002F000818386E08283089581E180930A0680915C
:10030000050680FFFCCFE0E0F6E081E08583808990
:100310009189A289B38908958F929F92AF92BF92DB
:10032000CF92DF92EF92FF92CF93DF938A309105C5
:1003300039F08B30910559F0069709F04CC00EC08A
:10034000E0E0F6E081E0808389E0848744C0E0E07B
:10035000F6E081E0808385E084873DC0E0E0F6E060
:1003600081E0808386E0848736C00E947C01BC01E6
:1003700080E090E00E94250520E030E040E250E47B
:100380000E94B80520E030E040E859E30E94B8053B
:1003900020E030E040E05FE30E94B8054B015C01E3
:1003A00020E030E040E05FE3C701B6010E94B805FD
:1003B0009B01AC01C501B4010E9447046B017C01A3
:1003C000219680E090E002C0A89501968C3721E04C
:1003D0009207D4F305C0C0E0D0E0C12CD12C760147
:1003E000C431D10514F2E0E0F6E080818E7F808395
:1003F000C701B601DF91CF91FF90EF90DF90CF90D2
:10040000BF90AF909F908F9008958F929F92AF92E0
:10041000BF92CF92DF92EF92FF920F931F93CF93F1
:10042000DF936B017C018090F8149090F914A090F8
:10043000FA14B090FB140091FC141091FD14D091AB
:10044000FE14C091FF14B091F414A091F514F09132
:10045000F614E091F7149B01AC016B2F7A2F8F2FCC
:100460009E2F0E94B3058823ACF4282D392D4A2DE8
:100470005B2DC701B6010E94B805202F312F4D2FEB
:100480005C2F0E94460423E333E343E251E40E94DD
:10049000B80503C060E070E0CB01DF91CF911F9100
:1004A0000F91FF90EF90DF90CF90BF90AF909F9013
:1004B0008F900895EF92FF920F931F93CF93DF9346
:1004C000CDB7DEB72C97CDBFDEBF8C0166E071EAF9
:1004D0000E941D0F892B09F48EC069E071EAC801E2
:1004E0000E94040F0097C1F53BC00130110521F0B7
:1004F00002301105A9F027C09E012B5F3F4F3F93AB
:100500002F932BE031EA3F932F939F938F930E9479
:10051000EE0F0F900F900F900F900F900F9013C051
:100520009E012F5F3F4F3F932F932BE031EA3F9384
:100530002F939F938F930E94EE0F0F900F900F9029
:100540000F900F900F9069E071EA80E090E00E94B8
:10055000040F0F5F1F4F02C000E010E0009729F664
:1005600069817A818B819C812D813E814F81588563
:100570000E94B30469877A878B879C87A89580E05F
:1005800090E02DC0DC01AC50BB4EE9E0F0E0EC0F98
:10059000FD1FE80FF91F20812C933DE934BFE0E0F7
:1005A000F0E123E02083AC0148505B4EA5E0B0E0D1
:1005B000AC0FBD1FA80FB91F6C91DA016C9334BF4B
:1005C00020834C5F5F4FA1E0B0E0AC0FBD1FA80FD0
:1005D000B91F6C91DA016C9334BF2083019684308B
:1005E000910584F28EE091EA9F938F930E94D80F39
:1005F0000F900F905FC062E171EAC8010E94090F7D
:10060000892B09F04FC0E0E2F4E0848180628483AA
:10061000A89580E090E0DC0104C0A8950196A11D9A
:10062000B11D811520E49207A105B105B0F3A8958D
:100630008AE090E00E948C01A8950E940502162F86
:10064000072FF82EE92EA895E0E2F4E084818F7D53
:100650008483A89586E090E00E948C0120E030E041
:1006600040EA50E40E94B805A8959F938F937F932A
:100670006F93809146388F93809145388F93EF9296
:10068000FF920F931F9386E191EA9F938F930E94AD
:10069000D80FA8951092453810924638A895CDBF2E
:1006A000DEBF08C089E291EA9F938F930E94D80F22
:1006B0000F900F902C96CDBFDEBFDF91CF911F9191
:1006C0000F91FF90EF9008950E9424010E94500125
:1006D0000E947501E0E4F4E08081877F8083838954
:1006E000877F838B83898260838BA0E0B4E08C91C9
:1006F0008B7F8C938C9182608C93E0E2F4E0848910
:10070000887F848B84898460848B8489877F848BB1
:1007100056968C915697887F56968C9356975696F8
:100720008C915697846056968C93569756968C91DA
:100730005697877F56968C938081806280838589C7
:10074000877F858B84818F7D848388ED84BF8BE058
:100750008093000182E3EEE0F8E3DF011D928A95C9
:10076000E9F70E940F01789480E090E001C00196C3
:10077000883EB3E09B07DCF3109200061092800ADB
:100780001092000A109240010E942D01809143387E
:1007900090914438019779F48EE098E30E945A02D0
:1007A00082E3EEE0F8E3DF011D928A95E9F710920B
:1007B000433810924438A895DFCF1F920F920FB69E
:1007C0000F9211242F933F934F935F936F937F93D7
:1007D0008F939F93AF93BF93EF93FF930E94490131
:1007E00080934738882381F08D3071F090914238A2
:1007F000E92FF0E0E25FF74C80839F5F90934238EF
:10080000933310F0109242388D3079F4E0914238F1
:10081000F0E0E25FF74C808310924238A89581E0C7
:1008200090E08093433890934438FF91EF91BF91CB
:10083000AF919F918F917F916F915F914F913F9178
:100840002F910F900FBE0F901F9018951F920F922F
:100850000FB60F9211248F939F93EF93FF93809184
:1008600045389091463801968093453890934638A4
:10087000E9E4F4E0808188608083FF91EF919F91AB
:100880008F910F900FBE0F901F9018955058BB2757
:10089000AA270E945E040C9479050E946B0538F02B
:1008A0000E94720520F039F49F3F19F426F40C944D
:1008B00068050EF4E095E7FB0C946205E92F0E94B1
:1008C0008A0558F3BA17620773078407950720F063
:1008D00079F4A6F50C94AC050EF4E0950B2EBA2F26
:1008E000A02D0B01B90190010C01CA01A001112436
:1008F000FF27591B99F0593F50F4503E68F11A16E2
:10090000F040A22F232F342F4427585FF3CF469572
:1009100037952795A795F0405395C9F77EF41F1694
:10092000BA0B620B730B840BBAF09150A1F0FF0F5E
:10093000BB1F661F771F881FC2F70EC0BA0F621F4A
:10094000731F841F48F4879577956795B795F7953A
:100950009E3F08F0B0CF9395880F08F09927EE0FCF
:100960009795879508950E94C7040C9479050E9475
:10097000720558F00E946B0540F029F45F3F29F0A2
:100980000C94620551110C94AD050C9468050E94FD
:100990008A0568F39923B1F3552391F3951B550B01
:1009A000BB27AA2762177307840738F09F5F5F4F42
:1009B000220F331F441FAA1FA9F335D00E2E3AF081
:1009C000E0E832D091505040E695001CCAF72BD099
:1009D000FE2F29D0660F771F881FBB1F26173707EA
:1009E0004807AB07B0E809F0BB0B802DBF01FF271C
:1009F00093585F4F3AF09E3F510578F00C94620592
:100A00000C94AD055F3FE4F3983ED4F3869577955B
:100A10006795B795F7959F5FC9F7880F911D9695D4
:100A2000879597F90895E1E0660F771F881FBB1F30
:100A3000621773078407BA0720F0621B730B840BDD
:100A4000BA0BEE1F88F7E0950895E89409C097FB6C
:100A50003EF490958095709561957F4F8F4F9F4F95
:100A60009923A9F0F92F96E9BB279395F6958795D9
:100A700077956795B795F111F8CFFAF4BB0F11F49C
:100A800060FF1BC06F5F7F4F8F4F9F4F16C0882343
:100A900011F096E911C0772321F09EE8872F762F79
:100AA00005C0662371F096E8862F70E060E02AF0BA
:100AB0009A95660F771F881FDAF7880F96958795A6
:100AC00097F9089597F99F6780E870E060E00895CE
:100AD0009FEF80EC089500240A9416161706180656
:100AE0000906089500240A94121613061406050632
:100AF0000895092E0394000C11F4882352F0BB0FC3
:100B000040F4BF2B11F460FF04C06F5F7F4F8F4F25
:100B10009F4F089557FD9058440F551F59F05F3F60
:100B200071F04795880F97FB991F61F09F3F79F00F
:100B300087950895121613061406551FF2CF469591
:100B4000F1DF08C0161617061806991FF1CF869513
:100B50007105610508940895E894BB2766277727F7
:100B6000CB0197F908950E94250608F48FEF0895A8
:100B70000E94CB050C9479050E946B0538F00E9409
:100B8000720520F0952311F00C9462050C94680511
:100B900011240C94AD050E948A0570F3959FC1F352
:100BA000950F50E0551F629FF001729FBB27F00D1B
:100BB000B11D639FAA27F00DB11DAA1F649F662770
:100BC000B00DA11D661F829F2227B00DA11D621FBF
:100BD000739FB00DA11D621F839FA00D611D221F79
:100BE000749F3327A00D611D231F849F600D211D5D
:100BF000822F762F6A2F11249F5750409AF0F1F0E0
:100C000088234AF0EE0FFF1FBB1F661F771F881F48
:100C100091505040A9F79E3F510580F00C94620519
:100C20000C94AD055F3FE4F3983ED4F38695779539
:100C30006795B795F795E7959F5FC1F7FE2B880FEE
:100C4000911D9695879597F90895990F0008550F6E
:100C5000AA0BE0E8FEEF16161706E807F907C0F042
:100C600012161306E407F50798F0621B730B840B4A
:100C7000950B39F40A2661F0232B242B252B21F424
:100C800008950A2609F4A140A6958FEF811D811DC4
:100C9000089520FD09C0FC0123FD05C022FF02C00C
:100CA0007383628351834083089544FD17C046FDDA
:100CB00017C0AB01BC01DA01FB01AA0FBB1FEE1F7D
:100CC000FF1F1094D1F74A0F5B1F6E1F7F1FCB01D0
:100CD000BA01660F771F881F991F09C033E001C052
:100CE00034E0660F771F881F991F3150D1F7620FCC
:100CF000711D811D911D08950F931F93CF93DF9355
:100D00008C01C8010E945E0FEC0197FD08C00E9493
:100D1000DD0E892BB1F7B801CE010E940710CE017C
:100D2000DF91CF911F910F910895A0E0B0E0EBE922
:100D3000F6E00C94DA0D7C018B016A01D22F0E943F
:100D40005E0F9C0133272B32310521F02D32310506
:100D500059F4D0680150110911F480E06BC0C7014B
:100D60000E945E0F97FDF9CFCD2FCD7F2D2F2073E1
:100D700019F5803309F5580181E0A81AB10809F482
:100D800045C0C7010E945E0F97FD40C09C012F7DAA
:100D900033272835310551F4C26402501109B1F1ED
:100DA000C7010E945E0F97FF07C030C0D6FF02C088
:100DB000C26001C0C2618501812C912C540120EDDB
:100DC000280F283080F0C4FF04C0B7010E9407102C
:100DD0001AC02A3040F0C6FFF8CF2F7D3FEE320F09
:100DE000363098F727504C2FC501B4010E945506A4
:100DF0004B015C01C2600150110959F0C7010E940A
:100E00005E0F97FFDCCFC1FD04C0A7CF812C912CD2
:100E10005401C7FF08C0B094A09490948094811CA2
:100E2000911CA11CB11C2C2FB501A401C6010E946C
:100E3000490681E0CDB7DEB7ECE00C94F30DA0E2FB
:100E4000B0E0E5E2F7E00C94D60D5C014B017A01CD
:100E50008E010F5F1F4F680180E2F80111928A95A1
:100E6000E9F7F501538040E050E0612C90E0712CEF
:100E7000A1E0B0E0F90153FC859153FE81918F010F
:100E8000482E9F01811103C080E090E096C08E350E
:100E900019F44115510551F1672D70E0641775077C
:100EA0003CF48D3561F18D3219F4992311F103C0B1
:100EB000992309F46DC0842D869586958695F60153
:100EC000E80FF11D842D87708D0102C0000F111FE6
:100ED0008A95E2F7C8019081892B8083641459F0C8
:100EE000461410F44394E7CF4A94E5CF77247394E3
:100EF00003C091E001C090E04F5F5F4FBBCF9923EB
:100F000019F08E8180628E83711003C077247394F0
:100F100019C0F6019E012F5D3F4F8081809581931E
:100F20002E173F07D1F7F2CFE114F10431F0F701AA
:100F30008083B7016F5F7F4F7B0171E0871A910853
:100F4000712CF9F0C5010E945E0F97FD18C0FC01DD
:100F5000FF2723E0F595E7952A95E1F7EC0DFD1DB8
:100F6000208130E0AC014770552702C035952795A8
:100F70004A95E2F720FDD8CFB5010E940710711005
:100F800083CFE114F10411F0F7011082C80115C0FC
:100F9000682F669566956695F601E60FF11D682F38
:100FA00067708D0102C0000F111F6A95E2F7B8014A
:100FB0007081672B6083682E9FCFA096E0E10C9430
:100FC000EF0D2F923F924F925F926F927F929F927E
:100FD000AF92BF92CF92DF92EF92FF920F931F9347
:100FE000CF93DF936C018B011A010E945E0FEC011D
:100FF00099278B32910529F08D9781F430E8932E53
:1010000001C0912C0150110911F480E00CC1C601FE
:101010000E945E0FEC0197FF02C0F7CF912CCE012A
:101020000E94E60E8936910531F08E36910599F5CC
:10103000CCE8D1E002C0CFE8D1E02196FE013197A3
:10104000B490BB20C9F00150110991F0C6010E9473
:101050005E0F7C0197FD0CC00E94E60E9927EB2DD8
:10106000F0E08E179F0749F3B601C7010E940710F1
:10107000C259D14051F603C0CF58D14029F080E089
:1010800090E0A0E8BFE704C080E090E0A0ECBFE7FC
:10109000BC01CD01B8C0412C512C3201E12CF12C06
:1010A0002C2F20532A3010F5E92DE260BE2E892D19
:1010B000887092FE06C0811120C0FFEFEF1AFF0A70
:1010C0001CC0882319F081E0E81AF10840E2C3014E
:1010D000B2010E9455062B013C01683979498949C2
:1010E000994158F0F92DF660BF2E07C02E3F89F4C4
:1010F00093FC0FC0292D2860B22E0150110941F038
:10110000C6010E945E0FEC019B2C97FFC9CF01C066
:101110009B2C91FE7ACFCE018F7D99278534910546
:1011200009F042C0580181E0A81AB10809F46DCF56
:10113000C6010E945E0FEC0197FD67CF99278B32A5
:10114000910529F08D9769F4E92DE0619E2E5801F3
:10115000F2E0AF1AB10809F458CFC6010E945E0F41
:10116000EC01CE01C0970A9708F04FCF8501A12C62
:10117000B12CB501BB0C880B990B2C2F205340E2EE
:101180000E9455065B010150110939F0C6010E9409
:101190005E0FEC01C0970A9760F394FE03C0B19410
:1011A000A194B108EA0CFB1C012B31F0D7FD04C05F
:1011B000B601CE010E940710C301B2010E942505AD
:1011C000F7FE06C0F194E194F108CBEAD1E002C049
:1011D000C3ECD1E06E0128E1C21AD10800E210E0B0
:1011E000E016F10650F0FE0125913591459154919C
:1011F0000E94B805E01AF10AF3CF249716950795D7
:10120000CC16DD0669F797FE05C0DC01CB01B058AE
:10121000BC01CD012114310429F0F10160837183F7
:101220008283938381E0DF91CF911F910F91FF9093
:10123000EF90DF90CF90BF90AF909F907F906F9096
:101240005F904F903F902F900895A0E0B0E0EBE2C8
:10125000F9E00C94D80D5C01EB014A01FC01168207
:101260001782612CF5010381FE0103FD859103FFC7
:101270008191182FEF01882309F40FC190E00E949B
:10128000DD0E892B21F0C5010E947C06EBCF1532C3
:1012900041F4FE0103FD159103FF1191EF01153299
:1012A00081F4C5010E945E0F97FDF5C0412F50E00B
:1012B0009C01332724173507A9F2B5010E940710B6
:1012C000ECC01A3241F403FD159103FF1191EF01B7
:1012D0007724739401C0712CE12CF12C20ED210FA7
:1012E0002A3088F4F72DF2607F2EB70180E090E07D
:1012F00040E20E9455067B01FE0103FD159103FFAC
:101300001191EF01EBCF71FE04C0E114F10421F45F
:10131000C4C0EE24EA94FE2C183619F01C3661F095
:1013200014C0FE0103FD159103FF1191EF01183662
:1013300061F4872D8860782E972D9460792EFE01B8
:1013400003FD159103FF1191EF01112309F4A5C0CD
:10135000612F70E08AE791E00E94EE0E892B09F47C
:101360009CC070FC07C0F401C080D180C40102960B
:101370004C0102C0C12CD12C1E3651F4F50146811E
:10138000578160E070E0272DC6010E9449066ACFB0
:101390001336B9F471FC03C0EE24E394F12CC501BB
:1013A0000E945E0F97FD77C0C114D10429F0F601A9
:1013B0008083C60101966C0191E0E91AF10879F782
:1013C00066C01B3559F49E01A601B701C5010E94F4
:1013D0001F07EC01892B09F05AC054C0C5010E94B7
:1013E0007C0697FD58C01F36E1F140F41436A9F190
:1013F0001936D1F1183509F03EC02BC01337A9F0CA
:1014000018F4103731F137C0153739F1183709F1B1
:1014100032C0C114D10429F0F6010083C60101963F
:101420006C0191E0E91AF10871F0C5010E945E0FAC
:101430008C0197FD08C00E94DD0E892B51F3B50188
:10144000C8010E940710C114D10409F1F6011082ED
:101450001EC0F72DF0647F2E07C0872D8062782E86
:1014600003C0972D9061792E272DA601B701C501E4
:101470000E94950605C0A601B701C5010E94E107BB
:10148000811105C0F5018381807329F406C070FCC9
:10149000E9CE6394E7CE662019F0862D90E002C075
:1014A0008FEF9FEFCDB7DEB7EEE00C94F10DA0E12A
:1014B000B0E0EDE5FAE00C94D40D7C011B016A016B
:1014C000FC0116821782838181FF44C39E012F5F36
:1014D0003F4F3901F7019381F10193FD859193FF0E
:1014E00081911F01882309F431C3853239F493FDBA
:1014F000859193FF81911F01853239F4B70190E006
:101500000E949C0F56016501E5CF10E0512C912CF3
:10151000FFE1F915D8F08B3279F038F4803279F0A8
:101520008332A1F4F92DF0612EC08D3261F0803349
:1015300069F4292D21602DC0392D3260932E892D1B
:101540008460982E2AC0E92DE86015C097FC2DC054
:1015500020ED280F2A3088F496FE06C03AE0139F4B
:10156000200D1124122F19C08AE0589E200D11243D
:10157000522EE92DE0629E2E10C08E3231F496FC80
:10158000E5C2F92DF0649F2E08C08C3621F4292D78
:101590002068922E02C0883641F4F10193FD8591B6
:1015A00093FF81911F018111B3CF9BEB980F933073
:1015B00020F4992D9061805E07C09BE9980F9330CD
:1015C00008F066C1992D9F7E96FF16E09F73992EB5
:1015D000853619F49064992E08C0863621F4392F87
:1015E0003068932E02C01111115097FE07C01C33B2
:1015F00050F444244394410E27E00BC0183038F0D7
:1016000027E017E005C027E09CE3492E02C0212F08
:10161000412C560184E0A80EB11CF6016081718155
:1016200082819381042DA3010E94050E6C01F98132
:10163000FC87F0FF02C0F3FF06C091FC06C092FEDB
:1016400006C000E205C00DE203C00BE201C000E0ED
:101650008C858C7019F001115AC29BC297FE10C084
:101660004C0CFC85F4FF04C08A81813309F44A9450
:10167000141474F528E0241578F588E0482E2CC061
:1016800096FC2AC0812F90E08C159D059CF03CEFC4
:10169000C3163FEFD30674F0892D8068982E0AC0D8
:1016A000E2E0F0E0EC0FFD1FE10FF11D80818033DF
:1016B00019F411501111F4CF97FE0EC04424439435
:1016C000410E812F90E0C816D9062CF41C1904C0D5
:1016D0004424439401C010E097FE06C01C141D046E
:1016E00034F4C601019605C085E090E002C081E0B7
:1016F00090E001110196112331F0212F30E02F5F8E
:101700003F4F820F931F252D30E08217930714F46B
:10171000581A01C0512C892D897049F4552039F08F
:10172000B70180E290E00E949C0F5A94F7CF00230B
:1017300029F0B701802F90E00E949C0F93FC09C014
:10174000552039F0B70180E390E00E949C0F5A9435
:10175000F7CF97FE4CC04601D7FE02C0812C912CDA
:10176000C60188199909F301E80FF91FED87FE8773
:101770009601241931092F87388B012F10E011951C
:10178000019511093FEF8316930629F4B7018EE204
:1017900090E00E949C0FC814D9044CF08F85988962
:1017A0008815990524F4ED85FE85818101C080E3CB
:1017B000F1E08F1A91082D853E852F5F3F4F2D87D1
:1017C0003E87801691062CF0B70190E00E949C0F96
:1017D000D9CFC814D90441F49A81963320F49533B3
:1017E00019F43C8534FF81E3B70190E04EC08A8153
:1017F000813319F09C859F7E9C87B70190E00E9401
:101800009C0F111105C094FC18C085E690E017C02C
:10181000B7018EE290E00E949C0F1E5F82E001E023
:10182000080FF301E80FF11D8081B70190E00E94DD
:101830009C0F802F0113F3CFE6CF85E490E0B70132
:101840000E949C0FD7FC06C0C114D10441F4EC8562
:10185000E4FF05C0D194C194D1088DE201C08BE2B0
:10186000B70190E00E949C0F80E32AE0C216D104E9
:101870002CF08F5FFAE0CF1AD108F7CFB70190E0D4
:101880000E949C0FB701C601C0960E949C0F54C1D4
:10189000833631F0833779F0833509F056C020C0A4
:1018A000560132E0A30EB11CF6018081898301E06C
:1018B00010E0630112C05601F2E0AF0EB11CF60158
:1018C000C080D18096FE03C0612F70E002C06FEF30
:1018D0007FEFC6010E94120F8C01F92DFF7714C013
:1018E000560122E0A20EB11CF601C080D18096FE06
:1018F00003C0612F70E002C06FEF7FEFC6010E944E
:10190000F90E8C01F92DF0689F2EF3FD1AC0852D7C
:1019100090E008171907A8F4B70180E290E00E9450
:101920009C0F5A94F4CFF60197FC859197FE819114
:101930006F01B70190E00E949C0F51105A94015022
:1019400011090115110579F7F7C0843611F08936B0
:1019500061F5560197FE09C024E0A20EB11CF60104
:1019600060817181828193810AC0F2E0AF0EB11C67
:10197000F60160817181072E000C880B990BF92DFF
:10198000FF769F2E97FF09C0909580957095619581
:101990007F4F8F4F9F4FF0689F2E2AE030E0A301CA
:1019A0000E942010C82EC6183FC0092D853721F48B
:1019B0000F7E2AE030E01DC0097F8F3691F018F4C9
:1019C000883559F0C3C0803719F0883711F0BEC090
:1019D000006104FF09C0046007C094FE08C00660EF
:1019E00006C028E030E005C020E130E002C020E180
:1019F00032E0560107FF09C084E0A80EB11CF601D1
:101A0000608171818281938108C0F2E0AF0EB11CC8
:101A1000F6016081718180E090E0A3010E942010B6
:101A2000C82EC6180F77902E96FE0BC0092D0E7F7C
:101A3000C11650F494FE0AC092FC08C0092D0E7E17
:101A400005C0DC2C092D03C0DC2C01C0D12E04FF05
:101A50000DC0FE01EC0DF11D8081803311F4097E73
:101A600009C002FF06C0D394D39404C0802F8678A7
:101A700009F0D39403FD11C000FF06C01C2DD5143E
:101A800080F4150D1D190DC0D51458F4B70180E26E
:101A900090E00E949C0FD394F7CFD51410F45D18FA
:101AA00001C0512C04FF10C0B70180E390E00E94F8
:101AB0009C0F02FF17C001FD03C088E790E002C041
:101AC00088E590E0B7010CC0802F867859F001FFBF
:101AD00002C08BE201C080E207FD8DE2B70190E019
:101AE0000E949C0FC11638F4B70180E390E00E9479
:101AF0009C0F1150F7CFCA94F301EC0DF11D8081BA
:101B0000B70190E00E949C0FC110F5CF15C0F4E022
:101B1000F51560F584E0581A93FE1FC0011127C027
:101B20002C8523FF2AC008E710E0392D3071932E51
:101B3000F8018491811124C0552009F4E4CCB70147
:101B400080E290E00E949C0F5A94F6CFF7018681C4
:101B5000978126C08FEF9FEF23C0B70180E290E00E
:101B60000E949C0F5A945110F8CFD8CF512CB70136
:101B7000802F90E00E949C0FD3CF0CE710E0D5CFD0
:101B800091108052B70190E00E949C0F0F5F1F4F91
:101B9000CFCF23E0251510F483E0BDCF512CC0CF6B
:101BA0006096E2E10C94ED0D2F923F924F925F927E
:101BB0006F927F928F929F92AF92BF92CF92DF925D
:101BC000EF92FF920F931F93CF93DF93CDB7DEB7C2
:101BD000CA1BDB0BCDBFDEBF09942A883988488831
:101BE0005F846E847D848C849B84AA84B984C88439
:101BF000DF80EE80FD800C811B81AA81B981CE0F30
:101C0000D11DCDBFDEBFED010895283008F027E0DB
:101C10003327DA01990F311D87FD91600096610528
:101C2000710539F432602E5F3D9330E32A95E1F778
:101C300008959F3F30F080387105610509F03C5FE1
:101C40003C5F3D93913008F08068911DDF93CF9306
:101C50001F930F93FF92EF92192F987F9695E92F7C
:101C600096959695E90FFF27E652FF4F9927332760
:101C7000EE24FF24A701E70105900894079428F4B7
:101C8000360FE71EF81E491F511D660F771F881F6C
:101C9000991F0694A1F70590079428F4E70EF81E03
:101CA000491F561FC11D770F881F991F661F069475
:101CB000A1F70590079428F4F80E491F561FC71F77
:101CC000D11D880F991F661F771F0694A1F70590F5
:101CD000079420F4490F561FC71FD81F990F661F7E
:101CE000771F881F0694A9F784911095177041F00B
:101CF000D695C79557954795F794E7941A95C1F7E8
:101D0000E0E8F0E068941590159135916591959112
:101D100005907FE27395E118F10A430B560BC90B4E
:101D2000D009C0F7E10CF11E431F561FC91FD01D7B
:101D30007EF4703311F48A95E6CFE894015030F0C8
:101D4000080F0AF40027021708F4202F2395022F0A
:101D50007A3328F079E37D932A95E9F710C07D93D3
:101D60002A9589F606949795679537951795179450
:101D7000E118F10A430B560BC90BD00998F02395D3
:101D80007E9173957A3308F070E37C932013B8F753
:101D90007E9170617D9330F0839571E37D9370E364
:101DA0002A95E1F71124EF90FF900F911F91CF91A9
:101DB000DF91992787FD9095089591110C947E10DD
:101DC000803219F089508550C8F70895911108950F
:101DD00081548A5108F4805E855A0895FC0105906B
:101DE000061621F00020D9F7C00108953197CF01E0
:101DF0000895FC010590615070400110D8F780955E
:101E000090958E0F9F1F089540E458E30E94370F6E
:101E10000895FB01DC018D91019080190110D9F327
:101E2000990B0895FC016150704001900110D8F7A2
:101E3000809590958E0F9F1F0895FB01519155231A
:101E4000A9F0BF01DC014D9145174111E1F759F4AB
:101E5000CD010190002049F04D9140154111C9F389
:101E6000FB014111EFCF81E090E001970895FA0165
:101E7000A191B081009719F41097E1F0CD01DC0138
:101E8000CD010D90002011F4C00113C0FB01219180
:101E9000222319F02015D9F7F3CFFB01219120154A
:101EA00019F41E92119606C02223C1F70D9000204E
:101EB000A1F7D001FA01A193B0830895CF93DF93E6
:101EC000EC012B8120FF33C026FF0AC02F7B2B8320
:101ED0008E819F8101968E839F838A8190E029C0A5
:101EE00022FF0FC0E881F9818081082E000C990B38
:101EF000009719F420622B831AC03196E883F98386
:101F00000EC0EA85FB85099597FF09C02B810196D4
:101F100011F080E201C080E1822B8B8308C02E810A
:101F20003F812F5F3F4F2E833F83992702C08FEF62
:101F30009FEFDF91CF9108950F931F93CF93DF937E
:101F4000FB01238121FD03C08FEF9FEF2CC022FFF7
:101F500016C046815781248135814217530744F4C6
:101F6000A081B1819D012F5F3F4F208331838C93EE
:101F7000268137812F5F3F4F2683378314C08B0123
:101F8000EC01FB010084F185E02D0995892BE1F638
:101F9000D80116968D919C911797019616968D9360
:101FA0009C931797CE01DF91CF911F910F910895C8
:101FB000A0E0B0E0EEEDFFE00C94E40DAE014B5F6D
:101FC0005F4FFA0161917191AF0180914A38909110
:101FD0004B380E94570AE2E00C94FD0DAEE0B0E0F1
:101FE000E4EFFFE00C94E40D85E08C838B899C8901
:101FF00089839A83AE01495E5F4F6D897E89CE01E8
:1020000001960E9425092E96E2E00C94FD0DFB013D
:10201000238120FF12C026FD10C08F3F3FEF9307A2
:1020200061F082832F7D20642383268137812150B4
:10203000310926833783992708958FEF9FEF0895FD
:10204000FA01AA27283051F1203181F1E8946F93E9
:102050006E7F6E5F7F4F8F4F9F4FAF4FB1E03ED08F
:10206000B4E03CD0670F781F891F9A1FA11D680F2D
:10207000791F8A1F911DA11D6A0F711D811D911D60
:10208000A11D20D009F468943F912AE0269F1124D5
:102090003019305D3193DEF6CF010895462F477039
:1020A000405D4193B3E00FD0C9F7F6CF462F4F7094
:1020B000405D4A3318F0495D31FD4052419302D0F2
:1020C000A9F7EACFB4E0A695979587957795679598
:1020D000BA95C9F700976105710508959B01AC0198
:1020E0000A2E06945795479537952795BA95C9F7BF
:1020F000620F731F841F951FA01D089599278827BD
:062100000895F894FFCFE2
:10210600434E002000256600434E0D004D530D0042
:102116005248252E3266524C256452564F252E3291
:10212600660D00496E636F727265637420436F6D4E
:062136006D616E640D00F6
:10213C0000000002000000000A0100000000200066
:10214C000000000000000000000000000000000083
:10215C000000000000000000000000000000000073
:10216C000000000000000000000000000000000063
:00000001FF
