:100000001DC037C036C035C034C033C032C031C067
:1000100030C02FC02EC02DC02CC02BC02AC029C07C
:1000200028C057C226C025C024C023C022C021C07A
:100030009AC21FC01EC01DC01CC01BC011241FBE01
:10004000CFEFCDBFDFE3DEBF1EE3A0E0BEE3EDED0B
:10005000FFE002C005900D92A631B107D9F72EE35B
:10006000A6E1BEE301C01D92AE31B207E1F72BD28B
:1000700094C7C6CF9091040895FFFCCF80930208E7
:100080000895F8DF80E090E00895E0E0F8E08DE684
:1000900090E08087918780EC868380E880930508D4
:1000A00081E08093E20580E09EE380931A3E909386
:1000B0001B3E089588ED84BF90E49093100184BFA7
:1000C0001092610084BF81E0809360000895E0E4B5
:1000D000F4E08081877F808383898260838BE0E086
:1000E000F4E080818B7F8083808182608083A0E2C6
:1000F000B4E08C9180628C9314968C9114978062FA
:1001000014968C93149754968C915497887F549698
:100110008C93549754968C915497846054968C93F6
:10012000549754968C915497877F54968C938589D5
:10013000887F858B85898460858B8589877F858B82
:100140008689887F868B86898460868B8689877F6F
:10015000868B08950F931F9320917F1430E0A1E8C0
:10016000BEE740D4AB01BC01E0E0F4E180E090E008
:10017000DC0105C02191820F911DA11DB11DEF373A
:1001800004E1F007BCF38C019D01040F151F261F2D
:10019000371FC901B8011F910F910895CF92DF92C7
:1001A000EF92FF92CF93DF93CDB7DEB72C97CDBF01
:1001B000DEBF6B017C01C1D26F837887072E000CF4
:1001C000880B990BF2D29B01AC01C701B60143D257
:1001D00020E030E040E251E498D36B017C01ADD2E5
:1001E00069877A87072E000C880B990BDED29B015A
:1001F000AC01C701B6012FD220E030E040E251E46B
:1002000084D39BD26B877C8786E0FE013796DE0124
:10021000119601900D928A95E1F729813A814B81DF
:100220005C816D817E8180E090E02C96CDBFDEBF49
:10023000DF91CF91FF90EF90DF90CF9008950F93D3
:100240001F93CF93DF938C01C0E0D0E006C0F8018C
:10025000EC0FFD1F80810EDF2196F8010190002038
:10026000E9F73197E01BF10BCE17DF0780F3DF9141
:10027000CF911F910F910895E0E0F6E081E0818336
:1002800086E08283089581E180930A0680910506C5
:1002900080FFFCCFE0E0F6E081E0858380899189F2
:1002A000A289B38908958F929F92AF92BF92CF9205
:1002B000DF92EF92FF92CF93DF938A30910531F076
:1002C0008B30910551F0069771F413C0E0E0F6E031
:1002D00081E0808389E0848706C0E0E0F6E081E089
:1002E000808385E08487C0E0D0E0C12CD12C7601EA
:1002F00031C0E0E0F6E081E0808386E08487F3CFE0
:10030000C2DFBC0180E090E04ED220E030E040E26D
:1003100050E4FBD220E030E040E859E3F6D220E0A0
:1003200030E040E05FE3F1D24B015C0120E030E0DF
:1003300040E05FE3C701B601E8D29B01AC01C50113
:10034000B4018AD16B017C01219689E991E0019782
:10035000F1F700C0C431D1059CF2E0E0F6E0808105
:100360008E7F8083C701B601DF91CF91FF90EF9020
:10037000DF90CF90BF90AF909F908F900895CF92D5
:10038000DF92EF92FF926B017C0127E630E84BEFA2
:100390005EE3CED1181694F42AE034EA4FE051E43B
:1003A000C701B601B2D227EE3DE14DE850E453D18A
:1003B00023E333E343E251E4A8D203C060E070E0FA
:1003C000CB01FF90EF90DF90CF900895CF92DF9216
:1003D000EF92FF920F931F93CF93DF93CDB7DEB7CA
:1003E0006297CDBFDEBF8C018AE090E05CDFC7DFA3
:1003F000D5DE29833A834B835C836D837E838BE0D8
:1004000090E051DFBCDFCADE2F83388749875A87E7
:100410006B877C8786E090E046DF20E030E040EAB2
:1004200050E473D2BBDE2D873E874F87588B698B94
:100430007A8B90DEF62EE72ED82EC92E6EE97FE855
:10044000C801DCD2892B81F58A898F9389898F93A2
:1004500088898F938F858F938E858F938D858F93CA
:10046000CF92DF92EF92FF928C858F938B858F9343
:100470008A858F9389858F9388858F938F818F93BA
:100480008E818F938D818F938C818F938B818F93AE
:100490008A818F9389818F9382EA9FE89F938F93BC
:1004A000B6D2CDBFDEBF03C08AEC9FE8C8DE62963D
:1004B000CDBFDEBFDF91CF911F910F91FF90EF90E5
:1004C000DF90CF900895F6DDD7DE01DEDEDD789493
:1004D000FFCF1F920F920FB60F9211242F933F93CD
:1004E0004F935F936F937F938F939F93AF93BF933C
:1004F000EF93FF9389E991E00197F1F700C08091B4
:1005000000088093173E882381F08D3071F0909120
:10051000163EE92FF0E0E25FF14C80839F5F9093FD
:10052000163E993010F01092163E8D3059F4E0913D
:10053000163EF0E0E25FF14C80831092163E8EE0B2
:100540009EE344DFFF91EF91BF91AF919F918F9117
:100550007F916F915F914F913F912F910F900FBEBF
:100560000F901F9018951F920F920FB60F921124A3
:100570002F938F939F93AF93BF93EF93FF932AEDA6
:100580002A95F1F700C0E9E4F4E080818860808377
:1005900080917F148F3F09F452C0E0E0F4E190E0D5
:1005A00049C0DF01808181110DC0E11524E1F2070E
:1005B00049F48F5F809300148DE984BF83E08093BA
:1005C00000103DC0891740F48F5F8C938DE984BF84
:1005D00083E08093001033C0EE3724E1F207C9F4C2
:1005E0008F3FB9F4AFE7B4E12C912F5F2C932DE945
:1005F00024BF23E020930010A0E0B4E106C01D92C8
:100600002DE924BF23E020930010AF3724E1B20787
:10061000B4F3EE3724E1F20759F4981309C091E0DE
:10062000980F909300149DE994BF93E0909300106D
:100630003196982FEF3784E1F8070CF4B2CFFF9191
:10064000EF91BF91AF919F918F912F910F900FBE1E
:100650000F901F9018955058BB27AA270E9443035C
:100660000C944B040E943D0438F00E94440420F096
:1006700039F49F3F19F426F40C943A040EF4E095F3
:10068000E7FB0C943404E92F0E945C0458F3BA177A
:10069000620773078407950720F079F4A6F50C9498
:1006A0007E040EF4E0950B2EBA2FA02D0B01B9019C
:1006B00090010C01CA01A0011124FF27591B99F0D8
:1006C000593F50F4503E68F11A16F040A22F232FE4
:1006D000342F4427585FF3CF469537952795A79534
:1006E000F0405395C9F77EF41F16BA0B620B730BDB
:1006F000840BBAF09150A1F0FF0FBB1F661F771F4C
:10070000881FC2F70EC0BA0F621F731F841F48F400
:10071000879577956795B795F7959E3F08F0B0CF89
:100720009395880F08F09927EE0F97958795089570
:100730000E94100408F481E008950E94A4036894C4
:10074000B1110C947F0408950E94640488F09F57AF
:1007500098F0B92F9927B751B0F0E1F0660F771FE5
:10076000881F991F1AF0BA95C9F714C0B13091F0DB
:100770000E947E04B1E008950C947E04672F782FC8
:100780008827B85F39F0B93FCCF3869577956795A0
:10079000B395D9F73EF490958095709561957F4F0C
:1007A0008F4F9F4F0895E89409C097FB3EF49095B2
:1007B0008095709561957F4F8F4F9F4F9923A9F03A
:1007C000F92F96E9BB279395F695879577956795C9
:1007D000B795F111F8CFFAF4BB0F11F460FF1BC00D
:1007E0006F5F7F4F8F4F9F4F16C0882311F096E9A0
:1007F00011C0772321F09EE8872F762F05C066234E
:1008000071F096E8862F70E060E02AF09A95660F06
:10081000771F881FDAF7880F9695879597F90895BF
:10082000990F0008550FAA0BE0E8FEEF1616170601
:10083000E807F907C0F012161306E407F50798F069
:10084000621B730B840B950B39F40A2661F0232B82
:10085000242B252B21F408950A2609F4A140A695FE
:100860008FEF811D811D089597F99F6780E870E0E3
:1008700060E008959FEF80EC089500240A94161616
:10088000170618060906089500240A94121613067E
:10089000140605060895092E0394000C11F488230C
:1008A00052F0BB0F40F4BF2B11F460FF04C06F5F28
:1008B0007F4F8F4F9F4F089557FD9058440F551FFE
:1008C00059F05F3F71F04795880F97FB991F61F0D2
:1008D0009F3F79F087950895121613061406551F49
:1008E000F2CF4695F1DF08C0161617061806991FB5
:1008F000F1CF86957105610508940895E894BB27AA
:1009000066277727CB0197F908950E9498040C94E5
:100910004B040E943D0438F00E94440420F09523CB
:1009200011F00C9434040C943A0411240C947F04B8
:100930000E945C0470F3959FC1F3950F50E0551F22
:10094000629FF001729FBB27F00DB11D639FAA2724
:10095000F00DB11DAA1F649F6627B00DA11D661F73
:10096000829F2227B00DA11D621F739FB00DA11D94
:10097000621F839FA00D611D221F749F3327A00D4E
:10098000611D231F849F600D211D822F762F6A2FEA
:1009900011249F5750409AF0F1F088234AF0EE0F4F
:1009A000FF1FBB1F661F771F881F91505040A9F77C
:1009B0009E3F510580F00C9434040C947F045F3FFB
:1009C000E4F3983ED4F3869577956795B795F795B8
:1009D000E7959F5FC1F7FE2B880F911D9695879530
:1009E00097F90895A29FB001B39FC001A39F01D0C2
:1009F000B29F700D811D1124911D0895FB01DC0132
:100A00008D91019080190110D9F3990B0895A0E000
:100A1000B0E0ECE0F5E0A0C2AE014B5F5F4FFA0141
:100A200061917191AF0180911A3E90911B3E02D06D
:100A3000E2E0ABC2ABE0B0E0EFE1F5E07DC26C011B
:100A40007B018A01FC0116821782838181FFBFC16D
:100A5000CE0101963C01F6019381F70193FD85914A
:100A600093FF81917F01882309F4ADC1853239F468
:100A700093FD859193FF81917F01853221F4B60129
:100A800090E0C0D1E8CF912C212C312CFFE1F3155F
:100A9000D8F08B3279F038F4803279F08332A1F4D7
:100AA000232D20611DC08D3261F0803369F4232D28
:100AB000216016C0832D8260382EE32DE4603E2E27
:100AC0002AC0F32DF8601DC037FC2DC020ED280F83
:100AD0002A3040F08E32B9F436FC75C1232D2064E3
:100AE000322E19C036FE06C08AE0989E200D1124D1
:100AF000922E11C0EAE02E9E200D1124222EF32DFD
:100B0000F0623F2E08C08C3621F4832D8068382E89
:100B100002C0883641F4F70193FD859193FF8191DE
:100B20007F018111B3CF982F9F7D9554933028F486
:100B30000C5F1F4F9FE399830DC0833631F08337DD
:100B400071F0833509F055C020C0F8018081898398
:100B50000E5F1F4F88248394912C530112C02801EB
:100B6000F2E04F0E511CF801A080B18036FE03C0A8
:100B7000692D70E002C06FEF7FEFC50138D14C01E5
:100B80008201F32DFF773F2E15C0280122E0420E8F
:100B9000511CF801A080B18036FE03C0692D70E0C1
:100BA00002C06FEF7FEFC50117D14C01F32DF06844
:100BB0003F2E820133FC19C0822D90E088169906E1
:100BC000A0F4B60180E290E01DD12A94F5CFF501A2
:100BD00037FC859137FE81915F01B60190E012D11B
:100BE00021102A9421E0821A91088114910479F746
:100BF000E1C0843611F0893639F5F80137FE07C0B7
:100C000060817181828193810C5F1F4F08C0608178
:100C10007181072E000C880B990B0E5F1F4FF32D6F
:100C2000FF763F2E97FF09C090958095709561954E
:100C30007F4F8F4F9F4FF0683F2E2AE030E0A30197
:100C40001DD1882E861844C0853731F4232D2F7E80
:100C5000B22E2AE030E025C0932D997FB92E8F3631
:100C6000C1F018F4883579F0AEC0803719F08837B4
:100C700021F0A9C0E92FE061BE2EB4FE0DC0FB2D0E
:100C8000F460BF2E09C034FE0AC0292F2660B22EA0
:100C900006C028E030E005C020E130E002C020E1DD
:100CA00032E0F801B7FE07C06081718182819381D3
:100CB0000C5F1F4F06C06081718180E090E00E5F85
:100CC0001F4FA301DBD0882E8618FB2DFF773F2E08
:100CD00036FE0DC0232D2E7FA22E891458F434FE2B
:100CE0000BC032FC09C0832D8E7EA82E05C0B82C07
:100CF000A32C03C0B82C01C0B92CA4FE0FC0FE0168
:100D0000E80DF11D8081803321F49A2D997EA92E62
:100D100009C0A2FE06C0B394B39404C08A2D86789D
:100D200009F0B394A3FC10C0A0FE06C0B21480F476
:100D3000280C922C9B180DC0B21458F4B60180E216
:100D400090E060D0B394F8CFB21418F42B1802C01E
:100D5000982C212CA4FE0FC0B60180E390E052D065
:100D6000A2FE16C0A1FC03C088E790E002C088E59F
:100D700090E0B6010CC08A2D867851F0A1FE02C029
:100D80008BE201C080E2A7FC8DE2B60190E03AD090
:100D9000891430F4B60180E390E034D09A94F8CF0F
:100DA0008A94F301E80DF11D8081B60190E02AD00C
:100DB0008110F6CF222009F44ECEB60180E290E0F9
:100DC00021D02A94F7CFF6018681978102C08FEF58
:100DD0009FEF2B96E2E1C9C0FC0105906150704085
:100DE0000110D8F7809590958E0F9F1F0895FC01F4
:100DF0006150704001900110D8F7809590958E0F4A
:100E00009F1F08950F931F93CF93DF93FB012381BF
:100E100021FD03C08FEF9FEF2CC022FF16C046813B
:100E20005781248135814217530744F4A081B18151
:100E30009D012F5F3F4F208331838C932681378123
:100E40002F5F3F4F2683378314C08B01EC01FB01DA
:100E50000084F185E02D0995892BE1F6D8011696DD
:100E60008D919C911797019616968D939C93179749
:100E7000CE01DF91CF911F910F910895FA01AA271A
:100E8000283051F1203181F1E8946F936E7F6E5FCD
:100E90007F4F8F4F9F4FAF4FB1E03ED0B4E03CD07B
:100EA000670F781F891F9A1FA11D680F791F8A1F5E
:100EB000911DA11D6A0F711D811D911DA11D20D0C5
:100EC00009F468943F912AE0269F11243019305D7F
:100ED0003193DEF6CF010895462F4770405D419370
:100EE000B3E00FD0C9F7F6CF462F4F70405D4A33BD
:100EF00018F0495D31FD4052419302D0A9F7EACF85
:100F0000B4E0A6959795879577956795BA95C9F7B3
:100F100000976105710508959B01AC010A2E0694A6
:100F20005795479537952795BA95C9F7620F731F5F
:100F3000841F951FA01D08952F923F924F925F929C
:100F40006F927F928F929F92AF92BF92CF92DF92D9
:100F5000EF92FF920F931F93CF93DF93CDB7DEB73E
:100F6000CA1BDB0BCDBFDEBF09942A8839884888AD
:100F70005F846E847D848C849B84AA84B984C884B5
:100F8000DF80EE80FD800C811B81AA81B981CE0FAC
:0E0F9000D11DCDBFDEBFED010895F894FFCF57
:100F9E004D530D0052503125642E25642564525058
:100FAE003225642E25642564525131256C752E3000
:100FBE0052563125642E256425640D00496E636FEB
:0F0FCE00727265637420436F6D6D616E640D0008
:100FDD0000000002000000004100000000002000A1
:060FED00000000000000FE
:00000001FF
