:100000000C943C000C9446000C9446000C94460062
:100010000C9446000C9446000C9446000C94460048
:100020000C9446000C9446000C9446000C94460038
:100030000C9446000C9446000C9446000C94460028
:100040000C9446000C9446000C9446000C94460018
:100050000C9446000C9446000C9446000C94460008
:100060000C9446000C9446000C9446000C944600F8
:100070000C9446000C94460011241FBECFEFCDBF58
:10008000DFE3DEBF0E9470000C947D000C94000042
:1000900088ED84BF1092610084BF81E0809360008E
:1000A0000895E0E0F4E106C011928DE984BF83E099
:1000B00080930010E11585E1F807B4F3089580936B
:1000C000E4149DE994BFE0E0F0E183E08083609375
:1000D000E51494BF80834093E61494BF8083089511
:1000E0000E9448000E94510042E050E069E670E042
:0E00F00089E690E00E945F00FFCFF894FFCFFA
:00000001FF
