S02B0000484C565F417474696E79313632365F436F6E66696775726163696F6E5F496E696369616C2E7372650D
S11300000C943C000C9446000C9446000C9446005E
S11300100C9446000C9446000C9446000C94460044
S11300200C9446000C9446000C9446000C94460034
S11300300C9446000C9446000C9446000C94460024
S11300400C9446000C9446000C9446000C94460014
S11300500C9446000C9446000C9446000C94460004
S11300600C9446000C9446000C9446000C944600F4
S11300700C9446000C94460011241FBECFEFCDBF54
S1130080DFE3DEBF0E947C000C948B000C94000024
S113009088ED84BF1092610084BF81E0809360008A
S11300A00895E0E0F4E106C011928DE984BF83E095
S11300B080930010E11585E1F807B4F30895809367
S11300C0E4149DE994BFE0E0F0E183E08083609371
S11300D0E51494BF80832093EC1494BF8083309301
S11300E0ED1494BF80834093EE1494BF80835093A7
S11300F0EF1494BF808308950E9448000E94510029
S113010020E030E04AE754E461E470E081E490E008
S10D01100E945F00FFCFF894FFCFB8
S9030000FC
