S0210000484C562D417474696E79313632365F426F726F6E5F57616B652E737265635E
S11300000C94E4000C9401010C9401010C94010182
S11300100C9401010C9401010C9401010C94010154
S11300200C9456050C9401010C9401010C940101EB
S11300300C9401010C9401010C9401010C94010134
S11300400C9401010C94DA010C9401010C9401014B
S11300500C9401010C9401010C9401010C94010114
S11300600C9479050C9401010C9401010C94010188
S11300700C9401010C9401016E616E00696E6600BE
S113008000407A10F35A00A0724E18090010A5D44B
S1130090E80000E87648170000E40B54020000CAA8
S11300A09A3B000000E1F5050000809698000000EE
S11300B040420F000000A08601000000102700004D
S11300C00000E803000000006400000000000A00D3
S11300D0000000000100000000002C76D888DC67D6
S11300E04F0823DFC1DFAE59E1B1B796E5E3E4532E
S11300F0C63AE651997696E8E6C28426EB898C9B4B
S113010062ED407C6FFCEFBC9C9F40F2BAA56FA5EA
S1130110F490055A2AF75C936B6CF9676DC11BFC6C
S1130120E0E40D47FEF520E6B500D0ED902E030087
S1130130943577050080841E080000204E0A0000D4
S113014000C80C333333330F986E12831141EF8D93
S11301502114893BE65516CFFEE6DB18D1844B38D3
S11301601BF77C1D901DA4BBE424203284725E2204
S11301708100C9F124ECA1E53D276364696E6F70C9
S1130180737578585B65666745464700616E006E17
S113019066696E69747900CDCCCC3D0AD7233C17CF
S11301A0B7D13877CC2B329595E6241FB14F0A008E
S11301B00020410000C84200401C4620BCBE4CCA7E
S11301C01B0E5AAEC59D740011241FBECFEFCDBFC8
S11301D0DFE3DEBF18E3A0E0B8E3EDEEF7E302C02F
S11301E005900D92A034B107D9F729E3A0E4B8E350
S11301F001C01D92AE30B207E1F70E944E0D0C947F
S11302001E1B0C940000CF93DF93C0E4D4E08881DC
S1130210877F88838B89877F8B8B8B8982608B8B8D
S1130220A0E0B4E08C918B7F8C938C9182608C9352
S1130230E0E2F4E08081846080838489877F848B1A
S113024084818B7F84838881826088838989877F86
S1130250898B8C818D7F8C838489887F848B84892E
S11302608460848B8489877F848B55968C91559781
S1130270887F55968C93559755968C9155978460A5
S113028055968C93559755968C915597877F55968F
S11302908C93559793E091838089877F808B948397
S11302A08189877F818B56968C915697887F569645
S11302B08C93569756968C915697846056968C9349
S11302C0569756968C915697877F56968C93569749
S11302D08081806280838589877F858B84818F7DFF
S11302E084838C9188608C9353968C915397877FE9
S11302F053968C93539714968C911497877F1496E6
S11303008C93DF91CF91089580E008C0E82FF0E04E
S1130310E05FFB4F9081986090838F5F8830B0F3EB
S113032080E008C0E82FF0E0E05DFB4F908198602A
S113033090838F5F8630B0F380E008C0E82FF0E050
S1130340E05BFB4F9081986090838F5F8430B0F3C3
S1130350089588ED84BF1092610084BF81E080938A
S1130360600008959091040895FFFCCF80930208E3
S113037008950E94B20180E090E0089580910408FD
S11303808823E4F7809100080895E0E0F8E08DE622
S113039090E08087918780EC868380E880930508CD
S11303A081E08093E20580E098E380930A3990939A
S11303B00B3908951F920F920FB60F9211242F93A9
S11303C03F934F935F936F937F938F939F93AF93D9
S11303D0BF93EF93FF930E94BE0180930539882356
S11303E081F08D3071F090916E38E92FF0E0E25F8A
S11303F0F74C80839F5F90936E38933310F0109284
S11304006E388D3009F04FC0E0916E38F0E0E25F55
S1130410F74C808310926E388091D338811111C0CB
S11304209091A13891110DC090916F38911109C02C
S113043042E350E06EE078E383ED98E30E947019A4
S113044025C0882389F09091A13891110DC0909115
S11304506F38911109C042E350E06EE078E381EA1D
S113046098E30E94701912C0882381F08091A1380A
S1130470882361F080916F38811108C042E350E015
S11304806EE078E38FE698E30E94701982E3EEE071
S1130490F8E3DF011D928A95E9F781E090E080930B
S11304A06C3890936D38FF91EF91BF91AF919F910C
S11304B08F917F916F915F914F913F912F910F9009
S11304C00FBE0F901F901895FC0160838DE984BFC7
S11304D083E0809300100895FC0180810895E0E09A
S11304E0F6E081E0818386E08283089581E1809350
S11304F00A068091050680FFFCCFE0E0F6E081E08B
S1130500858380899189A289B38908958F929F9266
S1130510AF92BF92CF92DF92EF92FF92CF93DF938D
S113052086309105C9F08930910519F0059771F469
S113053007C0E0E0F6E081E0808389E0848706C0BC
S1130540E0E0F6E081E0808385E08487C0E0D0E0ED
S1130550C12CD12C760137C0E0E0F6E081E0808345
S113056086E08487F3CF0E947602BC0180E090E0AD
S11305700E94610F20E030E040E250E40E94F40F5A
S113058020E030E040E859E30E94F40F20E030E03E
S113059040E05FE30E94F40F4B015C0120E030E097
S11305A040E05FE3C701B6010E94F40F9B01AC0178
S11305B0C501B4010E94830E6B017C01219683E383
S11305C093E00197F1F7C431D1056CF2E0E0F6E075
S11305D080818E7F8083C701B601DF91CF91FF9028
S11305E0EF90DF90CF90BF90AF909F908F90089541
S11305F080E09091A508907C29F49091A5089C70C6
S113060019F403C081E001C082E0882391F30895C6
S1130610EF92FF920F931F93CF93DF938C017B0193
S11306208FEF9FE00197F1F700C00000E0EAF8E0E7
S1130630168283E083831782108688E08483858111
S1130640806C858381E0858381E587838091A5081B
S113065084FDFCCF83E08093A40801301105A9F444
S11306609091A5088091A8081F929F931F928F9341
S113067080E496EB9F938F930E94451A0F900F90FE
S11306800F900F900F900F9004C09AED9A95F1F788
S113069000C0E0EAF8E088E084838581806C85838B
S11306A00130110529F089E991E00197F1F700C0C3
S11306B081E58093A7080E94F802813009F0A8C060
S11306C08091A808C82FD0E00130110599F49091C9
S11306D0A5081F929F931F928F938EE596EB9F938D
S11306E08F930E94451A0F900F900F900F900F90C8
S11306F00F9005C089E991E00197F1F700C0EA94F1
S1130700EF2809F062C0E0EAF8E014828085E82E60
S1130710F12C0130110599F49091A5081F929F9333
S11307201F928F9384E796EB9F938F930E94451AB1
S11307300F900F900F900F900F900F9006C08CECBD
S113074094E00197F1F700C00000E0EAF8E01482B9
S113075080850130110599F49091A5081F929F930B
S11307601F928F9389E896EB9F938F930E94451A6B
S11307700F900F900F900F900F900F9005C089E984
S113078091E00197F1F700C0E0EAF8E083E08483A8
S113079080850130110599F49091A5081F929F93CB
S11307A01F928F938FE996EB9F938F930E94451A24
S11307B00F900F900F900F900F900F902DC089E91C
S11307C091E00197F1F700C027C0E0EAF8E083E088
S11307D084838085E82EF12C0130110599F49091E1
S11307E0A5081F929F931F928F9384E796EB9F9384
S11307F08F930E94451A0F900F900F900F900F90B7
S11308000F900AC089E991E00197F1F700C004C094
S1130810E12CF12CC0E0D0E0E0EAF8E083818E7FA7
S11308208383DC2FCC27CE29DF290130110561F425
S1130830DF93CF9384EB96EB9F938F930E94451A9B
S11308400F900F900F900F90CE01DF91CF911F91D9
S11308500F91FF90EF900895CF92DF92EF92FF9265
S11308600F931F93CF93DF93CDB7DEB72C97CDBFF4
S1130870DEBF6B017C0100E010E026C0C801885196
S11308809B4E0E946C02E1E0F0E0EC0FFD1FE00FD4
S1130890F11F8083C80184519B4E0E946C02E5E0E5
S11308A0F0E0EC0FFD1FE00FF11F8083C8018051C1
S11308B09B4E0E946C02E9E0F0E0EC0FFD1FE00F9C
S11308C0F11F80830F5F1F4F04301105BCF2698153
S11308D07A818B819C81A70196010E94EF0F882366
S11308E0ACF42D813E814F815885C701B6010E9429
S11308F0F40F29853A854B855C850E94820E23E39B
S113090033E343E251E40E94F40F03C060E070E07B
S1130910CB012C96CDBFDEBFDF91CF911F910F91FC
S1130920FF90EF90DF90CF900895CF92DF92EF92F7
S1130930FF920F931F93CF93DF93CDB7DEB72C971E
S1130940CDBFDEBF6B017C0100E010E026C0C80112
S11309508C509B4E0E946C02E1E0F0E0EC0FFD1F16
S1130960E00FF11F8083C80188509B4E0E946C02E7
S1130970E5E0F0E0EC0FFD1FE00FF11F8083C801FC
S113098084509B4E0E946C02E9E0F0E0EC0FFD1FE6
S1130990E00FF11F80830F5F1F4F04301105BCF27D
S11309A069817A818B819C81A70196010E94EF0F56
S11309B08823ACF42D813E814F815885C701B6014F
S11309C00E94F40F29853A854B855C850E94820E2E
S11309D023E333E343E251E40E94F40F03C060E0F5
S11309E070E0CB012C96CDBFDEBFDF91CF911F917C
S11309F00F91FF90EF90DF90CF9008950F931F9386
S1130A00CF93DF938C01EB0161307105D1F4083E83
S1130A1083E01807D4F0B801685E7340072E000C19
S1130A20880B990B0E94630F23E333E343E251E401
S1130A300E94F40F20E030E04AEF54E40E94EF0EED
S1130A4007C060E070E0CB0103C060E070E0CB0160
S1130A502297B9F4083E83E0180784F0B801685E71
S1130A607340072E000C880B990B0E94630F2CEE29
S1130A7031E545E852E40E94EF0E03C060E070E007
S1130A80CB01DF91CF911F910F910895E0E0FAE03F
S1130A9080E090E486A397A381E080838287089511
S1130AA0E0E0FAE080818E7F808308951F920F92A8
S1130AB00FB60F9211248F939F9380916638909173
S1130AC067380196809366389093673880916838C8
S1130AD0909169380196809368389093693881E0E1
S1130AE080930B0A9F918F910F900FBE0F901F90D0
S1130AF018951F920F920FB60F921124CF92DF9286
S1130B00EF92FF922F933F934F935F936F937F9353
S1130B108F939F93AF93BF93EF93FF93809160382C
S1130B2090916138A0916238B09163380196A11D0B
S1130B30B11D8093603890936138A0936238B0936C
S1130B4063380E945005A89586EE94E10E946C02D9
S1130B50823069F0833029F0813031F4AAE0B0E0CA
S1130B6008C0A8EEB3E005C0A1E0B0E002C0A4E66E
S1130B70B0E08091683890916938181619063CF4F1
S1130B80809168389091693881329E444CF010927B
S1130B905C3810925D3810925E3810925F3838C01D
S1130BA020916038309161384091623850916338B7
S1130BB00E9410180E94610F6B017C0160916838DB
S1130BC070916938072E000C880B990B0E94630FF3
S1130BD020E030E040E05FE30E94F40F9B01AC01B1
S1130BE0C701B6010E94EF0E60935C3870935D38C4
S1130BF080935E3890935F38109268381092693809
S1130C0010926038109261381092623810926338F2
S1130C10A8958091643890916538019680936438E2
S1130C209093653880916A3890916B380197C1F43C
S1130C3080915F388F9380915E388F9380915D3877
S1130C408F9380915C388F9388EC96EB9F938F936E
S1130C500E94451A0F900F900F900F900F900F90D5
S1130C60E9E4F4E08081886080830E944605FF9176
S1130C70EF91BF91AF919F918F917F916F915F9110
S1130C804F913F912F91FF90EF90DF90CF900F9075
S1130C900FBE0F901F901895EF92FF920F931F9322
S1130CA0CF93DF93CDB7DEB72C97CDBFDEBF8C01DA
S1130CB064ED76EB0E948A19892B71F08FEF9FE126
S1130CC00197F1F700C0000088ED84BFE1E4F0E093
S1130CD081E0808380E1808368ED76EBC8010E9427
S1130CE08A19892BF1F084EE94E10E946C02182F8A
S1130CF08093063985EE94E10E946C028093073953
S1130D001F928F931F921F938CED96EB9F938F935B
S1130D100E94451A0F900F900F900F900F900F9014
S1130D20B3C668EE76EBC8010E948A19892BB1F12B
S1130D3086EE94E10E946C0290E080934638909392
S1130D4047388230910579F02CF4009749F00197E7
S1130D50B1F012C08330910549F0049751F00CC0F2
S1130D6080E090E00EC084E690E00BC088EE93E053
S1130D7008C080E197E205C081E090E002C08AE00B
S1130D8090E09F938F938CEE96EB9F938F930E94AA
S1130D90451A0F900F900F900F9076C663EF76EB85
S1130DA0C8010E948A19892BE1F439C0C80188500E
S1130DB09B4E0E946C02E5E0F0E0EC0FFD1FE00F9B
S1130DC0F11F8083C80184509B4E0E946C02E1E0B5
S1130DD0F0E0EC0FFD1FE00FF11F80830F5F1F4F4A
S1130DE002C000E010E00430110504F349815A8187
S1130DF06B817C818D819E812F8138857F936F9358
S1130E005F934F933F932F939F938F9388EF96EB2A
S1130E109F938F930E94451ACDBFDEBF35C66FE006
S1130E2077EBC8010E948A19892BE1F439C0C80103
S1130E3084519B4E0E946C02E5E0F0E0EC0FFD1F34
S1130E40E00FF11F8083C80180519B4E0E946C0209
S1130E50E1E0F0E0EC0FFD1FE00FF11F80830F5F76
S1130E601F4F02C000E010E00430110504F3498173
S1130E705A816B817C818D819E812F8138857F93FE
S1130E806F935F934F933F932F939F938F9384E13B
S1130E9097EB9F938F930E94451ACDBFDEBFF4C595
S1130EA0F801F080F7E5FF1214C0F8018181833561
S1130EB081F4628184EE94E10E946402F80163810A
S1130EC085EE94E10E94640289ED96EB0E945B1A20
S1130ED0DBC56BE277EBC8010E948A19892B81F18B
S1130EE06EE277EBC8010E946219009709F524C0ED
S1130EF0F1E0EF16F10491F42AE638E33F932F93DF
S1130F0020E337EB3F932F939F938F930E948B1A89
S1130F100F900F900F900F900F900F906EE277EB61
S1130F2080E090E00E9462192FEFE21AF20A02C0F8
S1130F30E12CF12C0097E1F6C8010E945B1AA4C5CC
S1130F4060E177EBC8010E948A19892B09F483C0F8
S1130F506EE277EBC8010E9462190097C1F53BC0AD
S1130F600130110521F002301105A9F027C09E01BE
S1130F702B5F3F4F3F932F9323E337EB3F932F9305
S1130F809F938F930E948B1A0F900F900F900F9046
S1130F900F900F9013C09E012F5F3F4F3F932F93ED
S1130FA023E337EB3F932F939F938F930E948B1AE6
S1130FB00F900F900F900F900F900F906EE277EBC1
S1130FC080E090E00E9462190F5F1F4F02C000E0B2
S1130FD010E0009729F669817A818B819C812D81AB
S1130FE03E814F8158850E94EF0E69877A878B87EF
S1130FF09C87A89500E010E026C0E9E0F0E0EC0F43
S1131000FD1FE00FF11F6081C80188519B4E0E94B3
S11310106402E5E0F0E0EC0FFD1FE00FF11F6081DA
S1131020C80184519B4E0E946402E1E0F0E0EC0FA1
S1131030FD1FE00FF11F6081C80180519B4E0E948B
S113104064020F5F1F4F04301105BCF286E397EB77
S11310500E945B1A19C564EF76EBC8010E948A19D5
S1131060892B09F483C06EE277EBC8010E946219F0
S11310700097C1F53BC00130110521F00230110584
S1131080A9F027C09E012B5F3F4F3F932F9323E38B
S113109037EB3F932F939F938F930E948B1A0F905C
S11310A00F900F900F900F900F9013C09E012F5F21
S11310B03F4F3F932F9323E337EB3F932F939F931C
S11310C08F930E948B1A0F900F900F900F900F9098
S11310D00F906EE277EB80E090E00E9462190F5F60
S11310E01F4F02C000E010E0009729F669817A8161
S11310F08B819C812D813E814F8158850E94EF0E0A
S113110069877A878B879C87A89500E010E026C0C2
S1131110E9E0F0E0EC0FFD1FE00FF11F6081C80172
S11311208C509B4E0E946402E5E0F0E0EC0FFD1F42
S1131130E00FF11F6081C80188509B4E0E94640239
S1131140E1E0F0E0EC0FFD1FE00FF11F6081C8014A
S113115084509B4E0E9464020F5F1F4F04301105A0
S1131160BCF286E397EB0E945B1A8EC469E377EBCB
S1131170C8010E946719892B09F03CC284EE94E1EE
S11311800E946C02182F8093063985EE94E10E9428
S11311906C02082F8093073986EE94E10E946C025A
S11311A090E08093463890934738E0E2F4E08481FD
S11311B080628483103511F0003579F4A89580E0BD
S11311C090E0DC0104C0A8950196A11DB11D811514
S11311D0E0E49E07A105B105B0F3103509F471C030
S11311E030F4113409F4E9C0193439F0ECC019367B
S11311F0B1F1103709F4A3C0E6C000E014E0F8012F
S11312008481806884838481886084838FEF9FE1F4
S11312100197F1F700C00000A89560E070E08091AC
S11312206A3890916B380E94080362E070E00E9473
S1131230FE046093503870935138809352389093E1
S11312405338F80184818F7784838481877F8483F2
S11312508FEF9FE10197F1F700C00000B4C000E0F8
S113126014E0F801848180688483848188608483A5
S11312708FEF9FE10197F1F700C00000A89560E0AF
S113128070E080916A3890916B380E94080361E0A5
S113129070E00E94FE04609350387093513880933C
S11312A0523890935338F80184818F7784838481F2
S11312B0877F84838FEF9FE10197F1F700C00000DF
S11312C082C0A89589E090E00E948602262F372FDD
S11312D0462F572F682F792F4093583850935938F9
S11312E060935A3870935B3840916A3850916B38E8
S11312F04130510581F49F938F933F932F938DE356
S113130097EB9F938F930E94451A0F900F900F9025
S11313100F900F900F9060915838709159388091C8
S11313205A3890915B380E949504609350387093BA
S113133051388093523890935338A89544C0A89557
S113134089E090E00E948602262F372F462F572FE0
S1131350682F792F409358385093593860935A38EE
S113136070935B3840916A3850916B384130510525
S113137081F49F938F933F932F938DE397EB9F93E8
S11313808F930E94451A0F900F900F900F900F901B
S11313900F90609158387091593880915A389091D3
S11313A05B380E9495046093503870935138809351
S11313B0523890935338A89506C081E090E080930A
S11313C044389093453880910739803509F478C0C2
S11313D030F4813409F4F0C0893439F0F3C089362B
S11313E0B9F1803709F4AAC0EDC06894EE24E6F898
S11313F0FF24F2F8F70184818460848300E014E020
S1131400F8018481886084838FEF9FE10197F1F76D
S113141000C00000A89560E070E080916A38909167
S11314206B380E94080362E070E00E94FE0460933F
S11314304C3870934D3880934E3890934F38F70161
S113144084818B7F8483F8018481877F8483BAC0FD
S11314506894EE24E6F8FF24F2F8F70184818460AE
S1131460848300E014E0F8018481886084838FEF32
S11314709FE10197F1F700C00000A89560E070E0DB
S113148080916A3890916B380E94080361E070E0A3
S11314900E94FE0460934C3870934D3880934E380C
S11314A090934F38F70184818B7F8483F801848182
S11314B0877F848386E696E00197F1F7000082C077
S11314C0A89585E090E00E948602262F372F462FAC
S11314D0572F682F792F4093543850935538609381
S11314E056387093573840916A3850916B38413070
S11314F0510581F49F938F933F932F9382E597EB4C
S11315009F938F930E94451A0F900F900F900F9006
S11315100F900F90609154387091553880915638DF
S1131520909157380E942C0460934C3870934D3836
S113153080934E3890934F38A89544C0A89585E081
S113154090E00E948602262F372F462F572F682FB0
S1131550792F40935438509355386093563870938C
S1131560573840916A3850916B384130510581F4B5
S11315709F938F933F932F9382E597EB9F938F9342
S11315800E94451A0F900F900F900F900F900F909C
S113159060915438709155388091563890915738ED
S11315A00E942C0460934C3870934D3880934E38CD
S11315B090934F38A89506C081E090E0809342381C
S11315C090934338E0E2F4E084818F7D848386E065
S11315D090E00E94860220E030E040EA50E40E945D
S11315E0F40F609348387093493880934A38909345
S11315F04B384AC267E677EBC8010E946719892B0A
S113160009F024C18091443890914538892B09F020
S11316105AC08091423890914338019709F053C0E1
S11316208091463890914738892B09F44CC08091B9
S11316304B388F9380914A388F93809149388F9398
S1131640809148388F9380915F388F9380915E3872
S11316508F9380915D388F9380915C388F938091C4
S113166053388F93809152388F93809151388F9350
S1131670809150388F938BE697EB9F938F930E94C2
S1131680451A109258381092593810925A381092BC
S11316905B3810925C3810925D3810925E3810926C
S11316A05F3810925038109251381092523810927C
S11316B05338109248381092493810924A38109290
S11316C04B38CDBFDEBF8091443890914538892B8B
S11316D009F076C08091423890914338892B09F003
S11316E06FC08091463890914738892B09F468C0BF
S11316F080914B388F9380914A388F9380914938E9
S11317008F93809148388F9380914F388F93809135
S11317104E388F9380914D388F9380914C388F93AE
S113172080915F388F9380915E388F9380915D387C
S11317308F9380915C388F93809153388F938091ED
S113174052388F93809151388F93809150388F9372
S113175080E897EB9F938F930E94451A1092583814
S11317601092593810925A3810925B3810925438AB
S113177010925538109256381092573810925C389F
S113178010925D3810925E3810925F381092503883
S113179010925138109252381092533810924C389B
S11317A010924D3810924E3810924F38109248389B
S11317B01092493810924A3810924B38CDBFDEBF90
S11317C08091443890914538892B09F45DC180910A
S11317D0423890914338892B09F456C18091463898
S11317E090914738892B09F44FC180914B388F93DE
S11317F080914A388F93809149388F9380914838EB
S11318008F9380915F388F9380915E388F9380910E
S11318105D388F9380915C388F938BE997EB9F931E
S11318208F930E94451A10925C3810925D38109282
S11318305E3810925F3810924838109249381092EE
S11318404A3810924B38CDBFDEBF1EC16AEA77EB2F
S1131850C8010E946719892B09F065C08091463838
S113186090914738892B29F48EEA97EB0E945B1AF2
S11318700BC187EE94E10E946C02F4E08F9F70012B
S1131880112400E010E00FC0C8018E0D9F1D9C5E66
S11318900E946C02E1E0F0E0EC0FFD1FE00FF11F8D
S11318A080830F5F1F4F0430110574F389819A817F
S11318B02B813C813F932F939F938F9380EC97EBE5
S11318C09F938F930E94451A0F900F900F900F9043
S11318D00F900F9000E010E009C0C8018E0D9F1D0D
S11318E060E09C5E0E9464020F5F1F4F043011058C
S11318F0A4F387EE94E10E946C02682F70E06F5F9E
S11319007F4F87EE94E10E94640287EE94E10E9487
S11319106C0290E0C9970CF4B7C060E087EE94E1E4
S11319200E946402B1C02CE4F21277C0F8018181F4
S1131930843509F072C082818C3209F06EC019823C
S11319401A826EE277EBC8010E946219009701F5D2
S113195023C00130110599F49E012F5F3F4F3F933F
S11319602F9320E337EB3F932F939F938F930E9402
S11319708B1A0F900F900F900F900F900F906EE2B4
S113198077EB80E090E00E9462190F5F1F4F02C066
S113199000E010E00097E9F689819A818A30910588
S11319A051F461E086EE94E10E94640289EE96EBC4
S11319B00E945B1A69C08436910551F462E086EE98
S11319C094E10E94640289EE96EB0E945B1A5CC06B
S11319D0883EF3E09F0751F463E086EE94E10E94B1
S11319E0640289EE96EB0E945B1A4EC080319742E6
S11319F051F464E086EE94E10E94640289EE96EB71
S1131A000E945B1A41C060E086EE94E10E94640289
S1131A1089EE96EB0E945B1A37C068EC77EBC8013D
S1131A200E946719892BA9F48CEC97EB9F938F93F1
S1131A300E94451AE0E2F4E084818460848383E3B5
S1131A4093E00197F1F784818B7F84830F900F904B
S1131A501BC068ED77EBC8010E946719892BA1F4BC
S1131A608CED97EB9F938F930E94451AE0E4F4E08A
S1131A7084818260848383E393E00197F1F7848116
S1131A808D7F84830F900F902C96CDBFDEBFDF91A6
S1131A90CF911F910F91FF90EF900895CF93DF9313
S1131AA000D000D0CDB7DEB70E94A9010E94840106
S1131AB00E9403010E946F02E0E0F4E080818068EC
S1131AC080838789877F878B84818F778483E0E411
S1131AD0F4E08081846080838289877F828B848123
S1131AE08B7F848388ED84BF8BE08093000182E345
S1131AF0EEE0F8E3DF011D928A95E9F70E94C50143
S1131B00789483E393E00197F1F787EE97EB0E94D3
S1131B105B1A80916C3890916D38019709F057C029
S1131B2083ED98E30E944C068091A138882341F10B
S1131B3090916F38992321F112E3E3EDF8E3DF018B
S1131B40212F1D922A95E9F742E350E061EA78E3F8
S1131B50CF010E947019E1EAF8E3DF01212F1D9201
S1131B602A95E9F742E350E06FE678E3CF010E945B
S1131B707019EFE6F8E3DF011D921A95E9F727C023
S1131B808823D1F080916F38811116C012E3E3ED00
S1131B90F8E3DF01212F1D922A95E9F742E350E093
S1131BA061EA78E3CF010E947019E1EAF8E3DF010A
S1131BB01D921A95E9F70BC082E3E3EDF8E3DF0128
S1131BC01D928A95E9F710926C3810926D388091C5
S1131BD0463890914738892B09F48CC08091663837
S1131BE09091673880329C410CF484C0A89587EEAC
S1131BF094E10E946C02E82EF12CEE0CFF1CEE0C1A
S1131C00FF1C86EE94E10E946C028230A9F08330BE
S1131C1041F0813069F40F2EFAE0CF2ED12CF02D53
S1131C2010C00F2EF8EECF2EF3E0DF2EF02D09C0FA
S1131C30CC24C394D12C05C00F2EF4E6CF2ED12C86
S1131C40F02D00E010E00FC0C8018E0D9F1D9C5EBA
S1131C500E946C02E1E0F0E0EC0FFD1FE00FF11FC9
S1131C6080830F5F1F4F0430110574F36091643853
S1131C707091653880E090E00E94610F4B015C0137
S1131C80B601DD0C880B990B0E94630FA50194012A
S1131C900E94F40F20E030E04AE754E40E94EF0E83
S1131CA09B01AC0169817A818B819C810E94830EA6
S1131CB069837A838B839C8300E010E00FC0C801A2
S1131CC08E0D9F1DE1E0F0E0EC0FFD1FE00FF11F12
S1131CD060819C5E0E9464020F5F1F4F04301105F7
S1131CE074F3109266381092673810926438109228
S1131CF06538A895109200061092800A109240014F
S1131D00A89507CF5058BB27AA270E949A0E0C9477
S1131D10B50F0E94A70F38F00E94AE0F20F039F4DF
S1131D209F3F19F426F40C94A40F0EF4E095E7FBFE
S1131D300C949E0FE92F0E94C60F58F3BA1762073E
S1131D4073078407950720F079F4A6F50C94E80F3F
S1131D500EF4E0950B2EBA2FA02D0B01B9019001C2
S1131D600C01CA01A0011124FF27591B99F0593F06
S1131D7050F4503E68F11A16F040A22F232F342F4E
S1131D804427585FF3CF469537952795A795F0409C
S1131D905395C9F77EF41F16BA0B620B730B840BB1
S1131DA0BAF09150A1F0FF0FBB1F661F771F881F69
S1131DB0C2F70EC0BA0F621F731F841F48F48795C1
S1131DC077956795B795F7959E3F08F0B0CF9395B3
S1131DD0880F08F09927EE0F9795879508950E942C
S1131DE0030F0C94B50F0E94AE0F58F00E94A70F7A
S1131DF040F029F45F3F29F00C949E0F51110C948C
S1131E00E90F0C94A40F0E94C60F68F39923B1F351
S1131E10552391F3951B550BBB27AA27621773070C
S1131E20840738F09F5F5F4F220F331F441FAA1FA0
S1131E30A9F335D00E2E3AF0E0E832D0915050405C
S1131E40E695001CCAF72BD0FE2F29D0660F771F0A
S1131E50881FBB1F261737074807AB07B0E809F0F0
S1131E60BB0B802DBF01FF2793585F4F3AF09E3F75
S1131E70510578F00C949E0F0C94E90F5F3FE4F346
S1131E80983ED4F3869577956795B795F7959F5FB8
S1131E90C9F7880F911D9695879597F90895E1E004
S1131EA0660F771F881FBB1F621773078407BA0763
S1131EB020F0621B730B840BBA0BEE1F88F7E095BE
S1131EC00895E89409C097FB3EF490958095709529
S1131ED061957F4F8F4F9F4F9923A9F0F92F96E972
S1131EE0BB279395F695879577956795B795F111E7
S1131EF0F8CFFAF4BB0F11F460FF1BC06F5F7F4F84
S1131F008F4F9F4F16C0882311F096E911C0772395
S1131F1021F09EE8872F762F05C0662371F096E89E
S1131F20862F70E060E02AF09A95660F771F881F6D
S1131F30DAF7880F9695879597F9089597F99F672B
S1131F4080E870E060E008959FEF80EC089500243D
S1131F500A941616170618060906089500240A940A
S1131F6012161306140605060895092E0394000C90
S1131F7011F4882352F0BB0F40F4BF2B11F460FF1F
S1131F8004C06F5F7F4F8F4F9F4F089557FD905848
S1131F90440F551F59F05F3F71F04795880F97FB29
S1131FA0991F61F09F3F79F08795089512161306E3
S1131FB01406551FF2CF4695F1DF08C01616170612
S1131FC01806991FF1CF8695710561050894089547
S1131FD0E894BB2766277727CB0197F908950E94D9
S1131FE0611008F48FEF08950E9407100C94B50F48
S1131FF00E94A70F38F00E94AE0F20F0952311F035
S11320000C949E0F0C94A40F11240C94E90F0E94BD
S1132010C60F70F3959FC1F3950F50E0551F629F53
S1132020F001729FBB27F00DB11D639FAA27F00D2D
S1132030B11DAA1F649F6627B00DA11D661F829F54
S11320402227B00DA11D621F739FB00DA11D621F39
S1132050839FA00D611D221F749F3327A00D611D56
S1132060231F849F600D211D822F762F6A2F112438
S11320709F5750409AF0F1F088234AF0EE0FFF1F6B
S1132080BB1F661F771F881F91505040A9F79E3FC2
S1132090510580F00C949E0F0C94E90F5F3FE4F31C
S11320A0983ED4F3869577956795B795F795E79518
S11320B09F5FC1F7FE2B880F911D9695879597F921
S11320C00895990F0008550FAA0BE0E8FEEF1616C5
S11320D01706E807F907C0F012161306E407F50718
S11320E098F0621B730B840B950B39F40A2661F08C
S11320F0232B242B252B21F408950A2609F4A1402F
S1132100A6958FEF811D811D089520FD09C0FC0156
S113211023FD05C022FF02C0738362835183408381
S1132120089544FD17C046FD17C0AB01BC01DA0198
S1132130FB01AA0FBB1FEE1FFF1F1094D1F74A0F1C
S11321405B1F6E1F7F1FCB01BA01660F771F881FAD
S1132150991F09C033E001C034E0660F771F881F60
S1132160991F3150D1F7620F711D811D911D089582
S11321700F931F93CF93DF938C01C8010E94CB1957
S1132180EC0197FD08C00E943B19892BB1F7B801F7
S1132190CE010E94A41ACE01DF91CF911F910F911D
S11321A00895A0E0B0E0E7EDF0E10C941E187C0186
S11321B08B016A01D22F0E94CB199C0133272B3249
S11321C0310521F02D32310559F4D068015011093F
S11321D011F480E06BC0C7010E94CB1997FDF9CFC1
S11321E0CD2FCD7F2D2F207319F5803309F558019C
S11321F081E0A81AB10809F445C0C7010E94CB19AF
S113220097FD40C09C012F7D33272835310551F4BB
S1132210C26402501109B1F1C7010E94CB1997FFA2
S113222007C030C0D6FF02C0C26001C0C2618501D0
S1132230812C912C540120ED280F283080F0C4FF0C
S113224004C0B7010E94A41A1AC02A3040F0C6FF85
S1132250F8CF2F7D3FEE320F363098F727504C2FB2
S1132260C501B4010E9491104B015C01C260015090
S1132270110959F0C7010E94CB1997FFDCCFC1FDAA
S113228004C0A7CF812C912C5401C7FF08C0B0947F
S1132290A09490948094811C911CA11CB11C2C2F9F
S11322A0B501A401C6010E94851081E0CDB7DEB757
S11322B0ECE00C943718A0E2B0E0E1E6F1E10C9414
S11322C01A185C014B017A018E010F5F1F4F6801E0
S11322D080E2F80111928A95E9F7F501538040E014
S11322E050E0612C90E0712CA1E0B0E0F90153FCC6
S11322F0859153FE81918F01482E9F01811103C066
S113230080E090E096C08E3519F44115510551F1E5
S1132310672D70E0641775073CF48D3561F18D32DB
S113232019F4992311F103C0992309F46DC0842D84
S1132330869586958695F601E80FF11D842D8770A4
S11323408D0102C0000F111F8A95E2F7C801908128
S1132350892B8083641459F0461410F44394E7CF16
S11323604A94E5CF7724739403C091E001C090E0D0
S11323704F5F5F4FBBCF992319F08E8180628E83AC
S1132380711003C07724739419C0F6019E012F5D68
S11323903F4F8081809581932E173F07D1F7F2CF6D
S11323A0E114F10431F0F7018083B7016F5F7F4FCF
S11323B07B0171E0871A9108712CF9F0C5010E9424
S11323C0CB1997FD18C0FC01FF2723E0F595E7958D
S11323D02A95E1F7EC0DFD1D208130E0AC0147703A
S11323E0552702C0359527954A95E2F720FDD8CFA9
S11323F0B5010E94A41A711083CFE114F10411F005
S1132400F7011082C80115C0682F66956695669518
S1132410F601E60FF11D682F67708D0102C0000FF1
S1132420111F6A95E2F7B8017081672B6083682EEB
S11324309FCFA096E0E10C9433182F923F924F92D5
S11324405F926F927F929F92AF92BF92CF92DF92F0
S1132450EF92FF920F931F93CF93DF936C018B0145
S11324601A010E94CB19EC0199278B32910529F0AE
S11324708D9781F430E8932E01C0912C01501109FD
S113248011F480E00CC1C6010E94CB19EC0197FF46
S113249002C0F7CF912CCE010E94441989369105D0
S11324A031F08E36910599F5CCE8D1E002C0CFE841
S11324B0D1E02196FE013197B490BB20C9F00150C0
S11324C0110991F0C6010E94CB197C0197FD0CC043
S11324D00E9444199927EB2DF0E08E179F0749F3CA
S11324E0B601C7010E94A41AC259D14051F603C0D3
S11324F0CF58D14029F080E090E0A0E8BFE704C0C5
S113250080E090E0A0ECBFE7BC01CD01B8C0412C55
S1132510512C3201E12CF12C2C2F20532A3010F5B0
S1132520E92DE260BE2E892D887092FE06C08111CD
S113253020C0FFEFEF1AFF0A1CC0882319F081E0C6
S1132540E81AF10840E2C301B2010E9491102B0184
S11325503C01683979498949994158F0F92DF66067
S1132560BF2E07C02E3F89F493FC0FC0292D28608D
S1132570B22E0150110941F0C6010E94CB19EC01A1
S11325809B2C97FFC9CF01C09B2C91FE7ACFCE0123
S11325908F7D99278534910509F042C0580181E067
S11325A0A81AB10809F46DCFC6010E94CB19EC0139
S11325B097FD67CF99278B32910529F08D9769F4A0
S11325C0E92DE0619E2E5801F2E0AF1AB10809F43A
S11325D058CFC6010E94CB19EC01CE01C0970A97CF
S11325E008F04FCF8501A12CB12CB501BB0C880B91
S11325F0990B2C2F205340E20E9491105B01015053
S1132600110939F0C6010E94CB19EC01C0970A9751
S113261060F394FE03C0B194A194B108EA0CFB1CCE
S1132620012B31F0D7FD04C0B601CE010E94A41ADB
S1132630C301B2010E94610FF7FE06C0F194E19458
S1132640F108CBEAD1E002C0C3ECD1E06E0128E18D
S1132650C21AD10800E210E0E016F10650F0FE01C3
S113266025913591459154910E94F40FE01AF10A95
S1132670F3CF249716950795CC16DD0669F797FED8
S113268005C0DC01CB01B058BC01CD0121143104DB
S113269029F0F101608371838283938381E0DF9168
S11326A0CF911F910F91FF90EF90DF90CF90BF904B
S11326B0AF909F907F906F905F904F903F902F903E
S11326C00895A0E0B0E0E7E6F3E10C941C185C0187
S11326D0EB014A01FC0116821782612CF50103818A
S11326E0FE0103FD859103FF8191182FEF018823DB
S11326F009F40FC190E00E943B19892B21F0C50118
S11327000E94B810EBCF153241F4FE0103FD159180
S113271003FF1191EF01153281F4C5010E94CB1919
S113272097FDF5C0412F50E09C013327241735074E
S1132730A9F2B5010E94A41AECC01A3241F403FDB7
S1132740159103FF1191EF017724739401C0712C4B
S1132750E12CF12C20ED210F2A3088F4F72DF260C2
S11327607F2EB70180E090E040E20E9491107B014F
S1132770FE0103FD159103FF1191EF01EBCF71FEF3
S113278004C0E114F10421F4C4C0EE24EA94FE2C44
S1132790183619F01C3661F014C0FE0103FD1591C2
S11327A003FF1191EF01183661F4872D8860782EAC
S11327B0972D9460792EFE0103FD159103FF11916D
S11327C0EF01112309F4A5C0612F70E08AE791E0BD
S11327D00E944C19892B09F49CC070FC07C0F401B9
S11327E0C080D180C40102964C0102C0C12CD12CFE
S11327F01E3651F4F5014681578160E070E0272DC3
S1132800C6010E9485106ACF1336B9F471FC03C067
S1132810EE24E394F12CC5010E94CB1997FD77C0F7
S1132820C114D10429F0F6018083C60101966C011C
S113283091E0E91AF10879F766C01B3559F49E0155
S1132840A601B701C5010E945B11EC01892B09F0B7
S11328505AC054C0C5010E94B81097FD58C01F3615
S1132860E1F140F41436A9F11936D1F1183509F023
S11328703EC02BC01337A9F018F4103731F137C01C
S1132880153739F1183709F132C0C114D10429F0D0
S1132890F6010083C60101966C0191E0E91AF10882
S11328A071F0C5010E94CB198C0197FD08C00E94EC
S11328B03B19892B51F3B501C8010E94A41AC11414
S11328C0D10409F1F60110821EC0F72DF0647F2EA9
S11328D007C0872D8062782E03C0972D9061792ED2
S11328E0272DA601B701C5010E94D11005C0A6017C
S11328F0B701C5010E941D12811105C0F501838134
S1132900807329F406C070FCE9CE6394E7CE662098
S113291019F0862D90E002C08FEF9FEFCDB7DEB7A0
S1132920EEE00C943518A0E1B0E0E9E9F4E10C9490
S113293018187C011B016A01FC011682178283812D
S113294081FF44C39E012F5F3F4F3901F7019381FB
S1132950F10193FD859193FF81911F01882309F46F
S113296031C3853239F493FD859193FF81911F0121
S1132970853239F4B70190E00E94091A56016501C5
S1132980E5CF10E0512C912CFFE1F915D8F08B32F2
S113299079F038F4803279F08332A1F4F92DF061C2
S11329A02EC08D3261F0803369F4292D21602DC051
S11329B0392D3260932E892D8460982E2AC0E92DFA
S11329C0E86015C097FC2DC020ED280F2A3088F44C
S11329D096FE06C03AE0139F200D1124122F19C051
S11329E08AE0589E200D1124522EE92DE0629E2E7D
S11329F010C08E3231F496FCE5C2F92DF0649F2E9E
S1132A0008C08C3621F4292D2068922E02C0883605
S1132A1041F4F10193FD859193FF81911F0181118F
S1132A20B3CF9BEB980F933020F4992D9061805E87
S1132A3007C09BE9980F933008F066C1992D9F7EDB
S1132A4096FF16E09F73992E853619F49064992E9B
S1132A5008C0863621F4392F3068932E02C0111134
S1132A60115097FE07C01C3350F444244394410E84
S1132A7027E00BC0183038F027E017E005C027E046
S1132A809CE3492E02C0212F412C560184E0A80E5C
S1132A90B11CF6016081718182819381042DA301AF
S1132AA00E9463186C01F981FC87F0FF02C0F3FFF8
S1132AB006C091FC06C092FE06C000E205C00DE20D
S1132AC003C00BE201C000E08C858C7019F0011189
S1132AD05AC29BC297FE10C04C0CFC85F4FF04C084
S1132AE08A81813309F44A94141474F528E0241576
S1132AF078F588E0482E2CC096FC2AC0812F90E0FF
S1132B008C159D059CF03CEFC3163FEFD30674F083
S1132B10892D8068982E0AC0E2E0F0E0EC0FFD1FDA
S1132B20E10FF11D8081803319F411501111F4CF9C
S1132B3097FE0EC044244394410E812F90E0C816A2
S1132B40D9062CF41C1904C04424439401C010E099
S1132B5097FE06C01C141D0434F4C601019605C07A
S1132B6085E090E002C081E090E00111019611231C
S1132B7031F0212F30E02F5F3F4F820F931F252D1F
S1132B8030E08217930714F4581A01C0512C892D90
S1132B90897049F4552039F0B70180E290E00E9431
S1132BA0091A5A94F7CF002329F0B701802F90E037
S1132BB00E94091A93FC09C0552039F0B70180E33B
S1132BC090E00E94091A5A94F7CF97FE4CC0460130
S1132BD0D7FE02C0812C912CC60188199909F301F2
S1132BE0E80FF91FED87FE879601241931092F8715
S1132BF0388B012F10E01195019511093FEF8316D1
S1132C00930629F4B7018EE290E00E94091AC814D1
S1132C10D9044CF08F8598898815990524F4ED859D
S1132C20FE85818101C080E3F1E08F1A91082D8532
S1132C303E852F5F3F4F2D873E87801691062CF0EF
S1132C40B70190E00E94091AD9CFC814D90441F4FD
S1132C509A81963320F4953319F43C8534FF81E34B
S1132C60B70190E04EC08A81813319F09C859F7E24
S1132C709C87B70190E00E94091A111105C094FCC9
S1132C8018C085E690E017C0B7018EE290E00E947C
S1132C90091A1E5F82E001E0080FF301E80FF11D3D
S1132CA08081B70190E00E94091A802F0113F3CFAD
S1132CB0E6CF85E490E0B7010E94091AD7FC06C06C
S1132CC0C114D10441F4EC85E4FF05C0D194C1944E
S1132CD0D1088DE201C08BE2B70190E00E94091A8D
S1132CE080E32AE0C216D1042CF08F5FFAE0CF1AF9
S1132CF0D108F7CFB70190E00E94091AB701C601C5
S1132D00C0960E94091A54C1833631F0833779F092
S1132D10833509F056C020C0560132E0A30EB11C21
S1132D20F6018081898301E010E0630112C056013D
S1132D30F2E0AF0EB11CF601C080D18096FE03C054
S1132D40612F70E002C06FEF7FEFC6010E947F1910
S1132D508C01F92DFF7714C0560122E0A20EB11C9C
S1132D60F601C080D18096FE03C0612F70E002C0DE
S1132D706FEF7FEFC6010E9457198C01F92DF0689F
S1132D809F2EF3FD1AC0852D90E008171907A8F4AB
S1132D90B70180E290E00E94091A5A94F4CFF60138
S1132DA097FC859197FE81916F01B70190E00E9495
S1132DB0091A51105A94015011090115110579F796
S1132DC0F7C0843611F0893661F5560197FE09C0C3
S1132DD024E0A20EB11CF60160817181828193818D
S1132DE00AC0F2E0AF0EB11CF60160817181072EBA
S1132DF0000C880B990BF92DFF769F2E97FF09C0C5
S1132E0090958095709561957F4F8F4F9F4FF06897
S1132E109F2E2AE030E0A3010E94BD1AC82EC618D6
S1132E203FC0092D853721F40F7E2AE030E01DC014
S1132E30097F8F3691F018F4883559F0C3C0803774
S1132E4019F0883711F0BEC0006104FF09C00460A6
S1132E5007C094FE08C0066006C028E030E005C044
S1132E6020E130E002C020E132E0560107FF09C052
S1132E7084E0A80EB11CF601608171818281938186
S1132E8008C0F2E0AF0EB11CF6016081718180E0F0
S1132E9090E0A3010E94BD1AC82EC6180F77902E89
S1132EA096FE0BC0092D0E7FC11650F494FE0AC085
S1132EB092FC08C0092D0E7E05C0DC2C092D03C030
S1132EC0DC2C01C0D12E04FF0DC0FE01EC0DF11D60
S1132ED08081803311F4097E09C002FF06C0D394B7
S1132EE0D39404C0802F867809F0D39403FD11C0D5
S1132EF000FF06C01C2DD51480F4150D1D190DC03E
S1132F00D51458F4B70180E290E00E94091AD394D2
S1132F10F7CFD51410F45D1801C0512C04FF10C074
S1132F20B70180E390E00E94091A02FF17C001FD77
S1132F3003C088E790E002C088E590E0B7010CC0C8
S1132F40802F867859F001FF02C08BE201C080E235
S1132F5007FD8DE2B70190E00E94091AC11638F40A
S1132F60B70180E390E00E94091A1150F7CFCA9488
S1132F70F301EC0DF11D8081B70190E00E94091A64
S1132F80C110F5CF15C0F4E0F51560F584E0581ACA
S1132F9093FE1FC0011127C02C8523FF2AC008E718
S1132FA010E0392D3071932EF8018491811124C0E1
S1132FB0552009F4E4CCB70180E290E00E94091A9C
S1132FC05A94F6CFF7018681978126C08FEF9FEF41
S1132FD023C0B70180E290E00E94091A5A9451106C
S1132FE0F8CFD8CF512CB701802F90E00E94091A56
S1132FF0D3CF0CE710E0D5CF91108052B70190E009
S11330000E94091A0F5F1F4FCFCF23E0251510F43C
S113301083E0BDCF512CC0CF6096E2E10C9431180F
S1133020B7FF0C9449180E944918821B930B08950A
S11330302F923F924F925F926F927F928F929F92C4
S1133040AF92BF92CF92DF92EF92FF920F931F93B2
S1133050CF93DF93CDB7DEB7CA1BDB0BCDBFDEBF8B
S113306009942A88398848885F846E847D848C8496
S11330709B84AA84B984C884DF80EE80FD800C819F
S11330801B81AA81B981CE0FD11DCDBFDEBFED0159
S113309008950E945418A59F900DB49F900DA49F6D
S11330A0800D911D11240895A29FB001B39FC0010A
S11330B0A39F700D811D1124911DB29F700D811D60
S11330C01124911D0895283008F027E03327DA01F0
S11330D0990F311D87FD916000966105710539F4E2
S11330E032602E5F3D9330E32A95E1F708959F3FC8
S11330F030F080387105610509F03C5F3C5F3D9319
S1133100913008F08068911DDF93CF931F930F9344
S1133110FF92EF92192F987F9695E92F96959695A1
S1133120E90FFF27E652FF4F99273327EE24FF24A8
S1133130A701E70105900894079428F4360FE71EC9
S1133140F81E491F511D660F771F881F991F06948B
S1133150A1F70590079428F4E70EF81E491F561F9F
S1133160C11D770F881F991F661F0694A1F705904C
S1133170079428F4F80E491F561FC71FD11D880F46
S1133180991F661F771F0694A1F70590079420F4F2
S1133190490F561FC71FD81F990F661F771F881F17
S11331A00694A9F784911095177041F0D695C795A8
S11331B057954795F794E7941A95C1F7E0E8F0E03E
S11331C068941590159135916591959105907FE2DC
S11331D07395E118F10A430B560BC90BD009C0F7DC
S11331E0E10CF11E431F561FC91FD01D7EF470331E
S11331F011F48A95E6CFE894015030F0080F0AF4F0
S11332000027021708F4202F2395022F7A3328F081
S113321079E37D932A95E9F710C07D932A9589F681
S1133220069497956795379517951794E118F10AC1
S1133230430B560BC90BD00998F023957E917395D7
S11332407A3308F070E37C932013B8F77E917061B1
S11332507D9330F0839571E37D9370E32A95E1F7D4
S11332601124EF90FF900F911F91CF91DF91992737
S113327087FD9095089591110C941B1B803219F0D1
S113328089508550C8F708959111089581548A5141
S113329008F4805E855A0895FC010590061621F015
S11332A00020D9F7C00108953197CF010895FC019A
S11332B00590615070400110D8F7809590958E0F5D
S11332C09F1F089540E458E30E94A4190895FB0148
S11332D0DC018D91019080190110D9F3990B0895A7
S11332E0FB01DC014150504048F001900D92002058
S11332F0C9F701C01D9241505040E0F70895FC0108
S11333006150704001900110D8F7809590958E0F10
S11333109F1F0895FB0151915523A9F0BF01DC01C2
S11333204D9145174111E1F759F4CD010190002069
S113333049F04D9140154111C9F3FB014111EFCF03
S113334081E090E001970895FA01A191B08100977E
S113335019F41097E1F0CD01DC01CD010D900020AE
S113336011F4C00113C0FB012191222319F020158F
S1133370D9F7F3CFFB012191201519F41E92119670
S113338006C02223C1F70D900020A1F7D001FA0155
S1133390A193B0830895CF93DF93EC012B8120FF99
S11333A033C026FF0AC02F7B2B838E819F81019619
S11333B08E839F838A8190E029C022FF0FC0E88119
S11333C0F9818081082E000C990B009719F4206272
S11333D02B831AC03196E883F9830EC0EA85FB85F6
S11333E0099597FF09C02B81019611F080E201C075
S11333F080E1822B8B8308C02E813F812F5F3F4F5A
S11334002E833F83992702C08FEF9FEFDF91CF91E7
S113341008950F931F93CF93DF93FB01238121FD25
S113342003C08FEF9FEF2CC022FF16C04681578147
S1133430248135814217530744F4A081B1819D0151
S11334402F5F3F4F208331838C93268137812F5FF9
S11334503F4F2683378314C08B01EC01FB010084AA
S1133460F185E02D0995892BE1F6D80116968D9109
S11334709C911797019616968D939C931797CE015E
S1133480DF91CF911F910F910895A0E0B0E0EBE49C
S1133490FAE10C942818AE014B5F5F4FFA01619179
S11334A07191AF0180910A3990910B390E94931464
S11334B0E2E00C9441180F931F93CF93DF93E091B4
S11334C00A39F0910B39238121FF1BC08C01D0E014
S11334D0C0E0F80181918F0160910A3970910B3934
S11334E0DB011896ED91FC911997882331F0099529
S11334F0892B79F3DFEFCFEFECCF8AE00995892BA5
S113350019F08FEF9FEF02C08D2F9C2FDF91CF9189
S11335101F910F910895AEE0B0E0E1E9FAE10C9457
S1133520281885E08C838B899C8989839A83AE01D2
S1133530495E5F4F6D897E89CE0101960E946113B9
S11335402E96E2E00C944118FB01238120FF12C067
S113355026FD10C08F3F3FEF930761F082832F7DDC
S113356020642383268137812150310926833783C0
S1133570992708958FEF9FEF0895FA01AA2728301D
S113358051F1203181F1E8946F936E7F6E5F7F4F2C
S11335908F4F9F4FAF4FB1E03ED0B4E03CD0670FA8
S11335A0781F891F9A1FA11D680F791F8A1F911DFB
S11335B0A11D6A0F711D811D911DA11D20D009F44B
S11335C068943F912AE0269F11243019305D31938D
S11335D0DEF6CF010895462F4770405D4193B3E076
S11335E00FD0C9F7F6CF462F4F70405D4A3318F01D
S11335F0495D31FD4052419302D0A9F7EACFB4E0CE
S1133600A6959795879577956795BA95C9F7009785
S11336106105710508959B01AC010A2E0694579526
S1133620479537952795BA95C9F7620F731F841F7D
S1133630951FA01D0895992788270895F894FFCF12
S1133640496E69636961206E6F204164643A202584
S1133650782C205374617475732025640A005068B3
S11336606967683A2025782C205374617475732037
S113367025640A00506C6F773A2025782C20537407
S1133680617475732025640A0054686967683A2078
S113369025782C205374617475732025620A0054B4
S11336A06C6F773A2025782C2053746174757320DD
S11336B025620A0050726573696F6E20656E205230
S11336C041573A2025640A0043617564616C252ED4
S11336D032660D00525354004757530053313A2574
S11336E06353323A25630A00474C54004C543A253C
S11336F0640A0047434E3100434E313A28252E36A2
S113370066782D252E3666292A31302E320A004756
S1133710434E3200434E323A28252E3666782D2504
S11337202E3666292A31302E320A005653002C00D8
S1133730256400256600434E004D530D00566F6C02
S113374074616A652053656E736F72313A20256621
S11337500A00566F6C74616A652053656E736F72EC
S1133760323A2025660A0052540D005248252E3262
S113377066524C252E326652564F252E32660A006A
S11337805248252E3266524C252E32665251252E31
S1133790326652564F252E32660A005246252E3284
S11337A06652564F252E32660A0041430D00496E7B
S11337B0636F727265637420436F6D6D616E640034
S11337C04143252E32660A0056520D00526967683D
S11337D074204D6F76650D00564C0D004C65667473
S11037E0204D6F76650D0041797564610020
S11337ED0000000200000000B901000000002000EC
S11337FD00000000000000000000000000000000B8
S113380D00000000000000000000000000000000A7
S113381D0000000000000000000000000000000097
S9030000FC
