S0210000484C562D417474696E79313632365F426F726F6E5F57616B652E737265635E
S11300000C94E4000C9401010C9401010C94010182
S11300100C9401010C9401010C9401010C94010154
S11300200C94D9040C9401010C9401010C94010169
S11300300C9401010C9401010C9401010C94010134
S11300400C9401010C94C4010C9401010C94010161
S11300500C9401010C9401010C9401010C94010114
S11300600C94FC040C9401010C9401010C94010106
S11300700C9401010C9401016E616E00696E6600BE
S113008000407A10F35A00A0724E18090010A5D44B
S1130090E80000E87648170000E40B54020000CAA8
S11300A09A3B000000E1F5050000809698000000EE
S11300B040420F000000A08601000000102700004D
S11300C00000E803000000006400000000000A00D3
S11300D0000000000100000000002C76D888DC67D6
S11300E04F0823DFC1DFAE59E1B1B796E5E3E4532E
S11300F0C63AE651997696E8E6C28426EB898C9B4B
S113010062ED407C6FFCEFBC9C9F40F2BAA56FA5EA
S1130110F490055A2AF75C936B6CF9676DC11BFC6C
S1130120E0E40D47FEF520E6B500D0ED902E030087
S1130130943577050080841E080000204E0A0000D4
S113014000C80C333333330F986E12831141EF8D93
S11301502114893BE65516CFFEE6DB18D1844B38D3
S11301601BF77C1D901DA4BBE424203284725E2204
S11301708100C9F124ECA1E53D276364696E6F70C9
S1130180737578585B65666745464700616E006E17
S113019066696E69747900CDCCCC3D0AD7233C17CF
S11301A0B7D13877CC2B329595E6241FB14F0A008E
S11301B00020410000C84200401C4620BCBE4CCA7E
S11301C01B0E5AAEC59D740011241FBECFEFCDBFC8
S11301D0DFE3DEBF18E3A0E0B8E3EEEEF5E302C030
S11301E005900D92A034B107D9F729E3A0E4B8E350
S11301F001C01D92AC30B207E1F70E94960C0C943A
S1130200481A0C940000E0E4F4E08081877F808346
S11302108389877F838B83898260838BE0E0F4E02A
S113022080818B7F8083808182608083A0E2B4E0C0
S113023054968C915497887F54968C9354975496E3
S11302408C915497846054968C93549754968C91C3
S11302505497877F54968C9354978589887F858B90
S113026085898460858B8589877F858B93E011964A
S11302709C93119750968C915097877F50968C93AE
S1130280509714969C93149751968C915197877F0D
S113029051968C9351978689887F868B8689846052
S11302A0868B8689877F868B8C9180628C9355960A
S11302B08C915597877F55968C93559714968C916E
S11302C014978F7D14968C938081886080838389B2
S11302D0877F838B8481877F8483089580E008C02F
S11302E0E82FF0E0E05FFB4F9081986090838F5F90
S11302F08830B0F380E008C0E82FF0E0E05DFB4F09
S11303009081986090838F5F8630B0F380E008C05E
S1130310E82FF0E0E05BFB4F9081986090838F5F63
S11303208430B0F3089588ED84BF1092610084BFD7
S113033081E08093600008959091040895FFFCCFBC
S11303408093020808950E949C0180E090E0089543
S1130350809104088823E4F7809100080895E0E080
S1130360F8E08DE690E08087918780EC868380E8D2
S11303708093050881E08093E20580E098E3809310
S113038008399093093908951F920F920FB60F926E
S113039011242F933F934F935F936F937F938F9386
S11303A09F93AF93BF93EF93FF930E94A801809311
S11303B00339882381F08D3071F090916C38E92FE6
S11303C0F0E0E25FF74C80839F5F90936C38933347
S11303D010F010926C388D3009F04FC0E0916C38F9
S11303E0F0E0E25FF74C808310926C388091D13852
S11303F0811111C090919F3891110DC090916D3869
S1130400911109C042E350E06EE078E381ED98E396
S11304100E949A1825C0882389F090919F389111E1
S11304200DC090916D38911109C042E350E06EE027
S113043078E38FE998E30E949A1812C0882381F028
S113044080919F38882361F080916D38811108C0B4
S113045042E350E06EE078E38DE698E30E949A1858
S113046082E3EEE0F8E3DF011D928A95E9F781E08B
S113047090E080936A3890936B38FF91EF91BF912D
S1130480AF919F918F917F916F915F914F913F9128
S11304902F910F900FBE0F901F901895FC01608351
S11304A08DE984BF83E0809300100895FC0180816E
S11304B00895E0E0F6E081E0818386E08283089598
S11304C081E180930A068091050680FFFCCFE0E07D
S11304D0F6E081E0858380899189A289B3890895B2
S11304E08F929F92AF92BF92CF92DF92EF92FF9240
S11304F0CF93DF9386309105C9F08930910519F0C7
S1130500059771F407C0E0E0F6E081E0808389E0BC
S1130510848706C0E0E0F6E081E0808385E084879C
S1130520C0E0D0E0C12CD12C760137C0E0E0F6E089
S113053081E0808386E08487F3CF0E946002BC015F
S113054080E090E00E94AD0E20E030E040E250E414
S11305500E94400F20E030E040E859E30E94400F41
S113056020E030E040E05FE30E94400F4B015C017B
S113057020E030E040E05FE3C701B6010E94400F95
S11305809B01AC01C501B4010E94CF0D6B017C013C
S1130590219683E393E00197F1F7C431D1056CF21E
S11305A0E0E0F6E080818E7F8083C701B601DF91B1
S11305B0CF91FF90EF90DF90CF90BF90AF909F903E
S11305C08F90089580E09091A508907C29F49091F3
S11305D0A5089C7019F403C081E001C082E088235F
S11305E091F30895EF92FF920F931F93CF93DF93AC
S11305F08C018FEF9FE00197F1F700C00000E0EA63
S1130600F8E0168283E083831782108688E084836F
S11306108581806C858381E0858381E587838091F2
S1130620A50884FDFCCF83E08093A4080130110564
S1130630A9F49091A5088091A8081F929F931F92F6
S11306408F9384E994EB9F938F930E946F190F907B
S11306500F900F900F900F900F9004C09AED9A9501
S1130660F1F700C0E0EAF8E088E084838581806CDB
S113067085830130110529F089E991E00197F1F7AB
S113068000C081E58093A7080E94E202813009F04E
S113069042C08091A808C82FD0E00130110599F418
S11306A09091A5081F929F931F928F9382EB94EBD6
S11306B09F938F930E946F190F900F900F900F903C
S11306C00F900F9005C089E991E00197F1F700C000
S11306D0E0EAF8E083E084838085E82EF12C0130A1
S11306E0110599F49091A5081F929F931F928F93DF
S11306F088EC94EB9F938F930E946F190F900F9047
S11307000F900F900F900F900AC089E991E0019724
S1130710F1F700C004C0E12CF12CC0E0D0E0E0EA25
S1130720F8E083818E7F8383DC2FCC27CE29DF29D9
S11307300130110561F4DF93CF938DED94EB9F931A
S11307408F930E946F190F900F900F900F90CE010E
S1130750DF91CF911F910F91FF90EF900895CF9269
S1130760DF92EF92FF920F931F93CF93DF93CDB756
S1130770DEB72C97CDBFDEBF6B017C0100E010E03B
S113078026C0C80188519B4E0E945602E1E0F0E069
S1130790EC0FFD1FE00FF11F8083C80184519B4EB5
S11307A00E945602E5E0F0E0EC0FFD1FE00FF11FA0
S11307B08083C80180519B4E0E945602E9E0F0E01C
S11307C0EC0FFD1FE00FF11F80830F5F1F4F0430FC
S11307D01105BCF269817A818B819C81A701960104
S11307E00E943B0F8823ACF42D813E814F815885B4
S11307F0C701B6010E94400F29853A854B855C8567
S11308000E94CE0D23E333E343E251E40E94400F00
S113081003C060E070E0CB012C96CDBFDEBFDF915A
S1130820CF911F910F91FF90EF90DF90CF9008959B
S1130830CF92DF92EF92FF920F931F93CF93DF93A8
S1130840CDB7DEB72C97CDBFDEBF6B017C0100E0D6
S113085010E026C0C8018C509B4E0E945602E1E075
S1130860F0E0EC0FFD1FE00FF11F8083C8018850FA
S11308709B4E0E945602E5E0F0E0EC0FFD1FE00FF6
S1130880F11F8083C80184509B4E0E945602E9E008
S1130890F0E0EC0FFD1FE00FF11F80830F5F1F4F8F
S11308A004301105BCF269817A818B819C81A70196
S11308B096010E943B0F8823ACF42D813E814F8129
S11308C05885C701B6010E94400F29853A854B859A
S11308D05C850E94CE0D23E333E343E251E40E949E
S11308E0400F03C060E070E0CB012C96CDBFDEBFAB
S11308F0DF91CF911F910F91FF90EF90DF90CF90F8
S113090008950F931F93CF93DF938C01EB01613014
S11309107105D1F4083E83E01807D4F0B801685E8D
S11309207340072E000C880B990B0E94AF0E23E333
S113093033E343E251E40E94400F20E030E04AEF09
S113094054E40E943B0E07C060E070E0CB0103C09A
S113095060E070E0CB012297B9F4083E83E0180709
S113096084F0B801685E7340072E000C880B990B65
S11309700E94AF0E2CEE31E545E852E40E943B0E96
S113098003C060E070E0CB01DF91CF911F910F9124
S11309900895E0E0FAE080E090E486A397A381E084
S11309A0808382870895E0E0FAE080818E7F8083EF
S11309B008951F920F920FB60F9211248F939F9355
S11309C0809164389091653801968093643890934F
S11309D065388091663890916738019680936638BF
S11309E09093673881E080930B0A9F918F910F90C9
S11309F00FBE0F901F9018951F920F920FB60F9273
S1130A001124CF92DF92EF92FF922F933F934F9353
S1130A105F936F937F938F939F93AF93BF93EF9362
S1130A20FF9380916038909161380196809360388B
S1130A30909361380E94D304A89586EE94E10E94B5
S1130A405602823069F0833029F0813031F42AE093
S1130A5030E008C028EE33E005C021E030E002C0F9
S1130A6024E630E0809166389091673818161906AC
S1130A703CF4809166389091673881329E444CF002
S1130A8010925C3810925D3810925E3810925F3884
S1130A9037C08091603890916138289FB001299FB8
S1130AA0700D389F700D112480E090E00E94AD0E0F
S1130AB06B017C016091663870916738072E000CD9
S1130AC0880B990B0E94AF0E20E030E040E05FE31A
S1130AD00E94400F9B01AC01C701B6010E943B0E6E
S1130AE060935C3870935D3880935E3890935F3880
S1130AF010926638109267381092603810926138FC
S1130B00A8958091623890916338019680936238F9
S1130B109093633880916838909169380197C1F453
S1130B2080915F388F9380915E388F9380915D3888
S1130B308F9380915C388F9381EF94EB9F938F9385
S1130B400E946F190F900F900F900F900F900F90BD
S1130B50E9E4F4E08081886080830E94C904FF9105
S1130B60EF91BF91AF919F918F917F916F915F9121
S1130B704F913F912F91FF90EF90DF90CF900F9086
S1130B800FBE0F901F901895EF92FF920F931F9333
S1130B90CF93DF93CDB7DEB72C97CDBFDEBF8C01EB
S1130BA06DEF74EB0E94B418892B71F08FEF9FE105
S1130BB00197F1F700C0000088ED84BFE1E4F0E0A4
S1130BC081E0808380E1808361E075EBC8010E944D
S1130BD0B418892BF1F084EE94E10E945602182F88
S1130BE08093043985EE94E10E945602809305397E
S1130BF01F928F931F921F9385E095EB9F938F9382
S1130C000E946F190F900F900F900F900F900F90FC
S1130C1083C661E175EBC8010E94B418892BB1F158
S1130C2086EE94E10E94560290E0809346389093B9
S1130C3047388230910579F02CF4009749F00197F8
S1130C40B1F012C08330910549F0049751F00CC003
S1130C5080E090E00EC084E690E00BC088EE93E064
S1130C6008C080E197E205C081E090E002C08AE01C
S1130C7090E09F938F9385E195EB9F938F930E94D0
S1130C806F190F900F900F900F9046C66CE175EBA3
S1130C90C8010E94B418892BE1F439C0C8018850F6
S1130CA09B4E0E945602E5E0F0E0EC0FFD1FE00FC2
S1130CB0F11F8083C80184509B4E0E945602E1E0DC
S1130CC0F0E0EC0FFD1FE00FF11F80830F5F1F4F5B
S1130CD002C000E010E00430110504F349815A8198
S1130CE06B817C818D819E812F8138857F936F9369
S1130CF05F934F933F932F939F938F9381E295EB51
S1130D009F938F930E946F19CDBFDEBF05C668E322
S1130D1075EBC8010E94B418892BE1F439C0C801ED
S1130D2084519B4E0E945602E5E0F0E0EC0FFD1F5B
S1130D30E00FF11F8083C80180519B4E0E94560230
S1130D40E1E0F0E0EC0FFD1FE00FF11F80830F5F87
S1130D501F4F02C000E010E00430110504F3498184
S1130D605A816B817C818D819E812F8138857F930F
S1130D706F935F934F933F932F939F938F938DE341
S1130D8095EB9F938F930E946F19CDBFDEBFC4C5AF
S1130D90F8018081873599F48181833581F46281FA
S1130DA084EE94E10E944E02F801638185EE94E1A1
S1130DB00E944E0282E095EB0E948519ADC564E560
S1130DC075EBC8010E94B418892BC9F167E575EB6E
S1130DD0C8010E948C18009709F524C0F1E0EF16B1
S1130DE0F10491F428E638E33F932F9329E535EB9A
S1130DF03F932F939F938F930E94B5190F900F9059
S1130E000F900F900F900F9067E575EB80E090E0E6
S1130E100E948C182FEFE21AF20A02C0E12CF12C86
S1130E200097E1F61F930F938CE595EB9F938F93B7
S1130E300E946F190F900F900F900F906DC569E38A
S1130E4075EBC8010E94B418892B09F483C067E5C7
S1130E5075EBC8010E948C180097C1F53BC00130A6
S1130E60110521F002301105A9F027C09E012B5F66
S1130E703F4F3F932F9320E635EB3F932F939F9360
S1130E808F930E94B5190F900F900F900F900F90B1
S1130E900F9013C09E012F5F3F4F3F932F9320E687
S1130EA035EB3F932F939F938F930E94B5190F9027
S1130EB00F900F900F900F900F9067E575EB80E007
S1130EC090E00E948C180F5F1F4F02C000E010E0FA
S1130ED0009729F669817A818B819C812D813E81DD
S1130EE04F8158850E943B0E69877A878B879C8740
S1130EF0A89500E010E026C0E9E0F0E0EC0FFD1F4B
S1130F00E00FF11F6081C80188519B4E0E944E0280
S1130F10E5E0F0E0EC0FFD1FE00FF11F6081C80178
S1130F2084519B4E0E944E02E1E0F0E0EC0FFD1F65
S1130F30E00FF11F6081C80180519B4E0E944E0258
S1130F400F5F1F4F04301105BCF283E695EB0E943E
S1130F508519E2C46DE175EBC8010E94B418892BB0
S1130F6009F483C067E575EBC8010E948C180097EB
S1130F70C1F53BC00130110521F002301105A9F083
S1130F8027C09E012B5F3F4F3F932F9320E635EB05
S1130F903F932F939F938F930E94B5190F900F90B7
S1130FA00F900F900F900F9013C09E012F5F3F4F33
S1130FB03F932F9320E635EB3F932F939F938F938B
S1130FC00E94B5190F900F900F900F900F900F90F3
S1130FD067E575EB80E090E00E948C180F5F1F4F6F
S1130FE002C000E010E0009729F669817A818B81C4
S1130FF09C812D813E814F8158850E943B0E6987DB
S11310007A878B879C87A89500E010E026C0E9E0EA
S1131010F0E0EC0FFD1FE00FF11F6081C8018C5060
S11310209B4E0E944E02E5E0F0E0EC0FFD1FE00F46
S1131030F11F6081C80188509B4E0E944E02E1E07E
S1131040F0E0EC0FFD1FE00FF11F6081C801845038
S11310509B4E0E944E020F5F1F4F04301105BCF2DD
S113106083E695EB0E94851957C466E675EBC801C3
S11310700E949118892B09F034C284EE94E10E94F5
S11310805602182F8093043985EE94E10E9456028B
S1131090082F8093053986EE94E10E94560290E071
S11310A08093463890934738E0E2F4E0848180628C
S11310B08483103511F0003579F4A89580E090E030
S11310C0DC0104C0A8950196A11DB11D8115E0E4C1
S11310D09E07A105B105B0F3103509F46DC030F4D5
S11310E0113409F4E5C0193439F0E8C01936A1F116
S11310F0103709F49FC0E2C000E014E0F8018481D5
S1131100806884838481886084838FEF9FE1019762
S1131110F1F700C00000A895809168389091693873
S11311200E94F20262E070E00E94810460935038F1
S1131130709351388093523890935338F8018481D6
S11311408F7784838481877F84838FEF9FE10197E6
S1131150F1F700C00000B2C000E014E0F80184819F
S1131160806884838481886084838FEF9FE1019702
S1131170F1F700C00000A895809168389091693813
S11311800E94F20261E070E00E9481046093503892
S1131190709351388093523890935338F801848176
S11311A08F7784838481877F84838FEF9FE1019786
S11311B0F1F700C0000082C0A89589E090E00E9489
S11311C07002262F372F462F572F682F792F4093E1
S11311D058385093593860935A3870935B3840911B
S11311E06838509169384130510581F49F938F9349
S11311F03F932F938AE695EB9F938F930E946F19E9
S11312000F900F900F900F900F900F90609158389F
S11312107091593880915A3890915B380E94180423
S11312206093503870935138809352389093533868
S1131230A89544C0A89589E090E00E947002262FEA
S1131240372F462F572F682F792F409358385093B4
S1131250593860935A3870935B384091683850918C
S113126069384130510581F49F938F933F932F93B5
S11312708AE695EB9F938F930E946F190F900F90BE
S11312800F900F900F900F906091583870915938CB
S113129080915A3890915B380E94180460935038BA
S11312A0709351388093523890935338A89506C060
S11312B081E090E0809344389093453880910539DB
S11312C0803509F474C030F4813409F4ECC08934F5
S11312D039F0EFC08936A9F1803709F4A6C0E9C016
S11312E06894EE24E6F8FF24F2F8F7018481846020
S11312F0848300E014E0F8018481886084838FEFA4
S11313009FE10197F1F700C00000A895809168382B
S1131310909169380E94F20262E070E00E948104B8
S113132060934C3870934D3880934E3890934F3877
S1131330F70184818B7F8483F8018481877F848390
S1131340B8C06894EE24E6F8FF24F2F8F70184812B
S11313508460848300E014E0F801848188608483DD
S11313608FEF9FE10197F1F700C00000A8958091ED
S11313706838909169380E94F20261E070E00E943E
S1131380810460934C3870934D3880934E38909319
S11313904F38F70184818B7F8483F8018481877FB0
S11313A0848386E696E00197F1F7000082C0A89551
S11313B085E090E00E947002262F372F462F572F8A
S11313C0682F792F4093543850935538609356388A
S11313D070935738409168385091693841305105BD
S11313E081F49F938F933F932F938FE795EB9F9374
S11313F08F930E946F190F900F900F900F900F9082
S11314000F9060915438709155388091563890916E
S113141057380E94AF0360934C3870934D388093D3
S11314204E3890934F38A89544C0A89585E090E035
S11314300E947002262F372F462F572F682F792F9F
S113144040935438509355386093563870935738B6
S113145040916838509169384130510581F49F9327
S11314608F933F932F938FE795EB9F938F930E94D6
S11314706F190F900F900F900F900F900F90609135
S113148054387091553880915638909157380E944D
S1131490AF0360934C3870934D3880934E389093DB
S11314A04F38A89506C081E090E08093423890932D
S11314B04338E0E2F4E084818F7D848386E090E029
S11314C00E94700220E030E040EA50E40E94400FA5
S11314D0609348387093493880934A3890934B38D6
S11314E01BC264E975EBC8010E949118892B09F0AD
S11314F024C18091443890914538892B09F05AC011
S11315008091423890914338019709F053C08091FB
S1131510463890914738892B09F44CC080914B3858
S11315208F9380914A388F93809149388F9380911B
S113153048388F9380915F388F9380915E388F9372
S113154080915D388F9380915C388F93809153386C
S11315508F93809152388F93809151388F938091DB
S113156050388F9388E995EB9F938F930E946F195E
S1131570109258381092593810925A3810925B3899
S113158010925C3810925D3810925E3810925F3879
S11315901092503810925138109252381092533899
S11315A0109248381092493810924A3810924B38A9
S11315B0CDBFDEBF8091443890914538892B09F026
S11315C076C08091423890914338892B09F06FC0DE
S11315D08091463890914738892B09F468C08091EE
S11315E04B388F9380914A388F93809149388F93E9
S11315F0809148388F9380915F388F9380915E38C3
S11316008F9380915D388F9380915C388F93809114
S11316104F388F9380914E388F9380914D388F93AC
S113162080914C388F93809153388F9380915238A6
S11316308F93809151388F93809150388F938DEA96
S113164095EB9F938F930E946F19109258381092C4
S1131650593810925A3810925B38109254381092BC
S11316605538109256381092573810925C381092B0
S11316705D3810925E3810925F3810925038109294
S11316805138109252381092533810924C381092AC
S11316904D3810924E3810924F38109248381092AC
S11316A0493810924A3810924B38CDBFDEBF809132
S11316B0443890914538892B09F42EC180914238E1
S11316C090914338892B09F427C180914638909131
S11316D04738892B09F420C180914B388F9380912E
S11316E04A388F93809149388F93809148388F93EB
S11316F080915F388F9380915E388F9380915D38AD
S11317008F9380915C388F938EE995EB9F938F93A1
S11317100E946F1910925C3810925D3810925E38F6
S113172010925F38109248381092493810924A3813
S113173010924B38CDBFDEBFEFC068EC75EBC8012B
S11317400E949118892B09F069C0809146389091C4
S11317504738892B49F48CEC95EB9F938F930E9427
S11317606F190F900F90D8C087EE94E10E94560233
S1131770F4E08F9F7001112400E010E00FC0C80155
S11317808E0D9F1D9C5E0E945602E1E0F0E0EC0F7E
S1131790FD1FE00FF11F80830F5F1F4F0430110501
S11317A074F389819A812B813C813F932F939F937A
S11317B08F938FED95EB9F938F930E946F190F90EA
S11317C00F900F900F900F900F9000E010E009C061
S11317D0C8018E0D9F1D60E09C5E0E944E020F5F4B
S11317E01F4F04301105A4F387EE94E10E945602C2
S11317F0682F70E06F5F7F4F87EE94E10E944E0286
S113180087EE94E10E94560290E0C9970CF484C0DC
S113181060E087EE94E10E944E027EC062E175EBC7
S1131820C8010E94B418892B09F46EC019821A8267
S113183067E575EBC8010E948C18009701F523C079
S11318400130110599F49E012F5F3F4F3F932F9371
S113185029E535EB3F932F939F938F930E94B519FE
S11318600F900F900F900F900F900F9067E575EB0E
S113187080E090E00E948C180F5F1F4F02C000E0D0
S113188010E00097E9F689819A818A30910551F434
S113189061E086EE94E10E944E0282E195EB0E94A3
S11318A085193AC08436910551F462E086EE94E1DC
S11318B00E944E0282E195EB0E9485192DC0883E5C
S11318C023E0920751F463E086EE94E10E944E0215
S11318D082E195EB0E9485191FC08031974251F433
S11318E064E086EE94E10E944E0282E195EB0E9450
S11318F0851912C060E086EE94E10E944E0282E1F6
S113190095EB0E94851908C08CEC95EB9F938F93FF
S11319100E946F190F900F902C96CDBFDEBFDF9100
S1131920CF911F910F91FF90EF900895CF93DF9384
S113193000D000D0CDB7DEB70E9493010E946E01A3
S11319400E9403010E945902E0E0F4E08081806873
S113195080838789877F878B84818F778483E0E482
S1131960F4E08081846080838289877F828B848194
S11319708B7F848388ED84BF8BE08093000182E3B6
S1131980EEE0F8E3DF011D928A95E9F70E94AF01CA
S1131990789483E393E00197F1F787EE95EB9F93B7
S11319A08F930E946F190F900F9080916A389091D5
S11319B06B38019709F057C081ED98E30E94C40584
S11319C080919F38882341F190916D38992321F1BA
S11319D012E3E1EDF8E3DF01212F1D922A95E9F7E7
S11319E042E350E06FE978E3CF010E949A18EFE9EF
S11319F0F8E3DF01212F1D922A95E9F742E350E035
S1131A006DE678E3CF010E949A18EDE6F8E3DF0172
S1131A101D921A95E9F727C08823D1F080916D387B
S1131A20811116C012E3E1EDF8E3DF01212F1D92CD
S1131A302A95E9F742E350E06FE978E3CF010E9489
S1131A409A18EFE9F8E3DF011D921A95E9F70BC044
S1131A5082E3E1EDF8E3DF011D928A95E9F7109244
S1131A606A3810926B388091463890914738892BA8
S1131A7009F48CC08091643890916538883592401F
S1131A800CF484C0A89587EE94E10E945602E82ED7
S1131A90F12CEE0CFF1CEE0CFF1C86EE94E10E9470
S1131AA056028230A9F0833041F0813069F40F2E60
S1131AB0FAE0CF2ED12CF02D10C00F2EF8EECF2E41
S1131AC0F3E0DF2EF02D09C0CC24C394D12C05C043
S1131AD00F2EF4E6CF2ED12CF02D00E010E00FC035
S1131AE0C8018E0D9F1D9C5E0E945602E1E0F0E04D
S1131AF0EC0FFD1FE00FF11F80830F5F1F4F0430B9
S1131B00110574F3609162387091633880E090E05D
S1131B100E94AD0E4B015C01B601DD0C880B990BE4
S1131B200E94AF0EA50194010E94400F20E030E016
S1131B304AE754E40E943B0E9B01AC0169817A811F
S1131B408B819C810E94CF0D69837A838B839C83D4
S1131B5000E010E00FC0C8018E0D9F1DE1E0F0E031
S1131B60EC0FFD1FE00FF11F60819C5E0E944E028E
S1131B700F5F1F4F0430110574F3109264381092F4
S1131B8065381092623810926338A8951092000656
S1131B901092800A10924001A89507CF5058BB2795
S1131BA0AA270E94E60D0C94010F0E94F30E38F050
S1131BB00E94FA0E20F039F49F3F19F426F40C9495
S1131BC0F00E0EF4E095E7FB0C94EA0EE92F0E9468
S1131BD0120F58F3BA17620773078407950720F0AA
S1131BE079F4A6F50C94340F0EF4E0950B2EBA2F6D
S1131BF0A02D0B01B90190010C01CA01A00111240F
S1131C00FF27591B99F0593F50F4503E68F11A16BA
S1131C10F040A22F232F342F4427585FF3CF46954B
S1131C2037952795A795F0405395C9F77EF41F166D
S1131C30BA0B620B730B840BBAF09150A1F0FF0F37
S1131C40BB1F661F771F881FC2F70EC0BA0F621F23
S1131C50731F841F48F4879577956795B795F79513
S1131C609E3F08F0B0CF9395880F08F09927EE0FA8
S1131C709795879508950E944F0E0C94010F0E942A
S1131C80FA0E58F00E94F30E40F029F45F3F29F059
S1131C900C94EA0E51110C94350F0C94F00E0E9422
S1131CA0120F68F39923B1F3552391F3951B550B48
S1131CB0BB27AA2762177307840738F09F5F5F4F1B
S1131CC0220F331F441FAA1FA9F335D00E2E3AF05A
S1131CD0E0E832D091505040E695001CCAF72BD072
S1131CE0FE2F29D0660F771F881FBB1F26173707C3
S1131CF04807AB07B0E809F0BB0B802DBF01FF27F5
S1131D0093585F4F3AF09E3F510578F00C94EA0ED9
S1131D100C94350F5F3FE4F3983ED4F386957795A2
S1131D206795B795F7959F5FC9F7880F911D9695AD
S1131D30879597F90895E1E0660F771F881FBB1F09
S1131D40621773078407BA0720F0621B730B840BB6
S1131D50BA0BEE1F88F7E0950895E89409C097FB45
S1131D603EF490958095709561957F4F8F4F9F4F6E
S1131D709923A9F0F92F96E9BB279395F6958795B2
S1131D8077956795B795F111F8CFFAF4BB0F11F475
S1131D9060FF1BC06F5F7F4F8F4F9F4F16C088231C
S1131DA011F096E911C0772321F09EE8872F762F52
S1131DB005C0662371F096E8862F70E060E02AF093
S1131DC09A95660F771F881FDAF7880F969587957F
S1131DD097F9089597F99F6780E870E060E00895A7
S1131DE09FEF80EC089500240A941616170618062F
S1131DF00906089500240A9412161306140605060B
S1131E000895092E0394000C11F4882352F0BB0F9B
S1131E1040F4BF2B11F460FF04C06F5F7F4F8F4FFE
S1131E209F4F089557FD9058440F551F59F05F3F39
S1131E3071F04795880F97FB991F61F09F3F79F0E8
S1131E4087950895121613061406551FF2CF46956A
S1131E50F1DF08C0161617061806991FF1CF8695EC
S1131E607105610508940895E894BB2766277727D0
S1131E70CB0197F908950E94AD0F08F48FEF0895F0
S1131E800E94530F0C94010F0E94F30E38F00E942D
S1131E90FA0E20F0952311F00C94EA0E0C94F00E37
S1131EA011240C94350F0E94120F70F3959FC1F307
S1131EB0950F50E0551F629FF001729FBB27F00DF4
S1131EC0B11D639FAA27F00DB11DAA1F649F662749
S1131ED0B00DA11D661F829F2227B00DA11D621F98
S1131EE0739FB00DA11D621F839FA00D611D221F52
S1131EF0749F3327A00D611D231F849F600D211D36
S1131F00822F762F6A2F11249F5750409AF0F1F0B8
S1131F1088234AF0EE0FFF1FBB1F661F771F881F21
S1131F2091505040A9F79E3F510580F00C94EA0E61
S1131F300C94350F5F3FE4F3983ED4F38695779580
S1131F406795B795F795E7959F5FC1F7FE2B880FC7
S1131F50911D9695879597F90895990F0008550F47
S1131F60AA0BE0E8FEEF16161706E807F907C0F01B
S1131F7012161306E407F50798F0621B730B840B23
S1131F80950B39F40A2661F0232B242B252B21F4FD
S1131F9008950A2609F4A140A6958FEF811D811D9D
S1131FA0089520FD09C0FC0123FD05C022FF02C0E5
S1131FB07383628351834083089544FD17C046FDB3
S1131FC017C0AB01BC01DA01FB01AA0FBB1FEE1F56
S1131FD0FF1F1094D1F74A0F5B1F6E1F7F1FCB01A9
S1131FE0BA01660F771F881F991F09C033E001C02B
S1131FF034E0660F771F881F991F3150D1F7620FA5
S1132000711D811D911D08950F931F93CF93DF932D
S11320108C01C8010E94F518EC0197FD08C00E94CC
S11320206518892BB1F7B801CE010E94CE19CE01F3
S1132030DF91CF911F910F910895A0E0B0E0E3E20A
S1132040F0E10C9462177C018B016A01D22F0E948B
S1132050F5189C0133272B32310521F02D3231053F
S113206059F4D0680150110911F480E06BC0C70124
S11320700E94F51897FDF9CFCD2FCD7F2D2F20731A
S113208019F5803309F5580181E0A81AB10809F45B
S113209045C0C7010E94F51897FD40C09C012F7DE3
S11320A033272835310551F4C26402501109B1F1C6
S11320B0C7010E94F51897FF07C030C0D6FF02C0C1
S11320C0C26001C0C2618501812C912C540120EDB4
S11320D0280F283080F0C4FF04C0B7010E94CE1935
S11320E01AC02A3040F0C6FFF8CF2F7D3FEE320FE2
S11320F0363098F727504C2FC501B4010E94DD0FEC
S11321004B015C01C2600150110959F0C7010E94E2
S1132110F51897FFDCCFC1FD04C0A7CF812C912C0B
S11321205401C7FF08C0B094A09490948094811C7B
S1132130911CA11CB11C2C2FB501A401C6010E9445
S1132140D10F81E0CDB7DEB7ECE00C947B17A0E2B1
S1132150B0E0EDEAF0E10C945E175C014B017A010A
S11321608E010F5F1F4F680180E2F80111928A957A
S1132170E9F7F501538040E050E0612C90E0712CC8
S1132180A1E0B0E0F90153FC859153FE81918F01E8
S1132190482E9F01811103C080E090E096C08E35E7
S11321A019F44115510551F1672D70E06417750755
S11321B03CF48D3561F18D3219F4992311F103C08A
S11321C0992309F46DC0842D869586958695F6012C
S11321D0E80FF11D842D87708D0102C0000F111FBF
S11321E08A95E2F7C8019081892B8083641459F0A1
S11321F0461410F44394E7CF4A94E5CF77247394BC
S113220003C091E001C090E04F5F5F4FBBCF9923C3
S113221019F08E8180628E83711003C077247394C9
S113222019C0F6019E012F5D3F4F808180958193F7
S11322302E173F07D1F7F2CFE114F10431F0F70183
S11322408083B7016F5F7F4F7B0171E0871A91082C
S1132250712CF9F0C5010E94F51897FD18C0FC0116
S1132260FF2723E0F595E7952A95E1F7EC0DFD1D91
S1132270208130E0AC014770552702C03595279581
S11322804A95E2F720FDD8CFB5010E94CE1971100E
S113229083CFE114F10411F0F7011082C80115C0D5
S11322A0682F669566956695F601E60FF11D682F11
S11322B067708D0102C0000F111F6A95E2F7B80123
S11322C07081672B6083682E9FCFA096E0E10C9409
S11322D077172F923F924F925F926F927F929F92C5
S11322E0AF92BF92CF92DF92EF92FF920F931F9320
S11322F0CF93DF936C018B011A010E94F518EC0156
S113230099278B32910529F08D9781F430E8932E2B
S113231001C0912C0150110911F480E00CC1C601D7
S11323200E94F518EC0197FF02C0F7CF912CCE0163
S11323300E946E188936910531F08E36910599F513
S1132340CCE8D1E002C0CFE8D1E02196FE0131977C
S1132350B490BB20C9F00150110991F0C6010E944C
S1132360F5187C0197FD0CC00E946E189927EB2D7F
S1132370F0E08E179F0749F3B601C7010E94CE19FA
S1132380C259D14051F603C0CF58D14029F080E062
S113239090E0A0E8BFE704C080E090E0A0ECBFE7D5
S11323A0BC01CD01B8C0412C512C3201E12CF12CDF
S11323B02C2F20532A3010F5E92DE260BE2E892DF2
S11323C0887092FE06C0811120C0FFEFEF1AFF0A49
S11323D01CC0882319F081E0E81AF10840E2C30127
S11323E0B2010E94DD0F2B013C016839794989490A
S11323F0994158F0F92DF660BF2E07C02E3F89F49D
S113240093FC0FC0292D2860B22E0150110941F010
S1132410C6010E94F518EC019B2C97FFC9CF01C09F
S11324209B2C91FE7ACFCE018F7D9927853491051F
S113243009F042C0580181E0A81AB10809F46DCF2F
S1132440C6010E94F518EC0197FD67CF99278B32DE
S1132450910529F08D9769F4E92DE0619E2E5801CC
S1132460F2E0AF1AB10809F458CFC6010E94F5187A
S1132470EC01CE01C0970A9708F04FCF8501A12C3B
S1132480B12CB501BB0C880B990B2C2F205340E2C7
S11324900E94DD0F5B010150110939F0C6010E9451
S11324A0F518EC01C0970A9760F394FE03C0B19449
S11324B0A194B108EA0CFB1C012B31F0D7FD04C038
S11324C0B601CE010E94CE19C301B2010E94AD0E25
S11324D0F7FE06C0F194E194F108CBEAD1E002C022
S11324E0C3ECD1E06E0128E1C21AD10800E210E089
S11324F0E016F10650F0FE01259135914591549175
S11325000E94400FE01AF10AF3CF2497169507951D
S1132510CC16DD0669F797FE05C0DC01CB01B05887
S1132520BC01CD012114310429F0F10160837183D0
S11325308283938381E0DF91CF911F910F91FF906C
S1132540EF90DF90CF90BF90AF909F907F906F906F
S11325505F904F903F902F900895A0E0B0E0E3EBA0
S1132560F2E10C9460175C01EB014A01FC01168254
S11325701782612CF5010381FE0103FD859103FFA0
S11325808191182FEF01882309F40FC190E00E9474
S11325906518892B21F0C5010E940410EBCF153278
S11325A041F4FE0103FD159103FF1191EF01153272
S11325B081F4C5010E94F51897FDF5C0412F50E044
S11325C09C01332724173507A9F2B5010E94CE19BF
S11325D0ECC01A3241F403FD159103FF1191EF0190
S11325E07724739401C0712CE12CF12C20ED210F80
S11325F02A3088F4F72DF2607F2EB70180E090E056
S113260040E20E94DD0F7B01FE0103FD159103FFF3
S11326101191EF01EBCF71FE04C0E114F10421F438
S1132620C4C0EE24EA94FE2C183619F01C3661F06E
S113263014C0FE0103FD159103FF1191EF0118363B
S113264061F4872D8860782E972D9460792EFE0191
S113265003FD159103FF1191EF01112309F4A5C0A6
S1132660612F70E08AE791E00E947618892B09F4C3
S11326709CC070FC07C0F401C080D180C4010296E4
S11326804C0102C0C12CD12C1E3651F4F5014681F7
S1132690578160E070E0272DC6010E94D10F6ACFF8
S11326A01336B9F471FC03C0EE24E394F12CC50194
S11326B00E94F51897FD77C0C114D10429F0F601E2
S11326C08083C60101966C0191E0E91AF10879F75B
S11326D066C01B3559F49E01A601B701C5010E94CD
S11326E0A710EC01892B09F05AC054C0C5010E94FF
S11326F0041097FD58C01F36E1F140F41436A9F1D7
S11327001936D1F1183509F03EC02BC01337A9F0A2
S113271018F4103731F137C0153739F1183709F18A
S113272032C0C114D10429F0F6010083C601019618
S11327306C0191E0E91AF10871F0C5010E94F518E5
S11327408C0197FD08C00E946518892B51F3B501CF
S1132750C8010E94CE19C114D10409F1F6011082F6
S11327601EC0F72DF0647F2E07C0872D8062782E5F
S113277003C0972D9061792E272DA601B701C501BD
S11327800E941D1005C0A601B701C5010E94691170
S1132790811105C0F5018381807329F406C070FCA2
S11327A0E9CE6394E7CE662019F0862D90E002C04E
S11327B08FEF9FEFCDB7DEB7EEE00C947917A0E171
S11327C0B0E0E5EEF3E10C945C177C011B016A01B7
S11327D0FC0116821782838181FF44C39E012F5F0F
S11327E03F4F3901F7019381F10193FD859193FFE7
S11327F081911F01882309F431C3853239F493FD93
S1132800859193FF81911F01853239F4B70190E0DE
S11328100E94331956016501E5CF10E0512C912C2B
S1132820FFE1F915D8F08B3279F038F4803279F081
S11328308332A1F4F92DF0612EC08D3261F0803322
S113284069F4292D21602DC0392D3260932E892DF4
S11328508460982E2AC0E92DE86015C097FC2DC02D
S113286020ED280F2A3088F496FE06C03AE0139F24
S1132870200D1124122F19C08AE0589E200D112416
S1132880522EE92DE0629E2E10C08E3231F496FC59
S1132890E5C2F92DF0649F2E08C08C3621F4292D51
S11328A02068922E02C0883641F4F10193FD85918F
S11328B093FF81911F018111B3CF9BEB980F93304C
S11328C020F4992D9061805E07C09BE9980F9330A6
S11328D008F066C1992D9F7E96FF16E09F73992E8E
S11328E0853619F49064992E08C0863621F4392F60
S11328F03068932E02C01111115097FE07C01C338B
S113290050F444244394410E27E00BC0183038F0AF
S113291027E017E005C027E09CE3492E02C0212FE1
S1132920412C560184E0A80EB11CF601608171812E
S113293082819381042DA3010E948D176C01F9817A
S1132940FC87F0FF02C0F3FF06C091FC06C092FEB4
S113295006C000E205C00DE203C00BE201C000E0C6
S11329608C858C7019F001115AC29BC297FE10C05D
S11329704C0CFC85F4FF04C08A81813309F44A9429
S1132980141474F528E0241578F588E0482E2CC03A
S113299096FC2AC0812F90E08C159D059CF03CEF9D
S11329A0C3163FEFD30674F0892D8068982E0AC0B1
S11329B0E2E0F0E0EC0FFD1FE10FF11D80818033B8
S11329C019F411501111F4CF97FE0EC0442443940E
S11329D0410E812F90E0C816D9062CF41C1904C0AE
S11329E04424439401C010E097FE06C01C141D0447
S11329F034F4C601019605C085E090E002C081E090
S1132A0090E001110196112331F0212F30E02F5F66
S1132A103F4F820F931F252D30E08217930714F444
S1132A20581A01C0512C892D897049F4552039F068
S1132A30B70180E290E00E9433195A94F7CF002343
S1132A4029F0B701802F90E00E94331993FC09C04C
S1132A50552039F0B70180E390E00E9433195A946D
S1132A60F7CF97FE4CC04601D7FE02C0812C912CB3
S1132A70C60188199909F301E80FF91FED87FE874C
S1132A809601241931092F87388B012F10E01195F5
S1132A90019511093FEF8316930629F4B7018EE2DD
S1132AA090E00E943319C814D9044CF08F8598899A
S1132AB08815990524F4ED85FE85818101C080E3A4
S1132AC0F1E08F1A91082D853E852F5F3F4F2D87AA
S1132AD03E87801691062CF0B70190E00E943319CE
S1132AE0D9CFC814D90441F49A81963320F495338C
S1132AF019F43C8534FF81E3B70190E04EC08A812C
S1132B00813319F09C859F7E9C87B70190E00E94D9
S1132B103319111105C094FC18C085E690E017C064
S1132B20B7018EE290E00E9433191E5F82E001E05B
S1132B30080FF301E80FF11D8081B70190E00E94B6
S1132B403319802F0113F3CFE6CF85E490E0B7016A
S1132B500E943319D7FC06C0C114D10441F4EC859A
S1132B60E4FF05C0D194C194D1088DE201C08BE289
S1132B70B70190E00E94331980E32AE0C216D10421
S1132B802CF08F5FFAE0CF1AD108F7CFB70190E0AD
S1132B900E943319B701C601C0960E94331954C16B
S1132BA0833631F0833779F0833509F056C020C07D
S1132BB0560132E0A30EB11CF6018081898301E045
S1132BC010E0630112C05601F2E0AF0EB11CF60131
S1132BD0C080D18096FE03C0612F70E002C06FEF09
S1132BE07FEFC6010E94A9188C01F92DFF7714C04C
S1132BF0560122E0A20EB11CF601C080D18096FEDF
S1132C0003C0612F70E002C06FEF7FEFC6010E9426
S1132C1081188C01F92DF0689F2EF3FD1AC0852DC3
S1132C2090E008171907A8F4B70180E290E00E9429
S1132C3033195A94F4CFF60197FC859197FE81914C
S1132C406F01B70190E00E94331951105A9401505A
S1132C5011090115110579F7F7C0843611F0893689
S1132C6061F5560197FE09C024E0A20EB11CF601DD
S1132C7060817181828193810AC0F2E0AF0EB11C40
S1132C80F60160817181072E000C880B990BF92DD8
S1132C90FF769F2E97FF09C090958095709561955A
S1132CA07F4F8F4F9F4FF0689F2E2AE030E0A301A3
S1132CB00E94E719C82EC6183FC0092D853721F494
S1132CC00F7E2AE030E01DC0097F8F3691F018F4A2
S1132CD0883559F0C3C0803719F0883711F0BEC069
S1132CE0006104FF09C0046007C094FE08C00660C8
S1132CF006C028E030E005C020E130E002C020E159
S1132D0032E0560107FF09C084E0A80EB11CF601A9
S1132D10608171818281938108C0F2E0AF0EB11CA1
S1132D20F6016081718180E090E0A3010E94E719BF
S1132D30C82EC6180F77902E96FE0BC0092D0E7F55
S1132D40C11650F494FE0AC092FC08C0092D0E7EF0
S1132D5005C0DC2C092D03C0DC2C01C0D12E04FFDE
S1132D600DC0FE01EC0DF11D8081803311F4097E4C
S1132D7009C002FF06C0D394D39404C0802F867880
S1132D8009F0D39403FD11C000FF06C01C2DD51417
S1132D9080F4150D1D190DC0D51458F4B70180E247
S1132DA090E00E943319D394F7CFD51410F45D1832
S1132DB001C0512C04FF10C0B70180E390E00E94D1
S1132DC0331902FF17C001FD03C088E790E002C079
S1132DD088E590E0B7010CC0802F867859F001FF98
S1132DE002C08BE201C080E207FD8DE2B70190E0F2
S1132DF00E943319C11638F4B70180E390E00E94B1
S1132E0033191150F7CFCA94F301EC0DF11D8081F1
S1132E10B70190E00E943319C110F5CF15C0F4E05A
S1132E20F51560F584E0581A93FE1FC0011127C000
S1132E302C8523FF2AC008E710E0392D3071932E2A
S1132E40F8018491811124C0552009F4E4CCB70120
S1132E5080E290E00E9433195A94F6CFF7018681FC
S1132E60978126C08FEF9FEF23C0B70180E290E0E7
S1132E700E9433195A945110F8CFD8CF512CB7016E
S1132E80802F90E00E943319D3CF0CE710E0D5CF08
S1132E9091108052B70190E00E9433190F5F1F4FC9
S1132EA0CFCF23E0251510F483E0BDCF512CC0CF44
S1132EB06096E2E10C9475172F923F924F925F92C5
S1132EC06F927F928F929F92AF92BF92CF92DF9236
S1132ED0EF92FF920F931F93CF93DF93CDB7DEB79B
S1132EE0CA1BDB0BCDBFDEBF09942A88398848880A
S1132EF05F846E847D848C849B84AA84B984C88412
S1132F00DF80EE80FD800C811B81AA81B981CE0F08
S1132F10D11DCDBFDEBFED010895283008F027E0B4
S1132F203327DA01990F311D87FD91600096610501
S1132F30710539F432602E5F3D9330E32A95E1F751
S1132F4008959F3F30F080387105610509F03C5FBA
S1132F503C5F3D93913008F08068911DDF93CF93DF
S1132F601F930F93FF92EF92192F987F9695E92F55
S1132F7096959695E90FFF27E652FF4F9927332739
S1132F80EE24FF24A701E70105900894079428F490
S1132F90360FE71EF81E491F511D660F771F881F45
S1132FA0991F0694A1F70590079428F4E70EF81EDC
S1132FB0491F561FC11D770F881F991F661F06944E
S1132FC0A1F70590079428F4F80E491F561FC71F50
S1132FD0D11D880F991F661F771F0694A1F70590CE
S1132FE0079420F4490F561FC71FD81F990F661F57
S1132FF0771F881F0694A9F784911095177041F0E4
S1133000D695C79557954795F794E7941A95C1F7C0
S1133010E0E8F0E0689415901591359165919591EB
S113302005907FE27395E118F10A430B560BC90B27
S1133030D009C0F7E10CF11E431F561FC91FD01D54
S11330407EF4703311F48A95E6CFE894015030F0A1
S1133050080F0AF40027021708F4202F2395022FE3
S11330607A3328F079E37D932A95E9F710C07D93AC
S11330702A9589F606949795679537951795179429
S1133080E118F10A430B560BC90BD00998F02395AC
S11330907E9173957A3308F070E37C932013B8F72C
S11330A07E9170617D9330F0839571E37D9370E33D
S11330B02A95E1F71124EF90FF900F911F91CF9182
S11330C0DF91992787FD9095089591110C94451AE5
S11330D0803219F089508550C8F7089591110895E8
S11330E081548A5108F4805E855A0895FC01059044
S11330F0061621F00020D9F7C00108953197CF01B9
S11331000895FC010590615070400110D8F7809536
S113311090958E0F9F1F089540E458E30E94CE18A7
S11331200895FB01DC018D91019080190110D9F300
S1133130990B0895FB01DC014150504048F0019087
S11331400D920020C9F701C01D9241505040E0F794
S11331500895FC016150704001900110D8F78095EA
S113316090958E0F9F1F0895FB0151915523A9F04F
S1133170BF01DC014D9145174111E1F759F4CD012F
S11331800190002049F04D9140154111C9F3FB0114
S11331904111EFCF81E090E001970895FA01A191E8
S11331A0B081009719F41097E1F0CD01DC01CD0155
S11331B00D90002011F4C00113C0FB0121912223C2
S11331C019F02015D9F7F3CFFB012191201519F43B
S11331D01E92119606C02223C1F70D900020A1F77C
S11331E0D001FA01A193B0830895CF93DF93EC014A
S11331F02B8120FF33C026FF0AC02F7B2B838E81B7
S11332009F8101968E839F838A8190E029C022FF4B
S11332100FC0E881F9818081082E000C990B00977A
S113322019F420622B831AC03196E883F9830EC007
S1133230EA85FB85099597FF09C02B81019611F05A
S113324080E201C080E1822B8B8308C02E813F8104
S11332502F5F3F4F2E833F83992702C08FEF9FEF4D
S1133260DF91CF9108950F931F93CF93DF93FB01C9
S1133270238121FD03C08FEF9FEF2CC022FF16C0D6
S113328046815781248135814217530744F4A08134
S1133290B1819D012F5F3F4F208331838C93268121
S11332A037812F5F3F4F2683378314C08B01EC0196
S11332B0FB010084F185E02D0995892BE1F6D80105
S11332C016968D919C911797019616968D939C93C3
S11332D01797CE01DF91CF911F910F910895A0E030
S11332E0B0E0E5E7F9E10C946C17AE014B5F5F4F7A
S11332F0FA0161917191AF01809108399091093976
S11333000E94DF13E2E00C9485170F931F93CF9371
S1133310DF93E0910839F0910939238121FF1BC023
S11333208C01D0E0C0E0F80181918F0160910839EF
S113333070910939DB011896ED91FC911997882356
S113334031F00995892B79F3DFEFCFEFECCF8AE0E9
S11333500995892B19F08FEF9FEF02C08D2F9C2FB9
S1133360DF91CF911F910F910895AEE0B0E0EBEBA8
S1133370F9E10C946C1785E08C838B899C89898393
S11333809A83AE01495E5F4F6D897E89CE010196B5
S11333900E94AD122E96E2E00C948517FB01238166
S11333A020FF12C026FD10C08F3F3FEF930761F04E
S11333B082832F7D20642383268137812150310924
S11333C026833783992708958FEF9FEF0895FA0195
S11333D0AA27283051F1203181F1E8946F936E7F50
S11333E06E5F7F4F8F4F9F4FAF4FB1E03ED0B4E041
S11333F03CD0670F781F891F9A1FA11D680F791F82
S11334008A1F911DA11D6A0F711D811D911DA11D92
S113341020D009F468943F912AE0269F11243019A2
S1133420305D3193DEF6CF010895462F4770405D3D
S11334304193B3E00FD0C9F7F6CF462F4F70405DEC
S11334404A3318F0495D31FD4052419302D0A9F747
S1133450EACFB4E0A6959795879577956795BA9541
S1133460C9F700976105710508959B01AC010A2E07
S113347006945795479537952795BA95C9F7620FDE
S1133480731F841F951FA01D0895992788270895E9
S1073490F894FFCFDA
S1133494496E69636961206E6F204164643A202532
S11334A4782C205374617475732025640D0050685E
S11334B46967683A2025782C2053746174757320E5
S11334C425640D00506C6F773A2025782C205374B2
S11334D4617475732025640D0050726573696F6E91
S11334E420656E205241573A2025640D00436175CE
S11334F464616C252E32660D0052535400475753B1
S11335040053313A256353323A25630A00474C5435
S1133514004C543A25640A0047434E3100434E316B
S11335243A28252E3666782D252E3666292A3130FA
S11335342E320A0047434E3200434E323A28252E97
S11335443666782D252E3666292A31302E320A0025
S11335545653002C0025640025730D002566004392
S11335644E004D530D00566F6C74616A65205365AB
S11335746E736F72313A2025660D00566F6C746158
S11335846A652053656E736F72323A2025660D00A6
S113359452540D005248252E3266524C252E326662
S11335A452564F252E32660A005248252E32665250
S11335B451252E3266524C252E326652564F252EF4
S11335C432660A0041430D00496E636F727265638B
S11335D47420436F6D6D616E640D004143252E327A
S10D35E4660A0041797564610D0068
S11335EE0000000200000000A30100000000200003
S11335FE00000000000000000000000000000000B9
S113360E00000000000000000000000000000000A8
S113361E0000000000000000000000000000000098
S9030000FC
